:020000040800F2
:10000000684D002049010008FD4300080532000842
:1000100099430008FD150008FD7700080000000066
:100020000000000000000000000000004D5B000820
:10003000A122000800000000E74E000891600008BF
:100040006301000863010008630100086301000800
:1000500063010008630100086301000863010008F0
:1000600063010008630100086301000863010008E0
:1000700063010008630100086301000863010008D0
:1000800063010008630100086301000863010008C0
:1000900063010008630100086301000863010008B0
:1000A00063010008630100086301000863010008A0
:1000B00049630008B5630008C963000863010008CC
:1000C0006301000863010008630100086301000880
:1000D00063010008FD7300083D74000849750008BD
:1000E0004923000863010008630100086301000858
:1000F0006301000863010008630100086301000850
:10010000630100086301000863010008630100083F
:1001100063010008C1730008DD6300086301000883
:10012000630100086301000863010008630100081F
:10013000DFF810D000F0D8FD0048004729AD0008D6
:10014000AFF30080684D002006488047064800470E
:10015000FEE7FEE7FEE7FEE7FEE7FEE7FEE7FEE777
:10016000FEE7FEE795600008310100082DE9F04147
:100170000024061B254671F1000605DA012400273C
:10018000D0EB070067EB0101161E73F1000605DADC
:100190000027D2EB0702012567EB030300F0F6FB13
:1001A00086460E4617469C46AC4204D00025D0EB4E
:1001B000050E65EB010624B10020D2EB000760EBD1
:1001C000030C704631463A466346BDE8F08140EA8A
:1001D00001039B0703D009E008C9121F08C0042AC5
:1001E000FAD203E011F8013B00F8013B521EF9D2AC
:1001F0007047D2B201E000F8012B491EFBD27047D4
:100200000022F6E710B513460A4604461946FFF7E2
:10021000F0FF204610BD421E12F8013F002BFBD11B
:1002200011F8013B02F8013B002BF9D17047421C49
:1002300010F8011B0029FBD1801A704710B500226D
:1002400000E0521C835C8C5CA34201D1002BF8D1EE
:10025000D8B2E1B2401A10BD30B5044600200346C2
:1002600000E05B1C934203D2E05CCD5C401BF8D005
:1002700030BDF0B480EA0102D40F4200B2EB410F6E
:1002800002D20246084611464A0042D0C30DDDB2F2
:10029000C1F3C752AD1A202D35DAC1F3160141F46E
:1002A000000204B15242C5F1200602FA06F12A41C9
:1002B0001044B3EBD05F23D0C4B1012DA0EBC350E9
:1002C00009DCF0BC4FF0004202EAC352DBB200F599
:1002D000000000F014BC400000F1807000EBC3503F
:1002E000A0F1807040EAD170490009E0490841EA74
:1002F000C071A0EBC35000F50000400800EBC350F4
:10030000F0BC00F0F3BB6142012202EB4101001B93
:10031000F6E7F0BC704781F00041AAE780F00040AA
:10032000A7E780EA010210B502F00043400022D0A6
:100330004A001FD0010E01EB1261C0F35600C2F358
:10034000560240F4000042F40002A0FB0220000428
:100350007F39140400D0401C50EA124001D4400000
:10036000491EC2B20C0604EBD010401C4008802A83
:1003700002D003E0002010BD20F00100002900DAC7
:100380000020184310BD30B480EA010202F000459D
:1003900030F0004221F0004013D090B1C30DD40DD5
:1003A000C2F31601C0F31600E41A41F4000140F450
:1003B00000027D34914201D3641C00E04900002C0E
:1003C00002DA30BC002070474FF400000023914255
:1003D00001D3891A034340084FEA4101F7D151B1D3
:1003E000914202D14FF0004105E002D24FF00101ED
:1003F00001E06FF0010103EBC450284430BC00F071
:1004000075BB420005D0C0F3C7525242914201DC95
:100410000020704700EBC15070472DE9FE4F804629
:1004200081EA0300C00F0C46009021F0004123F048
:100430000045B8EB0200A94105D24046214690464E
:100440001C460B46024623F00040104347D0270DC0
:10045000C7F30A00C3F30A510290401A01904028E2
:100460006BDAC3F3130040F4801B0098924620B16E
:100470000023D2EB030A63EB0B0B01985946C0F142
:100480004002504600F0B3FA06460D465046594623
:10049000019A00F0CBFA10EB08006141002487EAD2
:1004A000115284EAE7731A4340D0009A62B3019A6A
:1004B000012A4FEA075215DC001B61EB02014FF0E5
:1004C000004202EA0752CDE90042001C41F58011CA
:1004D00032462B4600F050FB03B0BDE8F08F40469B
:1004E0002146F9E7001B61EB0201001C41F5801376
:1004F00000185B412018A2F5001747EB030140EA02
:10050000D570B6196D4111E06D084FEA360645EA1F
:10051000C0754FEA0752001B61EB0201001C41F558
:10052000801149084FEA30000019514132462B46EC
:1005300003B0BDE8F04F00F010BB0098012240006E
:100540000023D0EB020263EBE073009821464FEAF0
:10055000E074B8EB000061EB0401E9E783F00043CD
:100560005BE781F0004158E72DE9FE4F81EA030483
:1005700004F0004421F0004100944FF0000B23F000
:10058000004350EA01045ED052EA03045BD0C3F397
:100590000A54C1F30A552C44A4F2F3340194A0FB8D
:1005A0000254C1F3130141F48011C3F3130343F464
:1005B000801301FB024400FB034E840A970A44EABD
:1005C000815447EA8357A4FB076802958D0A05FB0F
:1005D00007854FEA932C04FB0C542705029D4FEA34
:1005E000065847EA1637B5EB08056EEB070C870E81
:1005F000920E47EA811742EA8312A7FB0201B6EB8B
:100600000B0164EB00042B0D43EA0C335E1844EB42
:100610001C50DA465146E7FB0201C5F313044FEACA
:100620000B3343EA14534FEA0432019C43EA0603B6
:10063000A4F10C040294009CCDE900B400F09CFAF3
:1006400003B0BDE8F08F00200146F9E72DE9F04D39
:1006500081EA030404F0004B21F0004514464FF0FA
:10066000000A23F0004150EA050220D054EA0102BA
:100670001DD0C5F30A570246C5F31303C1F3130097
:10068000C1F30A5640F4801543F48013A7EB060823
:10069000101BD64608F2FD3873EB050002D308F1B3
:1006A000010801E092185B41B8F1000F03DA002065
:1006B0000146BDE8F08D00204FF4801106468446C7
:1006C0000EE0171B73EB050705D3121B63EB050345
:1006D00006434CEA010C49084FEA300092185B418E
:1006E00050EA0107EDD152EA030012D082EA040079
:1006F00083EA0501084305D0101BAB4106D2012255
:10070000002306E000224FF0004302E06FF00102F8
:1007100053101AEB06004CEB085110EB0A0041EBAA
:100720000B01BDE8F04D00F018BA70B521F00043A0
:1007300003430CD0C1F30A550024D5EB040564EB48
:100740000403D617AD1AB34102DB0020014670BD89
:10075000201841EB025170BDC10F80EAE0700844DF
:10076000CA079623002100F0CAB996230022114639
:1007700000F0C5B90EB5C10F80EAE0700844CA07A1
:10078000002140F233438DE80E000A460B4600F08C
:10079000F3F903B000BD0EB540F2334102910021E0
:1007A000CDE900110A460B4600F0E6F903B000BDA2
:1007B00000F0004220F00040C10DC0F3160040F4EC
:1007C00000007F2901DA00207047962903DCC1F17F
:1007D0009601C84001E096398840002AF4D0404292
:1007E000704720F00040C10DC0F3160040F4000037
:1007F0007F2901DA00207047962903DCC1F19601B8
:10080000C840704796398840704770B5C1F30A52A6
:1008100001F000450024C1F3130140F2FF3341F41D
:1008200080119A4201DA002070BD40F233439A42AF
:10083000A2F2334203DC524200F0E8F800E09040BC
:100840002C43F1D0404270BDC1F30A5210B5C1F340
:10085000130140F2FF3341F480119A4201DA002083
:1008600010BD40F233439A42A2F2334203DC5242BB
:1008700000F0CCF810BD904010BD00F0004230F008
:1008800000400AD0C10D01F56071C0F3160042EAC4
:100890000151C208400711437047002001467047CC
:1008A00030B5041E71F1000404DB4FF000444042F7
:1008B00064EB0101141E73F1000405DB1C464FF0CC
:1008C0000043524263EB04038B4208BF824230BDB7
:1008D00030B5041E71F1000404DB4FF000444042C7
:1008E00064EB0101141E73F1000405DB1C464FF09C
:1008F0000043524263EB0403994208BF904230BD6B
:1009000001F0004330B421F0004150EA010206D06A
:100910000A0DA2F56072C1F31301002A02DC30BC9B
:1009200000207047440F44EAC104C100E01830BC05
:1009300000EBC25000F0DAB8002801DBC0F1004043
:10094000002901DBC1F1004181427047002801DB31
:10095000C0F10040002901DBC1F10041884270472D
:1009600030B50B46014600202022012409E021FA7F
:1009700002F59D4205D303FA02F5491B04FA02F57C
:100980002844151EA2F10102F1DC30BD2DE9F05F13
:100990000546002092469B468846064681464024EE
:1009A0001BE0284641464746224600F02FF85346B2
:1009B0005A46C01A914110D311461846224600F0FB
:1009C00016F82D1A67EB01084F4622460120002138
:1009D00000F00DF817EB00094E41201EA4F10104B0
:1009E000DFDC484631462A464346BDE8F09F202AD0
:1009F00004DB203A00FA02F1002070479140C2F176
:100A0000200320FA03F3194390407047202A04DBA7
:100A1000203A21FA02F00021704721FA02F3D04077
:100A2000C2F120029140084319467047202A06DB94
:100A3000CB17203A41FA02F043EAE07306E041FAAC
:100A400002F3D040C2F1200291400843194670479A
:100A50000FB4002300B589B00CA900910B996FF079
:100A60000042CB601E4B06931E4B07930423CDE937
:100A700001321D4A089202466B46002000F0E0F960
:100A800009B05DF814FB70B586B006464FF0FF3034
:100A90000091CDE90101002015460C460490324634
:100AA000694604A8FFF7D4FF02460498211825B12F
:100AB00008B1084600E020462860049800280DD0C0
:100AC000002A02DD0098884208D0081B0094CDE976
:100AD00001043246694604A8FFF7BAFF06B070BDAC
:100AE00079100008971000080D0D00080029A8BF14
:100AF0007047401C490008BF20F00100704710B447
:100B0000B0FA80FC00FA0CF050EA010404BF10BCFB
:100B1000704749B1CCF1200421FA04F411FA0CF128
:100B200018BF012121430843A3EB0C01CB1D4FEA61
:100B300000614FEA102042BF002010BC704700EB5C
:100B4000C35010440029A4BF10BC7047401C49008A
:100B500008BF20F0010010BC704710B5141E73F1DF
:100B6000000408DA401C41F1000192185B411A436D
:100B700001D120F0010010BD2DE9F04D92469B46B9
:100B800011B1B1FA81F202E0B0FA80F2203290465F
:100B9000FFF72DFF04460F4640EA0A0041EA0B0129
:100BA00053465A46084313D0114653EA010019D060
:100BB000C8F140025046FFF729FF05460E46504651
:100BC00059464246FFF713FF084305D0012004E0D1
:100BD00020463946BDE8F08D0020054346EAE07620
:100BE0002C4337430A986305E40AA0EB080000226F
:100BF000FD0A44EA47540A3002D500200146E9E7DD
:100C0000010510196941DDE9084500196941BDE890
:100C1000F04DA2E72DE9F04D00231A461B1A8A4138
:100C200003DB00200146BDE8F08DC1F30A52C1F399
:100C3000130141F480154FF0000BD10702D10018C9
:100C40006D41521E0027044640F2FF11384601EB69
:100C5000620A3E468046024600204FF48011FFF7AC
:100C6000D5FEC2197141BB1846EB0100B4EB030C71
:100C700075EB000C04D3E41A65EB000517460E462D
:100C8000241908F101006D4180463428E3DDF9198B
:100C900046EB0600091BA84103D24FF0FF32134672
:100CA00001E0002213461BEB070046EB0A51BDE8AA
:100CB000F04DFFF752BFC1F30A52C1F3130140F2E6
:100CC000FF3341F480119A4202DA00200146704756
:100CD00040F233439A42A2F2334202DC5242FFF71F
:100CE00095BEFFF784BE0000064C074D06E0E068A5
:100CF00040F0010394E8070098471034AC42F6D363
:100D0000FFF71AFAECE300080CE40008C0B24FF455
:100D1000F05100F0D1B900002DE9FF4F087883B001
:100D20009946FF2805D0491C2D2804D00024002016
:100D300008E000200BE00124F9E700EB800003EB62
:100D40004000491C0B78FF2BF7D104B1404200232F
:100D50000293147819461D462D2C01D02B2C04D15A
:100D6000521C2D2C13D000240294AA461478FF2C78
:100D70000FD00A25A3FB057801FB05814FF0000C7D
:100D800003FB0C11521CE3194AEB0101EEE70124AD
:100D9000EAE7814453EA010002D019F5C87F06DA78
:100DA00003980021C0E9001107B0BDE8F08F0025CD
:100DB000AE4E2F46DFF8B882184600F091F9CDE923
:100DC0000001B9F1000002DAC9F1000400E00446B4
:100DD0000023A74A1AEB030B42EB045A12E0E00788
:100DE00007D02A46334638464146FFF7BDFB074643
:100DF00088462A46334610461946FFF7B5FB054696
:100E00000E466410002CEAD1DDE90001B9F1000FB3
:100E10005A46534606DAFFF719FC3A464346FFF7AF
:100E200015FC05E0FFF7A0FB3A464346FFF79CFBA5
:100E3000029A0AB181F00041039AC2E90001B3E7C6
:100E40002DE9FF4F1F468DB0D7E901464FF0FF381F
:100E50002E2045464FF000090B90B9696D1C0E9885
:100E60008847396A824688470028F6D1BAF1FF3FA1
:100E70000AD024F4D064002E11DDBAF12B0F08D073
:100E8000BAF12D0F0BD102E0404611B08DE744F4CA
:100E90008064B9696D1C0E9888478246761E694643
:100EA000600501D52D2000E02B208DF8000001F118
:100EB000010B0DF1200809E0B9696D1C0E988847F7
:100EC00082460F9844F40074761E0560002E02DD01
:100ED000BAF1300FF0D00B998A453ED144F080042E
:100EE00006E00F99681CA9F1010944F40074086038
:100EF000B9696D1C761E0E98884782463028F0D05E
:100F00002BE00B998A4505D1200603D444F08004D8
:100F1000761E18E0504607F051F908B30DF11301A1
:100F2000761E44F400748B4508D2AAF130000BF809
:100F3000010B200607D5A9F1010003E0200602D429
:100F400009F101008146A00502D50F99681C0860CF
:100F5000B9696D1C0E9888478246002ED1DC53E09B
:100F6000002E51DDBAF1650F02D0BAF1450F4BD119
:100F7000A00549D5B9696D1C24F44074761E0E98FD
:100F800088478246002E0CDD2B2804D0BAF12D0FA5
:100F900007D144F48074B9696D1C0E988847824665
:100FA000761EE00501D52D2100E02B2108F8011B5C
:100FB000CDF82C8021E00DF12901761E44F4007457
:100FC00088450CD2AAF1300010F0FF0088F800002C
:100FD00002D10B99884509D908F1010806E0E0051E
:100FE00001D5244801E042F20F708146B9696D1CB9
:100FF0000E98884782460F980560002E04DD504603
:1010000007F0DCF80028D6D1F9690E988847FF2050
:101010008BF8000088F800000020069007904B46EF
:101020006A4608A906A8FFF777FEA00502D46FF06C
:1010300001002AE714F0240F0AD0E00714D1DDE9FB
:1010400006123868031D3B600068C0E900120BE01F
:10105000DDE90601FFF754FC0146E00704D13868DA
:10106000021D3A600068016028460EE70000144047
:101070000000F03FF1D8FFFF426842B1016811F86B
:10108000013B23B1521EC0E90012184670470121EE
:10109000C160881E704742685AB1C368016843B98D
:1010A00083688B4205D0491E521CC0E90012002003
:1010B00070474FF0FF3070477F2801D9002208E0C9
:1010C000064A02EB5002C007127800D1120902F062
:1010D0000F020120904008407047000018E300080C
:1010E0000EB540F2334202920022CDE900221346AF
:1010F000FFF742FD03B000BD70B58C1810F8015B1E
:1011000015F0070301D110F8013B2A1106D110F8A0
:10111000012B03E010F8016B01F8016B5B1EF9D1A4
:101120002B0705D40023521E0DD401F8013BFAE72A
:1011300010F8013BCB1A921C03E013F8015B01F895
:10114000015B521EF9D5A142D8D3002070BD002901
:1011500004D0816841F0010181607047816821F00D
:10116000010181607047000010B5154988420AD11D
:1011700044150121204604F025FA2046BDE8104020
:10118000002104F01FBA0F4988420AD10415012139
:10119000204604F017FA2046BDE81040002104F074
:1011A00011BA094988420AD10121CC03204604F032
:1011B00009FA2046BDE81040002104F003BA10BD32
:1011C0000024014000280140003C0140014600206D
:1011D0008968490700D501207047C06C80B270470C
:1011E0000246002012680A4200D0012070470146E2
:1011F00000208968090700D50120704710B54268B2
:101200000E4B1A400C790B6842EA042213434360E8
:1012100082680B4B1A40D1E9024323434C7942EADE
:10122000440213438360C26A22F47002097C491E9F
:10123000C9B242EA0151C16210BD0000FFFEF0FFD9
:10124000FDF7F1FF70B5072609290AD9C568A1F194
:101250000A0404EB4404A640B543A3401D43C56003
:1012600007E0056901EB4104A640B543A3401D43D7
:1012700005611F23072A09D2446B521E02EB82022A
:1012800093409C4391400C43446370BD0D2A09D2A6
:10129000046BD21F02EB820293409C4391400C43AB
:1012A000046370BDC46A0D3A02EB820293409C4312
:1012B00091400C43C46270BD816841F008018160B7
:1012C0007047002904D0816841F4A0018160704713
:1012D000816821F4A00181607047816841F00401B8
:1012E0008160704770B51948194A0188C1F1A001A1
:1012F0001181038943F2C8218B4200D90181018900
:1013000041F66410401A00B25081124D124C002276
:1013100049B100F57A6041F27D51884206D301F06F
:10132000F7FA206003E022602A6070BD226005F0B9
:10133000E3FF286009492068884201DD216070BD13
:1013400007498842FBD9216070BD0000EA030020F4
:10135000F4030020300000202C0000200000F041A9
:101360000000F0C170B50C4800240C4E40680C4DD4
:10137000FA280CD20B48306001200AF0D1FD34600D
:101380000948286001200AF0CBFD2C6070BD074899
:1013900030602C6070BD0000C40000202C000020D4
:1013A00030000020000020C10000E1430000704137
:1013B0000D490878002803D00B2801D00C2809D14A
:1013C0000A484068002805D0A0F115024F2A02D231
:1013D0000B2008707047F1383B2802D20C200870AF
:1013E00070470020087070476A020020C400002087
:1013F00008B50121102004F0D7F84FF47070ADF853
:10140000000018208DF8030003208DF802006946C3
:10141000014801F0BDFA08BD0010014070B588B068
:1014200004460D460121480304F0BEF8244E304620
:1014300005F086F8641EADF81840ADF8145000248D
:10144000ADF81A40ADF8164005A9304605F046FB48
:101450006020ADF804000120ADF80600ADF80A40A8
:10146000ADF80C4001A9304605F0F0F901A930466D
:1014700005F036FA01A9304605F080FA01A9304698
:1014800005F0C4FA0121304605F04CF80821304639
:1014900005F020FA0821304605F066FA08213046AA
:1014A00005F0AEFA0821304605F0E4FA0121304695
:1014B00005F01AF80121304605F028F808B070BD93
:1014C0000034014070B504460D4616480068FFF729
:1014D00043F92146FEF71FFF044685F00040124EF7
:1014E0003169FEF71EFF1149FEF74DFF0546104911
:1014F000F068FEF748FF2146FEF713FF2946FEF786
:101500000AFFFFF755F90B490978032908D1FFF7BE
:1015100023F93168FEF705FFBDE87040FFF748B9D1
:1015200070BD0000280000203C0100200000C842DF
:101530000000C8C2D502002070B54FF47A740C4D7B
:101540000146072301222846FFF77CFE0121284699
:10155000FFF7B7FE02212846FFF742FE10B9641ECE
:10156000A4B2F7D22846BDE87040FFF736BE0000AF
:101570000024014030B587B001214FF4017004F020
:1015800013F84FF4004003F0E9FF2020ADF8040009
:1015900000248DF8074001A9164801F0F9F9164D0D
:1015A0002846FFF7E1FD02948DF80C408DF80D40C0
:1015B0004FF460210491059401218DF8181002A9BF
:1015C0002846FFF71BFE01212846FFF7C0FD2846ED
:1015D000FFF772FE2846FFF70AFE0028FAD12846D8
:1015E000FFF77BFE2846FFF7F1FD0028FAD107B090
:1015F00030BD00000008014000240140FEE700006B
:1016000010B504F043F80020054A02F5807132F865
:101610001030DB080B54401C8028F8DB014810BD5B
:101620006C0600206C0700202DE9F04F8DB0334C84
:10163000606801285ED1324800680C903148D0F8CB
:101640000080324830490068FEF79DFE0646206162
:101650002F48076867612F480068FFF79CF8002251
:101660002D4BFEF7F3FFFFF74BF9044650212B48B3
:10167000FEF7C6FD29482AA10968016029480068CB
:10168000FFF7FBF882468B462046FFF7F6F8044644
:101690000D463846FFF7F1F8CDE90A013046FFF76D
:1016A000ECF806460F464046FFF7E7F880468946C5
:1016B0000C98FFF7E2F806AAA2E8300CDDE90A234D
:1016C000CDE90089CDE9042302460B46CDE9026746
:1016D00015A1124806F04AF9104850215030FEF783
:1016E0008FFD0DB00D49BDE8F04F502201F15000C3
:1016F000FEF76DBD0DB0BDE8F08F00006802002060
:1017000034010020380100200000C84224000020DD
:1017100010000020C800002000002440902300207A
:10172000244C560028010020244C5625332E3266C6
:101730002C525625332E32662C414325332E3266E9
:101740002C475925332E32662C43534225332E32F3
:10175000662C565425332E32662300002DE9F041C5
:10176000144E154F1548B2690025154C4FF4006111
:10177000BA4204DB2560BDE8F04101F092B9114B9B
:101780009A4202DC01F08FF908E00F4B9A4202DC2A
:1017900001F087F902E001F084F92560F06903287F
:1017A00003DA0A482060BDE8F08101DD2760FAE72E
:1017B0002560F8E7140400200000E1430008014020
:1017C00030000020000048430000BE430000E1C399
:1017D0002DE9F0472E4C2068FEF7C7FF8046D4F86D
:1017E0003804FEF7C2FF8146D4F86801FEF7BDFF5A
:1017F0000146284C284E294FE0780025062810D2B3
:10180000DFE800F003151D252D402548A8F5000848
:10181000804508D235603D600A2007F015FE0120A2
:10182000E070BDE8F0871F4830603D60F9E709F0DF
:1018300093F80028F5D1E078401CE070F1E71A48F1
:1018400030603D60642007F0FFFD0320E07009F088
:1018500083F80028E5D1E078401CE070E1E74846D5
:10186000FFF774F806D8356010483860642007F038
:10187000EBFD05E035600E483860642007F0E4FDBC
:101880000520E07009F068F80028CAD1E570C8E7C3
:1018900080270020140400202C00002030000020AD
:1018A00000002F430000A041000070C10000E1C310
:1018B0000000E1432DE9F0411C4D2868FEF755FF7B
:1018C0000446D5F8EC04FEF750FF0646D5F8B40000
:1018D000FEF74BFF0346164FA4F5000500201549FF
:1018E000154ABD4204D2154B0B601060BDE8F08173
:1018F000134D144F2544BD4203D2134B0B601060AF
:10190000F4E7124F124DBE4205DAAC4203DD086027
:1019100010481060EAE7BB4205DAAC4203DD08601C
:101920000D481060E2E708601060DFE780270020C4
:10193000000082422C00002030000020000070C116
:10194000FFFF5FBCFFFF4000000070410000AA43A2
:1019500000007A430000E1C30000E1432DE9F047B5
:1019600049480068FEF701FF484C00254FF0010888
:101970002379072B0FD301230022022144A002F078
:1019800074FD012002F0B6F80028FAD0257184F821
:101990000580BDE8F0873D4AA0F5000CDFF8049112
:1019A0004148424E424F12784FF40061CC450ED26E
:1019B000012AEED101F077F83068E06238682063E0
:1019C00035603D60257008F0C7FF2081E1E742B136
:1019D0003848082BDDD2DFE803F0111D25313942EC
:1019E0004A54E26A3260226B3A6001F05AF884F895
:1019F00000802089BDE8F0470AF0E6BB2E4901606F
:101A00002E4830603D60C82007F01EFD2079401C44
:101A10002071BEE708F0A0FF0028BAD12079401C51
:101A20002071B6E7264901603560264838603F20BE
:101A300007F00AFD2079401C2071AAE708F08CFF0E
:101A40000028A6D12079401C2071A2E735603D60B6
:101A50001E2007F0F9FC2079401C207199E708F05E
:101A60007BFF002895D12079401C207191E7607997
:101A7000082803D2401C607125718AE70720207175
:101A800087E735603D6084E780270020140400204C
:101A9000706174726F6C20707574206B6579312081
:101AA0002020200000001643000801402C000020E8
:101AB000300000206C01002000008C4200007041CA
:101AC00000000C420080A2442DE9F04137488178A3
:101AD00001292ED100278770354936A0FEF7AEFBCD
:101AE000364C374D012630B3314936A0FEF7A6FB00
:101AF00078B32F4935A0FEF7A1FB374C50B32C49E2
:101B000036A0FEF79BFBA0B3294937A0FEF796FB52
:101B100000280ED10024C5F8AC61142007F08CFC1D
:101B2000C5F8AC71142007F087FC641CE4B2032CE8
:101B3000F1D3BDE8F081C5F8AC61142007F07CFC5E
:101B4000C5F8AC712A48206002200AF0E9F9276044
:101B5000EFE700E00EE0C5F8AC61142007F06CFC84
:101B6000C5F8AC712348206002200AF0D9F927603B
:101B7000DFE70DE0C5F8AC61142007F05DFCC5F8A7
:101B8000AC711D48206001200AF0CAF92760D0E737
:101B9000C5F8AC61142007F04FFCC5F8AC711748CC
:101BA000206001200AF0BCF92760C2E7E4030020AE
:101BB00054250020676F6261636B00002C000020D9
:101BC00000002142676F6168656164007475726E20
:101BD0006C65667400000000300000207475726E41
:101BE000726967687400000062757A7A6572000035
:101BF000000070C1000070410000C8C30000C8436D
:101C000070B522488178012921D1002484702049AF
:101C100020A0FEF713FBD8B11D491FA0FEF70EFB55
:101C20001E4D10B31A491EA0FEF708FB00280ED166
:101C30000123002203211BA002F017FC1C4828608E
:101C400001200AF06DF901200AF06AF92C6070BDDC
:101C500001230022032117A002F007FC184D0120E8
:101C600028600AF05DF92C6070BD01230022032179
:101C700014A002F0FAFB1648286001200AF050F97F
:101C800001200AF04DF92C6070BD0000E403002033
:101C900054250020360000003200000030000020F3
:101CA000330000006E756D3A3321202000000000E3
:101CB0000000C8436E756D3A3621202000000000F8
:101CC000AC0121426E756D3A3221202000000000E7
:101CD0000000C8C32DE9F0411D488178012921D1B8
:101CE000002484701B491CA0FEF7A8FADFF86C8062
:101CF0001B4DC8B117491BA0FEF7A0FA1A4E1B4F87
:101D0000C8B114491AA0FEF799FA00280AD1C6F8FA
:101D1000008001200AF004F934602F6001200AF0ED
:101D2000FFF82C60BDE8F081C5F8008002200AF0C1
:101D3000F7F82C60F6E70F48306001200AF0F0F861
:101D400034602F6001200AF0EBF82C60EAE7000015
:101D5000E403002054250020310000000000C843A7
:101D60002C000020320000003000002000007041F4
:101D7000330000000000C8C32DE9F04107460846C3
:101D80000B4E0C4C2168FEF7CCFA216BFEF771FA72
:101D900001460948FEF7C5FA054631463846FEF7C2
:101DA000C0FA2946FEF765FA2063BDE8F08100001D
:101DB0000AD7A33C1003002048E17A3F2DE9F04107
:101DC000074608460B4E0C4C2168FEF7AAFA216E16
:101DD000FEF74FFA01460948FEF7A3FA05463146D9
:101DE0003846FEF79EFA2946FEF743FA2066BDE81C
:101DF000F08100000AD7A33C1003002048E17A3F9D
:101E0000072181430902054A10684FF6FF03184075
:101E1000034B184308431060704700000CED00E0CE
:101E20000000FA0508B5002000906B4601227521DC
:101E3000682008F01BFE29A005F088FD9DF8000031
:101E4000682809D02E4801682E4A01F4E061114348
:101E50000160BFF34F8FFEE709F048FA00283CD13C
:101E6000782009F085FF10B91CA005F06FFD7820DF
:101E700009F048F910B924A005F068FDC82009F060
:101E800035FF10B92AA005F061FD07F059FC10B923
:101E900031A005F05BFD3D4808F088FE07F05EFECE
:101EA00010B93BA005F052FD40F2731007F008FB9B
:101EB00010B941A005F04AFDC82007F093FD10B904
:101EC00047A005F043FD0AF007F9012009F026FEBE
:101ED000002802D14BA005F039FD08BD6D70755F7B
:101EE0007365745F73656E736F7220636F6D706C72
:101EF000657465202E2E2E2E2E2E0D0A0000000059
:101F00000CED00E00400FA056D70755F636F6E669E
:101F100069677572655F6669666F20636F6D706C67
:101F2000657465202E2E2E2E2E2E0D0A0000000028
:101F30006D70755F7365745F73616D706C655F72F2
:101F400061746520636F6D706C657465202E2E2E34
:101F50002E2E2E0D0A000000646D705F6C6F6164A0
:101F60005F6D6F74696F6E5F6472697665725F66CC
:101F700069726D7761726520636F6D706C657465F1
:101F8000202E2E2E2E2E2E0D0A0000008C0000205A
:101F9000646D705F7365745F6F7269656E74617490
:101FA000696F6E20636F6D706C657465202E2E2EC8
:101FB0002E2E2E0D0A000000646D705F656E61624A
:101FC0006C655F6665617475726520636F6D706CBA
:101FD000657465202E2E2E2E2E2E0D0A0000000078
:101FE000646D705F7365745F6669666F5F7261745C
:101FF0006520636F6D706C657465202E2E2E2E2EFD
:102000002E0D0A006D70755F7365745F646D705F8F
:10201000737461746520636F6D706C657465202ED8
:102020002E2E2E2E2E0D0A0070B5174B242819784F
:1020300000D1B1B1012926D10024232819D02428A8
:1020400021D05978114D4A1CD2B25A706854142AC2
:1020500019D95C701C702846BDE870401421FEF749
:10206000CFB801201870BDE8704014210748FEF772
:10207000C7B81C705C7000F053FFBDE870401421BD
:102080000248FEF7BDB870BDE803002068250020B7
:1020900030B4164B01222428197800D129B1012926
:1020A00021D10024232806D008E01A7030BC142166
:1020B0000F48FEF7A5B81C705C709A70197801295A
:1020C00011D124280FD05978094D4A1CD2B25A7028
:1020D0006854142A07D95C701C709C70284630BC68
:1020E0001421FEF78DB830BC70470000E4030020D7
:1020F0005425002030B4164B01222428197800D131
:1021000029B1012921D10024232806D008E01A7022
:1021100030BC14210F48FEF773B81C705C709A70C5
:102120001978012911D124280FD05978094D4A1C5A
:10213000D2B25A706854142A07D95C701C709C7013
:10214000284630BC1421FEF75BB830BC7047000055
:10215000E40300205425002030B4164B012224282B
:10216000197800D129B1012921D10024232806D0D2
:1021700008E01A7030BC14210F48FEF741B81C70FB
:102180005C709A701978012911D124280FD05978E0
:10219000094D4A1CD2B25A706854142A07D95C708F
:1021A0001C709C70284630BC1421FEF729B830BC46
:1021B00070470000E4030020542500202DE9F04181
:1021C000234CA4F5E953D87800EB4005002019789A
:1021D0005A7841EA022121809978A170D978E1707A
:1021E00019795A7941EA0221A1809979DA7941EA8B
:1021F0000221E180197A5A7A41EA022121810021E3
:1022000010E05A1804EB8007967A7E81D67A127B0A
:1022100046EA0226024604EB8202401CC0B29681C6
:10222000C91C89B2A942ECD3204604F0D3FE30B1D8
:102230002046BDE8F04140F2AA51FDF7E1BF054953
:1022400001204870BDE8F04101020348FDF7D8BF06
:10225000A04300200C0400208026002010B50D496A
:102260004FF48074224601F58070FDF7B0FF2146DF
:102270000848FDF7C5FFFFF7A1FF0748417801298E
:1022800006D100214170BDE81040044800F0D8BEDE
:1022900010BD0000802500200C040020A043002079
:1022A000704701B508E00020401CC0B20A28FBD3EB
:1022B0009DF80000401E00909DF800000028F2D11B
:1022C00008BD000070B5FEF729F80646094D3046F6
:1022D000A96AFEF720F80849FEF723F804464FF0F4
:1022E00040413046FEF71DF82146FEF714F8AE6275
:1022F00070BD0000140400200000404170B5FEF7DE
:102300000DF80C4C054660632846E16BFEF703F8B8
:102310000949FEF706F806464FF040412846FEF709
:1023200000F83146FDF7F7FF0146A063E563084674
:1023300070BD000014040020000040410020401C3B
:102340000A28FCDB704700002DE9FE4F9148006829
:1023500000287DD190494FF4805008608F4C6088F0
:1023600008B1401E6080DFF838A24FF000089AF8EC
:102370000000042812D005281BD006281CD01228E3
:102380001DD013282CD008282FD0092830D0102891
:1023900031D0112832D00E2833D034E06078401C80
:1023A000C0B2607014282ED984F8018002F014FBAA
:1023B00029E003F047FC26E003F044FC23E020780A
:1023C000401CC0B2207004281DD984F8008003F09E
:1023D00031FCFFF715F97349086006F0D7FF12E0EA
:1023E00008F04AF803F0C6FD0DE003F03BFC0AE0FC
:1023F000FEF778FF07E001F0A3FE04E001F0E8FE3D
:1024000001E000F031FD6848007800F083FB002017
:1024100003F04CFA0290012003F048FAC0F10009E1
:102420004946029800F082FE9AF800001538032809
:1024300001D801F0A5FD5D485D4F01683868FFF7E0
:1024400041F883464946029805F0DAF9064600E06D
:102450009EE09AF800005749052835D0062833D069
:10246000122836D0132839D008283CD0086804F048
:10247000E3FE054604F0C6FB0BEB06024E4E511977
:1024800001443160521B4D4D10442860084602F053
:1024900015FD3060286802F011FD2860DFF820B1DA
:1024A0004FF42F615A46306802F016FD30605A46EC
:1024B0004FF42F61286802F00FFD28609AF80000A1
:1024C000DFF800B1A0B129E0086804F0F3FD05468B
:1024D000D0E7086804F09AFD0546CBE7086804F0E9
:1024E000BDFD0546C6E7086804F04EFE0546C1E797
:1024F00004F0E0FB90B934484B46029A3968006812
:1025000002F0F2FC10B101208BF800004A4602995B
:10251000386802F0E9FF08B18BF80080216938685B
:1025200004F05AFE28B100249BF80000204302D09A
:1025300003E00124F8E704F029FB1CB129683068A6
:1025400003F096FC9AF8000019280ED1002C01D057
:10255000296801E04FF0000101D0306801E04FF040
:1025600000004B46029A01F00FFB0298CDE90009EA
:10257000002C01D02B6801E04FF0000301D032683D
:1025800001E04FF0000209483968006804F060FC7F
:10259000BDE8FE8F300121421404014018010020E3
:1025A000D5020020080000200000002010000020BC
:1025B0000C00002014000020180000201C00002047
:1025C00010F5FFFF040000202400002030B51B4A56
:1025D00083790168002B2AD013688B431360111D87
:1025E0000B680468A3430B60017911440B6804680D
:1025F00023430B60114C0834216803689943216020
:10260000231D19680568A94319604179102905D06F
:1026100011440A68006802430A6030BD21680268FC
:1026200011432160196800680143196030BD0079C9
:10263000104402688A43026030BD0000000401407B
:1026400010B588B020216846FDF7DAFD134C14A1BF
:1026500068466369226805F089F90123002219465A
:10266000684601F002FFD4E9012312A1684605F093
:102670007DF9012300220221684601F0F6FED4E92B
:10268000032311A1684605F071F9012300220321FB
:10269000684601F0EAFE08B010BD0000CC00002042
:1026A000736561743A256420204D49443A256420BD
:1026B000202000004C313A256420204C333A256418
:1026C000202020202000000052313A256420205292
:1026D000333A2564202020202000000010B588B067
:1026E0000121022002F044FF0121042002F05CFFDE
:1026F000C020ADF8040004208DF8070001A91C4893
:1027000000F046F905A804F037FA0020ADF81400EF
:102710004FF6FF71ADF81810ADF81A00ADF81600BD
:10272000144C05A9204604F0D9F900231A460321C8
:10273000204604F00DF802A804F076F80A21ADF85E
:10274000101002A9204604F029F80121204603F0C8
:10275000D7FE01221146204604F06EF800212046E3
:1027600004F092F90121204603F0D0FE08B010BD1C
:10277000000801400004004010B588B00121042089
:1027800002F0F6FE0121082002F00EFFC020ADF895
:10279000040004208DF8070001A91C4800F0F8F897
:1027A00005A804F0E9F90020ADF814004FF6FF7118
:1027B000ADF81810ADF81A00ADF81600144C05A9C4
:1027C000204604F08BF900231A460321204603F02B
:1027D000BFFF02A804F028F80A21ADF8101002A9E2
:1027E000204603F0DBFF0121204603F089FE012291
:1027F0001146204604F020F80021204604F044F958
:102800000121204603F082FE08B010BD000C0140FB
:102810000008004070B53C4B188806463B4C052527
:102820006580618833F81120824200D31046491C2C
:1028300089B261807B29F4D3A68165806188A689ED
:1028400033F81120B24200D8A281491C89B26180BC
:102850007B29F3D3A1890844C0F3470060706580E9
:10286000618833F8112082421BD94A1C33F81220A8
:10287000824216D98A1C33F81220824211D9CA1C0E
:1028800033F8122082420CD20A1D33F81220824201
:1028900007D24A1D33F81220824202D26188E180B9
:1028A00004E0491C89B261807629D9D37621A180C0
:1028B000A18833F8112082421BD24A1C33F812201F
:1028C000824216D28A1C33F81220824211D2CA1CCC
:1028D00033F8122082420CD90A1D33F812208242AA
:1028E00007D94A1D33F81220824202D9A0882081DC
:1028F00004E0491E89B2A1800529D9D82089E18840
:1029000008444008207070BD6C060020E4000020E0
:102910002DE9F041104FB7F90A603E80B7F9020087
:10292000301AFDF727FFDFF834800D4B4246FDF7E4
:102930001BFE04460D463046FDF71CFF4246094B80
:10294000FDF712FE22462B46FDF767FDFDF7D8FF87
:102950007E80BDE8F0810000F4030020FCA9F1D2E4
:102960004D62403F4D62503F10B58A07120F0F2352
:10297000934021F00304054921448C689C438C60FA
:102980008B68904003438B6010BD00000000014045
:102990002DE9F0410022CC7804F00F03E40601D5C4
:1029A0008C7823430C784FF00F0714F0FF0F4FF093
:1029B000010C1CD005680CFA02F40E882640A642D1
:1029C00011D1960007FA06F825EA080503FA06F879
:1029D00048EA0505CE78282E02D0482E02D002E023
:1029E000446100E00461521C082AE4D305600A88AF
:1029F000FF2A1ED94568002202F108060CFA06F4E7
:102A00000E882640A64210D1960007FA06F825EA5D
:102A1000080503FA06F848EA0505CE78282E00D105
:102A20004461CE78482E00D10461521C082AE3D3B9
:102A30004560BDE8F0810000F0B5154C002801DAD2
:102A4000E36900E06368C0F30346420D120185B2FA
:102A5000C0F301579540032F07D0C2020CD50322C3
:102A6000B240934343F0706209E023F07062636800
:102A700023F07063636002E0AB4343F0706201B126
:102A80002A43002801DAE261F0BD6260F0BD000077
:102A9000000001400246002092680A4200D0012056
:102AA00070474161704701617047000010B50B4CE1
:102AB0000146072301222046FEF7C4FB01212046E0
:102AC000FEF7FFFB02212046FEF78AFB0028F9D023
:102AD0002046BDE81040FEF780BB00000028014002
:102AE00010B50B4C0146072301222046FEF7AAFB36
:102AF00001212046FEF7E5FB02212046FEF770FB90
:102B00000028F9D02046BDE81040FEF766BB000063
:102B1000002801402DE9F04F8DB0044602F0DCFEA4
:102B2000BB490860DFF8ECB2BB4E012C7ED04421DB
:102B3000D02000F068FB04464321D02000F063FB66
:102B400004EB0020FDF711FE07464621D02000F0DF
:102B50005AFB04464521D02000F055FB04EB002031
:102B6000FDF703FE81464821D02000F04CFB0446CF
:102B70004721D02000F047FB04EB0020FDF7F5FDD6
:102B800005463C21D02000F03EFB04463B21D020EE
:102B900000F039FB04EB0020FDF7E7FD82463E2103
:102BA000D02000F030FB04463D21D02000F02BFB6C
:102BB00004EB0020FDF7D9FD80464021D02000F035
:102BC00022FB04463F21D02000F01DFB04EB002037
:102BD000FDF7CBFD0446B7F18E4F05DD4FF08F4179
:102BE0003846FDF798FB0746B9F18E4F05DD4FF0EB
:102BF0008F414846FDF78FFB8146B5F18E4F05DDCD
:102C00004FF08F412846FDF786FB0546BAF18E4FFF
:102C100005DD4FF08F415046FDF77DFB8246B8F150
:102C20008E4F07DD4FF08F41404600E05FE0FDF73B
:102C300072FB8046B4F18E4F05DD4FF08F41204688
:102C4000FDF769FB044687F00040CBF800005046D2
:102C5000FDF713FEDFF8C4A1DFF8C4B1CDE90B1016
:102C600052465B46FDF7F2FCFDF74AFE02904046F5
:102C7000FDF703FECDE9091052465B46FDF7E6FC81
:102C8000FDF73EFE01902046FDF7F7FDCDE9071068
:102C900052465B46FDF7DAFCFDF732FE00903846FF
:102CA000FDF7EBFDDFF87C81CDE905104FF06637CD
:102CB0003A464346FDF7CAFCFDF722FE82464846E7
:102CC000FDF7DBFDCDE903103A464346FDF7BEFCB8
:102CD000FDF716FE80465448544FDFF854B1007893
:102CE000DFF8509102281ED0032843D087E002F07D
:102CF00005FD514831680160504CB4F90000FDF702
:102D00002BFDCBF80000B4F90400FDF725FD4C497C
:102D100008604C48B0F90400FDF71EFD4A49086000
:102D20000DB0BDE8F08FDDE900108AF0004200F040
:102D300069FCFDF7A2FD3A465B46FDF787FC0022E1
:102D40004B46FDF711FCFDF7DBFD30604246009974
:102D5000029800F085FDFDF790FD3A465B46FDF7D1
:102D600075FC00224B46FDF7FFFBFDF7C9FD374917
:102D7000086044E0DDE90732DDE9091006F038F8C3
:102D800000224B46FDF7F0FB3A465B46FDF75EFC42
:102D9000FDF7B6FD8046DDE90732DDE90B1006F0F0
:102DA00027F800224B46FDF7DFFB3A465B46FDF76E
:102DB0004DFCFDF7A5FD0746DFF894A0DDE9051001
:102DC0004FF066394A465346FDF740FCFDF798FD43
:102DD00001464046FEF7D0FF80F000403060DDE95C
:102DE00003104A465346FDF731FCFDF789FD0146C5
:102DF0003846FEF7E3FF80F00041144801600E48BA
:102E0000316801600E4805600F48046088E70000E3
:102E10002000002010000020780000208FC2F5283C
:102E20005C1F9A40665E8D4000000020F1D4C853BC
:102E3000FB210940008066400C000020800000203B
:102E400014000020860000202400002074000020D0
:102E50006666304010B500F0B9F8BDE81040014991
:102E6000FDF75FBAC3F5804070B51A4E1848B061DF
:102E70000320F061184CD4F83804FDF776FC174DA8
:102E80006860D4F8B004FDF770FCA8602068FDF716
:102E90006CFCE860D4F8F000FDF767FC2861D4F81A
:102EA0006801FDF762FC6861002455F8241011F0F8
:102EB000FF4F07D0B069FDF749FD03D255F8240054
:102EC000B061F461641CE4B2072CEED370BD000065
:102ED000003C1C4614040020802700204C490020A0
:102EE00010B50D4C012020600F2006F0B7FA00222B
:102EF00022600A49088803060CD500F03F00000450
:102F00004B881844AA2358434FF47A73B0FBF3F06C
:102F100048600A8010BD000080012142C4000020EA
:102F200070B527496FF02F0408788A78303800EBA5
:102F3000C00303EB001002EB80024878214B3038CD
:102F400000EB800004EB400010441880C8784A79F8
:102F5000303800EBC00505EB001002EB8002087969
:102F6000303800EB800004EB4000104458801648D5
:102F70000078092823D188790A7A303800EBC00517
:102F800005EB001002EB8002C879303800EB8000BE
:102F900004EB400002449A80487ACD7A303800EB46
:102FA000C00606EB001005EB8005887A303800EB90
:102FB000800004EB40002844D88042431A8170BD51
:102FC00068250020EA030020D502002010B5052066
:102FD000FEF7B2FAFDF7C9FBBDE810400149FDF765
:102FE000A0B900003333533A2DE9F0470646DDE936
:102FF00008890F4610469A46FDF7CDFB04460D465C
:103000005046FDF7C8FB02460B4630463946FDF7F1
:103010001DFB22462B46FDF7A7FA42464B46FDF71D
:10302000FCF9BDE8F04708F045B810B54008FDF7D9
:10303000B2FBBDE810406FF00502FDF776BB000063
:103040002DE9FC4780460022DFF8CC9009E008EB30
:103050008200808900F064F809EB02110860521CBC
:10306000D2B298F803009042F1D8B8F80400FFF704
:10307000DCFF04460D46B8F80600FFF7D6FF06460B
:103080000F46C9E9024598F80300401E09EB0010FD
:10309000C0E902673B46324620462946FDF718FC48
:1030A0000CD222462B4600201C49FDF757FA324627
:1030B0003B46FDF7B2F906460F4607E022462B468F
:1030C00030463946FDF74AFA06460F4600221346B7
:1030D00030463946FDF7E4FB17D04FF0010A0FE008
:1030E000C3B2524630463946CDE90045FFF77CFF72
:1030F00009EB0A12C2E902010AF1010A0AF0FF0A09
:1031000098F80300401E5045EADC98F80300BDE83B
:10311000FC4702F05BBF0000202D002000807640BD
:10312000010AC0F3850040EA811070472DE9F35F82
:10313000FDF720FB2B4C00222346FDF715FA6FF01C
:1031400001052A46FDF7F1FA274E00223346FDF726
:103150007DFA0022254BFDF779FAFDF7D1FBFDF74B
:103160008CFB234FDFF88C903A464B46FDF7FCF979
:10317000DFF884A000225346FDF7F6F9DFF87CB0B3
:1031800000225B46FDF762FAFDF7BAFBDFF87080BC
:10319000C8F808000198FDF7EDFA00222346FDF774
:1031A000E3F92A46FDF7C1FA00223346FDF74EFA4D
:1031B00000220E4BFDF74AFAFDF7A2FBFDF75DFB7F
:1031C0003A464B46FDF7D0F900225346FDF7CCF9BD
:1031D00000225B46FDF73AFAFDF792FBC8F80C00B7
:1031E000BDE8FC9F0000694000003E400000264012
:1031F000F1D4C853FB21094000C0504000002440D6
:103200002C010020FEE770B504460D4600F0CEF814
:10321000204600F09BF800F011F9284600F096F8DF
:1032200000F00CF900F0C2F8641CE0B200F08EF877
:1032300000F004F9002000F053F8044600F0E2F832
:10324000204670BD70B50B4C002565600A480168CA
:1032500021F470610160016841F4407101602560F2
:10326000012006F0FBF80120606006F0F7F86560C9
:1032700070BD0000A8812142040C014008B5012165
:10328000082002F091F94FF44060ADF800001020E2
:103290008DF8030003208DF8020069460148FFF70E
:1032A00077FB08BD000C014070B50B4C0025656034
:1032B0000A48016821F470610160016841F44071BD
:1032C000016001262660012006F0C8F86660012032
:1032D00006F0C4F8656070BDA8812142040C01406D
:1032E0002DE9F047814600241648016821F47061F9
:1032F0000160016841F4006101600025124E002761
:103300004FF00108C6F8AC71022006F0A7F8C6F825
:10331000AC816006040ED6F8280108B1641CE4B242
:10332000022006F09BF86D1CEDB2082DEAD3B9F12E
:10333000000F02D0FFF786FF01E0FFF7B5FF204640
:10334000BDE8F087040C0140008021422DE9F041E6
:1033500005461448016821F470610160016841F478
:1033600040710160104E4FF00008C6F8AC81002497
:103370000127E809C6F8A8016806050E012006F035
:103380006DF8C6F8AC71012006F068F8C6F8AC819B
:10339000012006F063F8641CE4B2082CE9D3BDE810
:1033A000F0810000040C01400080214270B51348F8
:1033B000016821F470610160016841F440710160AD
:1033C0000F4C0120C4F8A801D4F8281100290BD013
:1033D000C4F8AC0106F042F80025C4F8A851D4F8AE
:1033E000280118B1002070BD002070BD012006F03A
:1033F00035F8C4F8AC51012070BD0000040C014048
:103400000080214210B50B48016821F47061016011
:10341000016841F440710160074C00206060206049
:10342000012006F01BF8012060602060BDE810401C
:1034300006F014B8040C0140A881214270B50024A4
:103440001448016821F470610160016841F4006171
:103450000160114D0126C5F8A861012005F0FEFFAD
:10346000C5F8AC61012005F0F9FF0AE0641CE4B284
:10347000322C03D9FFF7C6FF002070BD012005F0F4
:10348000EDFFD5F828010028F0D1C5F8AC010120E6
:1034900070BD0000040C01400080214210B51446AC
:1034A000FFF7B1FE2070012010BD2DE9F84305465D
:1034B0000E46174698466A4631462846FFF7EEFF05
:1034C0000124BC40B8F1000F04D09DF8000044EA8C
:1034D000000202E09DF80020A243D2B200923146E1
:1034E000284600F031F8BDE8F8832DE9F843064698
:1034F000DDF820800F4614461D466A4639463046A0
:10350000FFF7CCFFF0B1611CFF20C4F1080200FA04
:1035100001F12A44521ED0400143C8B2C5F108014E
:1035200008FA01F808F0FF03C4F10701CB409DF849
:10353000002002401A4300923946304600F004F859
:10354000BDE8F8830020FBE707B502AB012200F0DD
:1035500001F80EBD2DE9F04180460F4616461D4686
:103560000024FFF723FF4046FFF7F0FEFFF766FF5A
:103570003846FFF7EBFEFFF761FF06E0285DFFF737
:10358000E5FEFFF75BFF641CE4B2B442F6D3FFF73D
:1035900039FF0120BDE8F081094801680948016050
:1035A0000949096841600949096881600849096851
:1035B000C1600849096801610749096841617047AC
:1035C00048010020D02400204C01002050010020A0
:1035D00054010020580100205C01002041060748EA
:1035E000826942F0010282610548426822F0E0628D
:1035F000426042680A434260704700000010024087
:10360000000001402DE9F04FABB007469148D0E9EA
:103610001056D0E90E43CDE92956CDE9274326922D
:1036200000F1480222AE3CCA3CC6D0E90223CDE9F3
:103630002023D0E90423CDE91E2300F158021AAE5D
:103640003CCA3CC6066800F168023CCACDE91623B4
:10365000CDE91845C2698069CDE9140200201290B5
:103660001390109011900C900D900E900F90089068
:1036700009900A900B900690079005900846FDF778
:10368000FCF804460D4687F00040FDF7F6F82246A8
:103690002B4605F0ADFBFDF733F9049012AFDFF8D0
:1036A000B881CDE90187022222AC012311461046E0
:1036B000009408F0EDFB26A920AACDE9002110A86E
:1036C000012302901A461946022008F0E1FB1099E6
:1036D0001298FCF7CEFD08F108052860119913989F
:1036E000FCF7C7FD68600DF1300905F12800CDE950
:1036F000010902231A4619460094184608F0C8FB2F
:1037000016A90223CDE9009108A802901A4619468D
:10371000184608F0BDFB1A990898FCF7AAFD4F4C13
:1037200020601B990998FCF7A4FD60601C990A9819
:10373000FCF79FFDA0601D990B98FCF79AFDE060D7
:103740000DF1780B06A80223CDE900B402901A46C9
:103750001946012008F09CFB0DF1140A14A8CDE9CC
:10376000010A06A90123022200911146184608F019
:103770008FFB31460598FCF77CFD01464FF07E50EB
:10378000FCF701FE059014A8CDE9010702220123F0
:1037900011460094104608F07BFB0123CDE9007A26
:1037A00005F108061A4619460220029608F070FB39
:1037B000CDE900B50123022211461846CDF808A034
:1037C00008F066FBDDE90401FCF7A5FD0590CDE9F5
:1037D00001A701231A4619460220009608F058FB5B
:1037E00012992868FCF745FDC8F80000139968682D
:1037F000FCF73FFDC8F80400CDE901B9022301221E
:1038000011461846009608F043FB0C992798FCF7E0
:1038100082FD0C900D992898FCF77DFD0D900E9976
:103820002998FCF778FD0E900F992A98FCF773FD04
:103830000F90022305F12800CDE9009402901A466A
:103840001946184608F024FBD8F800002BB0BDE854
:10385000F08F000050E00008940300203425002081
:103860002DE9F04FABB007460B469549D1E92056FC
:10387000D1E91E40CDE92956CDE92740269201F134
:10388000800000F1080274CACDE92224CDE9245653
:10389000D1E90824CDE92024D1E90A24CDE91E2468
:1038A00000F1180274CACDE91A24CDE91C564E68FD
:1038B000D0E90B45826A406BCDE917451692199005
:1038C000D1E90C01CDE91401002012901390109061
:1038D00011900C900D900E900F90089009900A9006
:1038E0000B900690079005901846FCF7C6FF04461B
:1038F0000D4687F00040FCF7C0FF22462B4605F03E
:1039000077FAFCF7FDFF049012AFDFF8B881CDE93C
:103910000187022222AC012311461046009408F0D0
:10392000B7FA26A920AACDE9002110A80123029008
:103930001A461946022008F0ABFA10991298FCF7C3
:1039400098FC08F10805286011991398FCF791FC80
:1039500068600DF1300905F12000CDE9010902236D
:103960001A4619460094184608F092FA16A902233E
:10397000CDE9009108A802901A461946184608F0A9
:1039800087FA1A990898FCF774FC4F4C20601B9931
:103990000998FCF76EFC60601C990A98FCF769FCBA
:1039A000A0601D990B98FCF764FCE0600DF1780BAA
:1039B00006A80223CDE900B402901A461946012058
:1039C00008F066FA0DF1140A14A8CDE9010A06A957
:1039D0000123022200911146184608F059FA314697
:1039E0000598FCF746FC01464FF07E50FCF7CBFCF7
:1039F000059014A8CDE90107022201231146009485
:103A0000104608F045FA0123CDE9007A05F10806D1
:103A10001A4619460220029608F03AFACDE900B596
:103A20000123022211461846CDF808A008F030FA0A
:103A3000DDE90401FCF76FFC0590CDE901A7012346
:103A40001A4619460220009608F022FA12992868B0
:103A5000FCF70FFCC8F8000013996868FCF709FC34
:103A6000C8F80400CDE901B9022301221146184625
:103A7000009608F00DFA0C992798FCF74CFC0C9076
:103A80000D992898FCF747FC0D900E992998FCF7A2
:103A900042FC0E900F992A98FCF73DFC0F900223F0
:103AA00005F12000CDE9009402901A461946184607
:103AB00008F0EEF9D8F800002BB0BDE8F08F000058
:103AC00050E00008AC0300204425002008B5012187
:103AD000042001F069FD4FF48070ADF8000048202B
:103AE0008DF8030069460248FEF752FF08BD00004A
:103AF0000008014010B5044600F018F80A4A0128F1
:103B000007D00020508010805088022809D0002063
:103B100010BD5188641CB1EB440FF5D2491C518093
:103B2000F2E70120108010BDC000002010B54FF456
:103B300080710448FEF7AEFF08B1002010BD0120DF
:103B400010BD0000000801400E480021C16301645F
:103B500041648164C164016541658165C165016637
:103B600041668166C166016741678167C16781629D
:103B7000C162016341638169C1614FF0FF318163BB
:103B800007F07CB8C00100202DE9FF5F05460E4616
:103B9000D7480090A81900EBD0704010FCF7DCFD6E
:103BA0000446D4484FF400080068FCF7D5FD4445AE
:103BB00004DB2146FCF7B2FB814603E02146FCF71B
:103BC00058FB8146CC4F444501DBB94503D2BC428A
:103BD00003D3C14501DB4FF00009C84CC848E16E72
:103BE00000680390FCF797FBC649FCF79AFB8246F6
:103BF0000398E066616D48468B46FCF78CFBC24932
:103C0000FCF78FFB5946FCF734FB606501464846DC
:103C1000FCF781FBA16D8946FCF77DFBDFF8ECB278
:103C20005946FCF77EFB4946FCF723FB8146A0651D
:103C3000E16D50460291FCF76EFBB349FCF771FB56
:103C40000299FCF716FBE06501465046FCF763FB62
:103C5000216E8A46FCF75FFB5946FCF762FB514632
:103C6000FCF707FB8346206649464846FCF759FBAC
:103C70008246A749606EFCF754FB5146FCF7F9FAFF
:103C80008246606659464846FCF74BFB8146A04990
:103C9000A06EFCF746FB4946FCF7EBFAA0664FF036
:103CA0007E59CA4508DD5146FCF76DFB6063B8429A
:103CB00002D380F000406063E16B03988A46FCF712
:103CC0002AFB9449FCF72DFB5146FCF7D2FAE0633E
:103CD00001460398FCF71FFB216C8A46FCF71BFB8F
:103CE0008D49FCF71EFB5146FCF7C3FA20640146E0
:103CF000FCF717FB616C8B46FCF70DFBDFF81CA291
:103D00005146FCF70EFB5946FCF7B3FA6064FCF72A
:103D1000B4FD08F039FCFCF7F3FD8149FCF733FBF7
:103D2000A0628048A16C00688B460190FCF7F3FA12
:103D30007D49FCF7F6FA5946FCF79BFAA064014668
:103D40000198FCF7E8FAE16C8B46FCF7E4FA774956
:103D5000FCF7E7FA5946FCF78CFAE0640146FCF7F9
:103D6000E0FA216D8B46FCF7D6FA5146FCF7D9FAFA
:103D70005946FCF77EFA2065FCF77FFD08F004FC4D
:103D8000FCF7BEFDE0624FF42F60854208DA414245
:103D90008D4205DD864203DA8E4201DD4FF00009D7
:103DA0004846216B0D46FCF7B6FA5146FCF7B9FAC6
:103DB0002946FCF75EFA2063206A002804DBE061F4
:103DC000BDE8FF5F06F05ABFE06C0026B84201D3A1
:103DD00080F00040E168FCF7B9FD16D22168A06AC6
:103DE000FCF7AAFD11D2E06904280EDA0420E06194
:103DF00066644F48E067606A401C606226676667D9
:103E0000A667BDE8FF5F06F039BFE06F404503DB02
:103E10000099FCF780FAE067A06F404509DB009944
:103E2000FCF779FAA06726676667BDE8FF5F06F0D2
:103E300025BF2168A06AFCF789FD31D2E06900281E
:103E40002EDDE06F40452BDA01252769012120682E
:103E5000FCF7D7FAA16AFCF76FFD05D202253549B8
:103E60002069FCF75EFA074666670099206FFCF749
:103E700000FA20673946FCF769FD0DD8E069401B60
:103E8000E061002800DAE66126674FF0FF316069E3
:103E9000FCF7B7FAA0676664BDE8FF5F06F0EEBE08
:103EA00026676168E06AFCF751FD1CD2A168A06A30
:103EB000FCF742FD17D2E069042814DA0099606F1C
:103EC000FCF7D7F9054660671B492069FCF729FA1A
:103ED0002946FCF731FD07D8E069401CE0616667C0
:103EE0006069A06700E06667BDE8FF5F06F0C6BED8
:103EF0000AD7A33B2C01002000008080C0010020D5
:103F00001000002000004843D34D223E9487C53E58
:103F100077BE7F3F5CAB4D3E0745AB3E9D4A863C3E
:103F2000333383410C00002037FA183CD027723D10
:103F3000000040409A99993E9A99193F05480021FE
:103F40008161C161016241628162C16201210161DD
:103F50007047000088010020042800D30320064990
:103F60000860C0EBC002054800EBC200026B8A602B
:103F7000406BC8607047000088010020C4D2000870
:103F800010B51F48006810F0FF4F04D11D480068AD
:103F900010F0FF4F01D0012100E000211A48006815
:103FA00000F044F819494868012802D0022803D0DB
:103FB00004E00020086101E001200861144A08695A
:103FC00030B10868C0EBC00002EBC000183004E05C
:103FD0000868C0EBC00002EBC0000E4A0168116027
:103FE0000D4A416811600D4A816811600C4AC16830
:103FF00011600C4A016911600B494069086010BDED
:104000002C0000203000002010000020880100203B
:10401000C4D20008480100204C01002050010020BB
:1040200054010020580100205C0100202DE9F041DE
:1040300007460C463A4E3B4D3846A9698846FCF780
:104040006AF93949FCF76DF94146FCF712F9A861A4
:1040500001463846FCF75FF9E9690F46FCF75BF962
:104060003249FCF75EF93946FCF703F9E86101468D
:10407000FCF757F9296A0F46FCF74DF92C49FCF774
:1040800050F93946FCF7F5F82862FCF7F6FB08F022
:104090007BFAFCF735FC2749FCF775F9686126497E
:1040A000EA6A8A4207DA31461046FCF7E2F8E8622B
:1040B0002869BDE8F081002714B16F622869F8E72C
:1040C000AA6AB2F5000F07DB31461046FCF723F968
:1040D000A8626F622869ECE72C692CB9A968FCF723
:1040E0002BFC01D2012407E0286928B1E96868693E
:1040F000FCF72CFC00D20024286984420CD0314605
:10410000686AFCF7B6F86862B0F1804F05DB2C6195
:104110006F620A48A86200E06F622869C9E7000080
:104120000AD7A33B880100201FBAE83E9296163FAB
:104130009D4A863C333383416666663F00004040BB
:1041400070B51F4B5C8900211E4DD5F82001DA891E
:10415000C82A10D298B1B0F5C87F10D8521C92B2BC
:10416000DA81588100F1C8069E81C72A03D1012255
:104170005A70C822DA819A89904200D284B2491CCE
:10418000C9B20529E3D3D889C82809D328680E4DB8
:10419000401EB0F5C77F04D80C4900200860286095
:1041A00070BD01F0F9FE5889FCF7DFFA064620469B
:1041B000FCF7DBFA3146FEF785F8286070BD000099
:1041C0001404002080270020300000202C00002054
:1041D0002DE9F0472D4C258A00212D4E0123D6F8DC
:1041E0002001A28AC82A0FD290B1B0F5C87F0FD89B
:1041F000521C92B2A282208200F1C8076782C72AAD
:1042000002D1A370C822A282628A904200D285B2F3
:10421000491CC9B20529E4D3A08AC82818D330683C
:10422000DFF870801C4FDFF87490002690B1618A2F
:1042300088420FD2A07940B9A3711948C8F800008C
:1042400018483860012005F0FFF8C9F80060E663FF
:10425000BDE8F08706F080FB0028F9D1A07901289D
:104260000DD001F099FE208AFCF77FFA044628461B
:10427000FCF77BFA2146FEF741F83860E8E7A671C3
:10428000C9F800603E60C8F80060E1E7140400204F
:10429000802700206C010020300000202C0000202E
:1042A0000000F041000016C41FB50121084601F0CE
:1042B0007BF90121042001F077F94FF48054ADF827
:1042C0000C4048208DF80F0003A91148FEF760FB51
:1042D0000C210020FEF748FB019400208DF8080017
:1042E0000C208DF8090001248DF80A4001A8FEF782
:1042F0006DF928208DF8000002208DF801008DF85E
:1043000002408DF80340684600F07AF81FBD0000B7
:104310000008014010B5022000F011F8032000F061
:1043200020F8002000F014F8002000F02FF8002002
:1043300000F026F8BDE81040002000F01BB808B5DA
:104340000323009002226B21D020FFF7CEF808BD96
:1043500008B50223009004221C21D020FFF7C5F8E5
:1043600008BD08B50223009004221B21D020FFF7CE
:10437000BCF808BD034601223721D020FFF795B8CD
:10438000034605226A21D020FFF78FB80346062294
:104390006B21D020FFF789B8FEE7000010B500249C
:1043A00001231A46194611A000F05FF80FE0002023
:1043B00001F07CFA0444012001F078FA201A04B2DA
:1043C000204604F0F1FE07F005FF02F083FC012017
:1043D000FFF790FB0028EAD001F04CFC01F07CFDD7
:1043E00001F09CFDBDE8104001F06CBC312E53740F
:1043F000616E64617264204D6F64650070470000F7
:1044000070B50F23C27801260178002A1ED0144A05
:10441000126802F4E062C2F5E062120AC2F104041A
:10442000D3404578A54082781A402A43120101F111
:10443000E02181F80024007800F01F018E4040093F
:10444000800000F1E020C0F8006170BD01F01F00A5
:1044500086404809800000F1E020C0F8806170BD0E
:104460000CED00E0002001F0D5BA38B51446491E25
:10447000022908D801EB810149060A0E0093234660
:10448000002100F001F838BD2DE9F0410746069CF7
:104490000D461646002B01D0FFF7E4FF31462846B3
:1044A00001F0C4FA01220649384601F019FB002C3C
:1044B00003D0BDE8F04100F07DB9BDE8F081000017
:1044C000A400002010B500F015F800F0D3F8012387
:1044D000BDE810401A46194601A0FFF7C6BF00000C
:1044E0006F6C656420696E697420737563636573AE
:1044F000732100000748816941F008018161064885
:10450000016821F0FF010160016841F033010160A1
:104510007047000000100240040C01402DE9F041FA
:1045200005461448016821F0F0010160016841F07E
:1045300030010160104E4FF00008C6F8A081002441
:104540000127E809C6F8A4016806050E0120FDF759
:10455000A8FEC6F8A0710120FDF7A3FEC6F8A08151
:104560000120FDF79EFE641CE4B2082CE9D3BDE8EF
:10457000F0810000040C01400080214270B5134816
:10458000016821F0F0010160016841F03001016033
:104590000F4C0120C4F8A401D4F8241100290BD039
:1045A000C4F8A001FDF77DFE0025C4F8A451D4F89D
:1045B000240118B1002070BD002070BD0220FDF75D
:1045C00070FEC4F8A051012070BD0000040C014031
:1045D0000080214270B50D48016821F0F0010160B2
:1045E000016841F030010160094C002020606060EA
:1045F0000220FDF756FE012525600120FDF751FE42
:104600006560BDE870400220FDF74BBE040C014020
:10461000A081214270B500241448016821F0F00106
:104620000160016841F080010160114D0126C5F86B
:10463000A4610120FDF735FEC5F8A0610120FDF75A
:1046400030FE0AE0641CE4B2322C03D9FFF7C2FF4B
:10465000002070BD0120FDF724FED5F824010028BC
:10466000F0D1C5F8A001012070BD0000040C01408C
:104670000080214210B540F6C410401E0028FCD135
:10468000AE2200213C2007F0A5FFA62200213C20FD
:1046900007F0A0FFAE2200213C2007F09BFFD522AF
:1046A00000213C2007F096FF802200213C2007F0EB
:1046B00091FFA82200213C2007F08CFF1F2200213F
:1046C0003C2007F087FFD32200213C2007F082FF27
:1046D000002211463C2007F07DFF402200213C20B3
:1046E00007F078FF8D2200213C2007F073FF142291
:1046F00000213C2007F06EFF202200213C2007F023
:1047000069FF022200213C2007F064FFA122002162
:104710003C2007F05FFFC82200213C2007F05AFF31
:10472000DA2200213C2007F055FF022200213C2024
:1047300007F050FF812200213C2007F04BFFCF22E1
:1047400000213C2007F046FFD92200213C2007F041
:1047500041FFF12200213C2007F03CFFDB22002139
:104760003C2007F037FF402200213C2007F032FFB9
:104770002E2200213C2007F02DFFA42200213C2006
:1047800007F028FFA62200213C2007F023FFAF22DC
:1047900000213C2007F01EFF002001F03BF901F052
:1047A000B3F903480021018041800121417110BD0E
:1047B0009C00002001F0A8B970B50546FFF752FE35
:1047C0000024295D202903D2A0B2012201F000F9C2
:1047D000641C802CF5DBBDE87040FFF7EBBF2DE9D2
:1047E000F04104460F4616461D46FFF7C7FE68B166
:1047F0006006000EFFF792FEFFF70CFF48B1384647
:10480000FFF78CFEFFF706FF00240DE00120BDE856
:10481000F081FFF7DFFE0120F9E7285DFFF77EFE5C
:10482000FFF7F8FE30B1641CB442F6DBFFF7D2FEAE
:104830000020ECE7FFF7CEFE0020E8E71FB56B464F
:1048400001AA02A903A808F059F89DF80800394BFD
:1048500001280AD19DF80C1039B99DF804100129DE
:1048600003D19DF80010012905D09DF80C1050EAE5
:10487000010403D00AE0FF2018701FBD9DF804203A
:10488000012A03D19DF80020012A01D018B10CE0C3
:10489000FE2018701FBD012907D19DF80420012AB0
:1048A00003D19DF80020012A04D09DF80420144370
:1048B00003D006E0FD2018701FBD9DF80040012CBC
:1048C00002D0012803D009E0FC2018701FBD012987
:1048D00004D11AB99DF80040012C02D0012803D060
:1048E00008E0012018701FBD012903D112B99DF8FD
:1048F000004014B1012803D009E0022018701FBD48
:10490000012904D1012A02D19DF8004014B10128E7
:1049100003D007E0032018701FBD19B912B99DF824
:10492000000020B11143F7D1002018701FBD0420F2
:1049300018701FBDDC0200200149085C70470000B0
:10494000EC0700200020044A00211154401CC0B292
:104950000928FAD370470000EC0700202DE9F8433E
:104960008046012500951A4E002777700095194C56
:1049700024E0BDF8000010EA080F02D0C4F8BC51D2
:1049800001E0C4F8BC71C4F8B451052004F066FD20
:10499000C4F8B471052004F061FDC4F8B451D4F832
:1049A000380120B17178BDF8000001437170BDF885
:1049B00000004FF6FF7101EA40000090BDF80000D2
:1049C000FF28D6D9BDE8F843102004F047BD000009
:1049D000EC070020008021422DE9F05F0720FFF75F
:1049E000ABFF7A4CA0600820FFF7A6FFE06005202F
:1049F000FFF7A2FF20610620FFF79EFF606100F035
:104A0000F5F8A061A268724B4FF002094FF0030A5B
:104A10004FF0040B4FF0010C4FF00008FF2A08D1B3
:104A2000E168FF2905D12169FF2902D16169FF29C8
:104A300002D0616831B107E0616801295BD1C4F837
:104A4000048058E0C4F804C0322A02DAE16832294E
:104A500005DB2169322905DA6569322D02DA072181
:104A6000197048E0962A02DDE568322D04DB9629AC
:104A700005DD6569322D02DA082119703BE0322A22
:104A800002DAE568962D04DC322905DA6569962D8F
:104A900002DD092119702EE0962A02DDE568962DC7
:104AA00004DC962905DD6569962D02DD0A21197061
:104AB00021E0E5685A2D02DB66695A2E03DA83F895
:104AC00000C0BDE8F09F962D01DC962E02DD83F834
:104AD0000090F6E75A2A01DB5A2902DA83F800A08F
:104AE000EFE7962A01DC962902DD83F800B0E8E7BB
:104AF00008B983F80080401F3649374E374F384D8C
:104B00000C284AD2DFE800F03D4043460622062248
:104B10003D4043462078401CC0B22070052801D992
:104B2000052020703068FBF7A4FB0446306039464E
:104B30002868FBF79EFB014628602A48844200DD76
:104B4000306029488142BCDD2860BAE72078401EE9
:104B5000C0B2207008B984F800C088463068FBF7FE
:104B6000DAFB0446306039462868FBF7D4FB01467F
:104B70002860444501DAC6F80080B942A1DA2F6006
:104B80009FE783F800C09CE783F800B099E783F8BB
:104B9000009096E783F800A093E76068012802D0B0
:104BA00083F800808DE7E0685B38312889D25B3A72
:104BB000312A86D260695B38312882D220695B381D
:104BC000312886D283F800807BE70000B8020020FD
:104BD0006A020020000020416001002000004041E6
:104BE00064010020000048420000704270B5FFF7E9
:104BF000A9FE00F0BDF80D48C178007941EA002116
:104C00000B48418000200A4B1B1D012513F8104062
:104C1000641E05FA04F20A4202D1401CC0B270BD03
:104C2000401CC0B21028F1D3002070BDEC0700205A
:104C3000F200002010B5144C00202060102004F079
:104C40000DFC0120FFF78AFE4320FFF787FE0020BE
:104C5000FFF784FE0120FFF781FE0020FFF77EFEB4
:104C60000020FFF77BFE0020FFF778FE0020FFF713
:104C700075FE0020FFF772FE01202060BDE81040A5
:104C8000102004F0EBBB0000B081214210B5144CA1
:104C900000202060102004F0E1FB0120FFF75EFE01
:104CA0004320FFF75BFE0020FFF758FE0020FFF7D0
:104CB00055FE5A20FFF752FE5A20FFF74FFE5A20AA
:104CC000FFF74CFE5A20FFF749FE5A20FFF746FE39
:104CD00001202060BDE81040102004F0BFBB0000A0
:104CE000B0812142F8B50121082000F05DFC482088
:104CF0008DF803004FF48040ADF8000003248DF8D8
:104D000002401A4E69463046FDF742FE0121082056
:104D100000F04AFC10258DF80350E802ADF80000C1
:104D20008DF8024069463046FDF732FE0121082029
:104D300000F03AFC8DF803502802ADF800008DF821
:104D4000024069463046FDF723FE0121082000F0AD
:104D50002BFC8DF803506802ADF800008DF802407E
:104D600069463046FDF714FEF8BD0000000C014016
:104D70002DE9FC410027019701260096204CC4F83C
:104D8000B071204D2878FFF7E9FD6878FFF7E6FD60
:104D9000022001902CE000961B4D4FF6FF781CE09E
:104DA000C4F8B461052004F059FBC4F8B4710520BF
:104DB00004F054FBC4F8B461D4F8380140B19DF854
:104DC0000400BDF80010285C08439DF804106854E6
:104DD000BDF8000008EA40000090BDF80000FF2880
:104DE000DED9102004F03AFB9DF80400401C01902D
:104DF0009DF804000928CED3C4F8B061BDE8FC8159
:104E000000802142F2000020EC07002010B500F0E5
:104E10000DF800F00BF800F009F8FFF70BFF00F0B9
:104E200025F8BDE81040FFF731BF000010B50E4C6B
:104E300000202060102004F011FB0120FFF78EFD00
:104E40004220FFF78BFD0020FFF788FD0020FFF7D1
:104E500085FD0020FFF782FD01202060BDE81040A5
:104E6000102004F0FBBA0000B081214210B5124CB2
:104E7000002020600120FFF771FD4420FFF76EFD48
:104E80000020FFF76BFD0120FFF768FDEE20FFF724
:104E900065FD0020FFF762FD0020FFF75FFD0020A9
:104EA000FFF75CFD0020FFF759FD01202060BDE801
:104EB0001040102004F0D2BAB081214205490028E8
:104EC00002DD096808447047FDDA4968A0EB01007B
:104ED000704700002C010020884200DD0846904207
:104EE00000DA1046704770472DE9F0478046894642
:104EF00016461F46294C0025A088002814D13046AC
:104F000007F019F88246384607F015F85044322861
:104F100003DAE088401CE08000E0E580E0880A28B1
:104F200002D90120A080E580A088012820D1208915
:104F3000401C80B22081C82801D92581A58018484D
:104F4000DFF860A0804513DDDAF800001438FBF7C5
:104F500003FC4946FBF7F0FC0AD2DAF800001430F3
:104F6000FBF7FAFB4946FBF7F1FC01D20220A080D7
:104F7000A088022810D16089401C80B2608164281A
:104F800001D96581A580F01906F0D5FF322803DD2F
:104F9000A5800120BDE8F0870020FBE71801002074
:104FA00000E0AB46280000202DE9F04F8BB0DFF881
:104FB000E4820125002798F80100B74C3038052815
:104FC00011D2DFE800F00E0305080B00A5700BE01E
:104FD0000220A07008E00320A07005E00420A0706B
:104FE00002E0A77000E0A77098F80300312801D113
:104FF0000521A170322801D10620A070A548FBF739
:1050000016F915280AD227705021A248FBF7F8F8A4
:105010000BB0A2A0BDE8F04F02F0E6B998F8050089
:10502000312802D0322808D00EE000F071F90520B6
:1050300004F0EEF900F06CF906E000F07DFC00F001
:1050400067F99BA002F0D0F998F80700312802D048
:10505000322805D008E0656095A002F0C5F903E0AC
:10506000676093A002F0C0F998F80900DFF848B231
:10507000312853D11C2104A8FBF7C2F802970397EB
:10508000009701978DA1834800F0D6FF0646701C5B
:105090007ED0E06808EB0609821B494604A8FBF7AE
:1050A00096F887A104A800F0C7FF0546681C6FD0DA
:1050B000AA1E0DF1100A0DF1120102A8FBF787F8E4
:1050C00002A803F063FF00225B46FBF74DFAFBF7F3
:1050D00017FC7C4908601C2104A8FBF791F8E168E3
:1050E00070190A1A09EB0501491C04A8FBF76FF8AF
:1050F00073A104A800F0A0FF411C49D0821E0AF150
:1051000002016846FBF763F8684603F03FFFFBF7D0
:10511000F7FB6D49086066A002F066F998F80B008D
:10512000312855D11C2104A8FBF76AF80297039790
:105130000097019765A1574800F07EFF0646701C56
:1051400026D0E06808EB0609821B494604A8FBF755
:105150003EF85BA104A800F06FFF0546681C17D05D
:10516000AA1E0DF1100A0DF1120102A8FBF72FF88B
:1051700002A803F00BFF00225B46FBF7F5F9FBF7F3
:10518000BFFB534908601C2104A8FBF739F800E075
:105190007DE0E16870190A1A09EB0501491C04A8B1
:1051A000FBF715F846A104A800F046FF411C6ED09D
:1051B000821E0AF102016846FBF709F8684603F00F
:1051C000E5FEFBF79DFB4349086039A002F00CF9AE
:1051D00098F80D00312852D11C2104A8FBF710F8D3
:1051E00002970397009701973BA12A4800F024FFFC
:1051F0000646701C4BD0E068B044821B414604A8B0
:10520000FAF7E5FF2EA104A800F016FF0546681C7A
:105210003DD0AA1E0DF110090DF1120102A8FAF7F6
:10522000D6FF02A803F0B2FE00225B46FBF79CF912
:10523000FBF766FB294908601C2104A8FAF7E0FF88
:10524000E16870190A1A08EB0501491C04A8FAF76D
:10525000BEFF23A104A800F0EFFE411C17D0821E60
:1052600009F102016846FAF7B2FF684603F08EFEC4
:10527000FBF746FB1B4908600DA002F0B5F827704C
:105280000BB05021BDE8F04F0248FAF7B9BF0BB0A0
:10529000BDE8F08F8024002068020020245265635E
:1052A000656976655061636B4572726F72230000A9
:1052B000244F4B23000000000000594041500000E3
:1052C0002C000000480100204C0100205650000036
:1052D00050010020540100205450000058010020CB
:1052E000230000005C01002010B5074807498268D0
:1052F00001F15000521CFAF76AFFBDE8104050213E
:105300000248FAF77DBF0000680200203024002028
:1053100070B532215D48FAF773FF5C485CA11C3818
:105320000968C1615B485C4C0068A0427DD25B4D5E
:105330002946FBF728F8FBF7A0FA02460B4658A1CE
:10534000594802F013FB59480068A0426ED2FBF79F
:1053500094FA024654480B4651A10A3002F006FB6B
:1053600053480068A0427CD22946FBF70CF8FBF7B3
:1053700084FA02464C480B4649A1143002F0F6FA72
:105380004C480068A04271D2FBF777FA02464648C3
:105390000B4643A11E3002F0E9FA47480068A042DC
:1053A00069D22946FAF7EFFFFBF767FA02463E4853
:1053B0000B463BA1283002F0D9FA40480068A042D1
:1053C0005ED2FBF75AFA024637480B4634A1323018
:1053D00002F0CCFA34492D48FAF71DFF38A12B48CA
:1053E000FAF719FF304929480A31FAF714FF35A1B5
:1053F0002648FAF710FF2C4924481431FAF70BFF1E
:1054000031A12248FAF707FF274920481E31FAF751
:1054100002FF2EA11D48FAF7FEFE23491B48283142
:10542000FAF7F9FE2AA1194801E010E014E0FAF7B2
:10543000F2FE1D4915483231FAF7EDFE25A1134859
:10544000FAF7E9FEBDE87040104801F0CDBFBDE8B5
:10545000704021A001F0C8BFBDE870401EA001F05F
:10546000C3BFBDE870401CA001F0BEBFBDE87040E6
:1054700019A001F0B9BFBDE8704017A001F0B4BF9A
:10548000BDE8704014A001F0AFBF0000840200200E
:105490002441500048010020000080800000C842E4
:1054A00025332E3266000000E82400204C01002045
:1054B0005001002054010020580100205C01002010
:1054C0002C4144002C5650002C5649002C545000BE
:1054D0002C5444002300000024476574504944457F
:1054E00072726F72230000002DE9F04180460D4674
:1054F000164617480078002804D0164C164FA0898D
:1055000018B116E00020BDE8F08138680A38FBF7D2
:1055100023F94146FBF710FA0BD238680A30FBF743
:105520001BF94146FBF712FA03D215B90EB9012057
:10553000A081A089012809D12D1F242D02D3361F57
:10554000242E03D20020A0810120DCE70020DAE72E
:10555000040000201801002028000020034A5168A0
:1055600021F44041014351607047000000100240A7
:10557000054A002903D0D1690143D1617047D1693F
:105580008143D1617047000000100240054A0029A4
:1055900003D01169014311617047116981431161A1
:1055A0007047000000100240054A002903D09169AD
:1055B0000143916170479169814391617047000097
:1055C00000100240054A002903D0D1680143D16090
:1055D0007047D1688143D1607047000000100240DD
:1055E00010B5264A516801F00C01254B002927D03F
:1055F000042927D0082927D00360516801F0F00161
:105600000909204B5C5C0168E1404160546804F486
:10561000E064240A1C5D21FA04F48460546804F4F4
:105620006054E40A1B5DD940C160526802F44042F4
:10563000920B144B1B1F9A5CB1FBF2F1016110BD80
:105640000360DAE70360D8E7516801F4701153682A
:1056500003F48033022404EB914133B153689B037C
:1056600007D5094B59430160C7E7074B5943016010
:10567000C3E7034B59430160BFE70000001002403D
:1056800000127A004C00002000093D002DE9F0478F
:1056900000240025174E4FF00108C6F800800027AF
:1056A0007760FCF74BFEC6F804803760FCF746FED7
:1056B000C6F800807760A6F5C876FCF73FFEDFF8F5
:1056C0003890C6F89071FCF739FEFCF737FE0420DD
:1056D000FDF7ECF9000929F815006D1CEDB2C6F8CC
:1056E0009081FCF72BFE641CE4B2802CE9D3BDE86A
:1056F000F0870000908121426C0600202DE9F04FD8
:105700008BB0684E07A8CDE9006006F1260108AB12
:1057100003AA881F04F01EF83088C0057ED50398C0
:10572000FBF71AF86FF01D084146FAF76AFE0446C7
:1057300070600498FBF710F84146FAF762FE0746DE
:10574000B0600598FBF708F84146FAF75AFE05469F
:10575000F0600698FBF700F84146FAF752FE8046E3
:10576000306101212046FAF74CFE2946FAF7D9FDAF
:1057700005464FF0404421463846FAF7D2FD4146EF
:10578000FAF7CFFD2946FAF774FDFBF776F803F038
:10579000E7F8DFF814814FF066373A464346FAF7E8
:1057A000E3FEFBF7ADF87061F06801210546FAF7FA
:1057B00028FE82462946FAF7B4FD0546B068214620
:1057C0008146FAF7AEFD4946FAF7ABFD2946FAF7EE
:1057D000A2FD4FF07E51FAF74CFDFBF74EF8044660
:1057E0000D4601217068FAF70CFE4946FAF799FD5B
:1057F000814650463169FAF794FD4946FAF739FD7A
:10580000FBF73BF822462B4603F0F2FA3A464346B2
:10581000FAF7AAFEFBF774F8B06100E03FE03169E7
:1058200089464846FAF77DFDF168044608460A9124
:10583000FAF777FDB16805468A465046FAF771FDDA
:105840007168834608460991FAF76BFD5946FAF7E5
:1058500010FD2946FAF75FFD2146FAF75CFDFBF7DC
:105860000CF804460D4649460998FAF75AFD814658
:1058700050460A99FAF755FD4946FAF7FAFC012114
:10588000FAF7BFFDFAF7F9FF22462B4603F0B0FA0C
:105890003A464346FAF768FEFBF732F8F0610BB080
:1058A000BDE8F08F6000002066A64C400021002873
:1058B00003D0012806D000207047054AB2F9000045
:1058C00011807047034AB2F9000011807047000050
:1058D000240400402408004010B54221D020FDF7E8
:1058E00092FC04464121D020FDF78DFC04EB002002
:1058F000FAF73BFFB0F18E4F03DD4FF08F41FAF71F
:105900000AFD0949FAF73FFDFAF7B7FF074A084BC6
:10591000FAF783FD0022074BFAF726FEFAF7F0FFAD
:10592000BDE81040FAF744BF0000AA43A4703D0A46
:10593000D7434240000024402DE9F047DFF874A02F
:10594000DFF87490DFF874801D4F1E4D1E4C1F4E03
:10595000DAF800002168FAF7EFFF02D02068CAF8F1
:1059600000006168D9F80000FAF7E6FF02D060682D
:10597000C9F80000A168D8F80000FAF7DDFF02D0EE
:10598000A068C8F80000E1683868FAF7D5FF01D0D0
:10599000E068386021692868FAF7CEFF01D02069F5
:1059A000286061693068FAF7C7FF01D0606930602C
:1059B000BDE8F087480100204C0100205001002084
:1059C0005401002058010020D02400205C01002058
:1059D00030B5802813D2202911D20C4B1B790BB182
:1059E00072B10022012301F00704A340C908084D49
:1059F00000EBC110012A05D0295C9943295430BD20
:105A00000122EFE7295C1943295430BD9C00002096
:105A10006C040020002805D0FF224FF400710248DA
:105A2000FAF7E7BB0022F8E76C040020014A108077
:105A3000518070479C0000202DE9F04782460E46B9
:105A40009146DFF898803178B8F800000844802843
:105A500005D2B8F8020071780844202802D300204B
:105A6000BDE8F08700252BE0AAF1200101FB0050E2
:105A7000726832F8107000241EE007FA04F0000487
:105A80000BD5B8F802004A46284481B2B8F80000A5
:105A9000204480B2FFF79CFF0DE0B9F1000F1AD04F
:105AA0000022B8F80200284481B2B8F8000020446F
:105AB00080B2FFF78DFF641C3078A042DDD86D1CEA
:105AC0007078A842D0D8B8F8000031780844A8F817
:105AD00000005046C4E70122E3E700009C000020DC
