:020000040800F2
:10000000C856002049010008654400086D32000808
:10001000014400085916000841790008000000005A
:10002000000000000000000000000000B55B0008B8
:10003000FD220008000000004F4F00080D6100087D
:100040006301000863010008630100086301000800
:1000500063010008630100086301000863010008F0
:1000600063010008630100086301000863010008E0
:1000700063010008630100086301000863010008D0
:1000800063010008630100086301000863010008C0
:1000900063010008630100086301000863010008B0
:1000A00063010008630100086301000863010008A0
:1000B000C563000831640008456400086301000856
:1000C0006301000863010008630100086301000880
:1000D0006301000841750008817500088D760008ED
:1000E000A5230008630100086301000863010008FC
:1000F0006301000863010008630100086301000850
:10010000630100086301000863010008630100083F
:1001100063010008057500085964000863010008C0
:10012000630100086301000863010008630100081F
:10013000DFF810D000F006FE004800479DB9000827
:10014000AFF30080C85600200648804706480047A5
:10015000FEE7FEE7FEE7FEE7FEE7FEE7FEE7FEE777
:10016000FEE7FEE711610008310100082DE9F041CA
:100170000024061B254671F1000605DA012400273C
:10018000D0EB070067EB0101161E73F1000605DADC
:100190000027D2EB0702012567EB030300F0F6FB13
:1001A00086460E4617469C46AC4204D00025D0EB4E
:1001B000050E65EB010624B10020D2EB000760EBD1
:1001C000030C704631463A466346BDE8F08140EA8A
:1001D00001039B0703D009E008C9121F08C0042AC5
:1001E000FAD203E011F8013B00F8013B521EF9D2AC
:1001F0007047D2B201E000F8012B491EFBD27047D4
:100200000022F6E710B513460A4604461946FFF7E2
:10021000F0FF204610BD421E12F8013F002BFBD11B
:1002200011F8013B02F8013B002BF9D17047421C49
:1002300010F8011B0029FBD1801A704710B500226D
:1002400000E0521C835C8C5CA34201D1002BF8D1EE
:10025000D8B2E1B2401A10BD30B5044600200346C2
:1002600000E05B1C934203D2E05CCD5C401BF8D005
:1002700030BDF0B480EA0102D40F4200B2EB410F6E
:1002800002D20246084611464A0042D0C30DDDB2F2
:10029000C1F3C752AD1A202D35DAC1F3160141F46E
:1002A000000204B15242C5F1200602FA06F12A41C9
:1002B0001044B3EBD05F23D0C4B1012DA0EBC350E9
:1002C00009DCF0BC4FF0004202EAC352DBB200F599
:1002D000000000F014BC400000F1807000EBC3503F
:1002E000A0F1807040EAD170490009E0490841EA74
:1002F000C071A0EBC35000F50000400800EBC350F4
:10030000F0BC00F0F3BB6142012202EB4101001B93
:10031000F6E7F0BC704781F00041AAE780F00040AA
:10032000A7E780EA010210B502F00043400022D0A6
:100330004A001FD0010E01EB1261C0F35600C2F358
:10034000560240F4000042F40002A0FB0220000428
:100350007F39140400D0401C50EA124001D4400000
:10036000491EC2B20C0604EBD010401C4008802A83
:1003700002D003E0002010BD20F00100002900DAC7
:100380000020184310BD30B480EA010202F000459D
:1003900030F0004221F0004013D090B1C30DD40DD5
:1003A000C2F31601C0F31600E41A41F4000140F450
:1003B00000027D34914201D3641C00E04900002C0E
:1003C00002DA30BC002070474FF400000023914255
:1003D00001D3891A034340084FEA4101F7D151B1D3
:1003E000914202D14FF0004105E002D24FF00101ED
:1003F00001E06FF0010103EBC450284430BC00F071
:1004000075BB420005D0C0F3C7525242914201DC95
:100410000020704700EBC15070472DE9FE4F804629
:1004200081EA0300C00F0C46009021F0004123F048
:100430000045B8EB0200A94105D24046214690464E
:100440001C460B46024623F00040104347D0270DC0
:10045000C7F30A00C3F30A510290401A01904028E2
:100460006BDAC3F3130040F4801B0098924620B16E
:100470000023D2EB030A63EB0B0B01985946C0F142
:100480004002504600F0B3FA06460D465046594623
:10049000019A00F0CBFA10EB08006141002487EAD2
:1004A000115284EAE7731A4340D0009A62B3019A6A
:1004B000012A4FEA075215DC001B61EB02014FF0E5
:1004C000004202EA0752CDE90042001C41F58011CA
:1004D00032462B4600F07FFB03B0BDE8F08F40466C
:1004E0002146F9E7001B61EB0201001C41F5801376
:1004F00000185B412018A2F5001747EB030140EA02
:10050000D570B6196D4111E06D084FEA360645EA1F
:10051000C0754FEA0752001B61EB0201001C41F558
:10052000801149084FEA30000019514132462B46EC
:1005300003B0BDE8F04F00F03FBB0098012240003F
:100540000023D0EB020263EBE073009821464FEAF0
:10055000E074B8EB000061EB0401E9E783F00043CD
:100560005BE781F0004158E72DE9FE4F81EA030483
:1005700004F0004421F0004100944FF0000B23F000
:10058000004350EA01045ED052EA03045BD0C3F397
:100590000A54C1F30A552C44A4F2F3340194A0FB8D
:1005A0000254C1F3130141F48011C3F3130343F464
:1005B000801301FB024400FB034E840A970A44EABD
:1005C000815447EA8357A4FB076802958D0A05FB0F
:1005D00007854FEA932C04FB0C542705029D4FEA34
:1005E000065847EA1637B5EB08056EEB070C870E81
:1005F000920E47EA811742EA8312A7FB0201B6EB8B
:100600000B0164EB00042B0D43EA0C335E1844EB42
:100610001C50DA465146E7FB0201C5F313044FEACA
:100620000B3343EA14534FEA0432019C43EA0603B6
:10063000A4F10C040294009CCDE900B400F0CBFAC4
:1006400003B0BDE8F08F00200146F9E72DE9F04D39
:1006500081EA030404F0004B21F0004514464FF0FA
:10066000000A23F0004150EA050220D054EA0102BA
:100670001DD0C5F30A570246C5F31303C1F3130097
:10068000C1F30A5640F4801543F48013A7EB060823
:10069000101BD64608F2FD3873EB050002D308F1B3
:1006A000010801E092185B41B8F1000F03DA002065
:1006B0000146BDE8F08D00204FF4801106468446C7
:1006C0000EE0171B73EB050705D3121B63EB050345
:1006D00006434CEA010C49084FEA300092185B418E
:1006E00050EA0107EDD152EA030012D082EA040079
:1006F00083EA0501084305D0101BAB4106D2012255
:10070000002306E000224FF0004302E06FF00102F8
:1007100053101AEB06004CEB085110EB0A0041EBAA
:100720000B01BDE8F04D00F047BA70B521F0004371
:1007300003430CD0C1F30A550024D5EB040564EB48
:100740000403D617AD1AB34102DB0020014670BD89
:10075000201841EB025170BDC10F80EAE0700844DF
:10076000CA079623002100F0CAB996230022114639
:1007700000F0C5B90EB5C10F80EAE0700844CA07A1
:10078000002140F233438DE80E000A460B4600F08C
:1007900022FA03B000BD0EB540F2334102910021B0
:1007A000CDE900110A460B4600F015FA03B000BD72
:1007B00000F0004220F00040C10DC0F3160040F4EC
:1007C00000007F2901DA00207047962903DCC1F17F
:1007D0009601C84001E096398840002AF4D0404292
:1007E000704720F00040C10DC0F3160040F4000037
:1007F0007F2901DA00207047962903DCC1F19601B8
:10080000C840704796398840704770B5C1F30A52A6
:1008100001F000450024C1F3130140F2FF3341F41D
:1008200080119A4201DA002070BD40F233439A42AF
:10083000A2F2334203DC524200F0E8F800E09040BC
:100840002C43F1D0404270BDC1F30A5210B5C1F340
:10085000130140F2FF3341F480119A4201DA002083
:1008600010BD40F233439A42A2F2334203DC5242BB
:1008700000F0CCF810BD904010BD00F0004230F008
:1008800000400AD0C10D01F56071C0F3160042EAC4
:100890000151C208400711437047002001467047CC
:1008A00030B5041E71F1000404DB4FF000444042F7
:1008B00064EB0101141E73F1000405DB1C464FF0CC
:1008C0000043524263EB04038B4208BF824230BDB7
:1008D00030B5041E71F1000404DB4FF000444042C7
:1008E00064EB0101141E73F1000405DB1C464FF09C
:1008F0000043524263EB0403994208BF904230BD6B
:1009000001F0004330B421F0004150EA010206D06A
:100910000A0DA2F56072C1F31301002A02DC30BC9B
:1009200000207047440F44EAC104C100E01830BC05
:1009300000EBC25000F0DAB8002801DBC0F1004043
:10094000002901DBC1F1004181427047002801DB31
:10095000C0F10040002901DBC1F10041884270472D
:1009600030B50B46014600202022012409E021FA7F
:1009700002F59D4205D303FA02F5491B04FA02F57C
:100980002844151EA2F10102F1DC30BD2DE9F05F13
:100990000546002092469B468846064681464024EE
:1009A0001BE0284641464746224600F02FF85346B2
:1009B0005A46C01A914110D311461846224600F0FB
:1009C00016F82D1A67EB01084F4622460120002138
:1009D00000F00DF817EB00094E41201EA4F10104B0
:1009E000DFDC484631462A464346BDE8F09F202AD0
:1009F00004DB203A00FA02F1002070479140C2F176
:100A0000200320FA03F3194390407047202A04DBA7
:100A1000203A21FA02F00021704721FA02F3D04077
:100A2000C2F120029140084319467047202A06DB94
:100A3000CB17203A41FA02F043EAE07306E041FAAC
:100A400002F3D040C2F1200291400843194670479A
:100A50000FB4002300B589B00CA900910B996FF079
:100A60000042CB601E4B06931E4B07930423CDE937
:100A700001321D4A089202466B46002000F00EFA31
:100A800009B05DF814FB70B586B006464FF0FF3034
:100A90000091CDE90101002015460C460490324634
:100AA000694604A8FFF7D4FF02460498211825B12F
:100AB00008B1084600E020462860049800280DD0C0
:100AC000002A02DD0098884208D0081B0094CDE976
:100AD00001043246694604A8FFF7BAFF06B070BDAC
:100AE000D5100008F3100008690D00080029A8BF00
:100AF0007047401C490008BF20F00100704710B447
:100B0000B0FA80FC00FA0CF050EA010404BF10BCFB
:100B1000704749B1CCF1200421FA04F411FA0CF128
:100B200018BF012121430843A3EB0C01CB1D4FEA61
:100B300000614FEA102042BF002010BC704700EB5C
:100B4000C35010440029A4BF10BC7047401C49008A
:100B500008BF20F0010010BC7047F0B4002802DC90
:100B6000F0BC00207047C0F3C751C0F3160040F43A
:100B70000000CA0701D14000491E3F2202EB610577
:100B8000002211464FF4000626FA01F31344D4184C
:100B9000844201D8001B1A464000491C1729F3DD86
:100BA0005100814202D24FF0FF3100E0002102EB00
:100BB000C550F0BCFFF79ABF10B5141E73F10004C6
:100BC00008DA401C41F1000192185B411A4301D13F
:100BD00020F0010010BD2DE9F04D92469B4611B169
:100BE000B1FA81F202E0B0FA80F220329046FFF7CB
:100BF000FEFE04460F4640EA0A0041EA0B01534656
:100C00005A46084313D0114653EA010019D0C8F1DF
:100C100040025046FFF7FAFE05460E46504659463A
:100C20004246FFF7E4FE084305D0012004E02046D9
:100C30003946BDE8F08D0020054346EAE0762C43B6
:100C400037430A986305E40AA0EB08000022FD0A76
:100C500044EA47540A3002D500200146E9E701057D
:100C600010196941DDE9084500196941BDE8F04DF9
:100C7000A2E72DE9F04D00231A461B1A8A4103DB37
:100C800000200146BDE8F08DC1F30A52C1F3130103
:100C900041F480154FF0000BD10702D100186D41CF
:100CA000521E0027044640F2FF11384601EB620A4B
:100CB0003E468046024600204FF48011FFF7A6FE14
:100CC000C2197141BB1846EB0100B4EB030C75EB84
:100CD000000C04D3E41A65EB000517460E462419F0
:100CE00008F101006D4180463428E3DDF91946EB37
:100CF0000600091BA84103D24FF0FF32134601E062
:100D0000002213461BEB070046EB0A51BDE8F04DED
:100D1000FFF752BFC1F30A52C1F3130140F2FF3390
:100D200041F480119A4202DA00200146704740F2F5
:100D300033439A42A2F2334202DC5242FFF766BECC
:100D4000FFF755BE064C074D06E0E06840F0010392
:100D500094E8070098471034AC42F6D3FFF7ECF95B
:100D6000BCF10008DCF10008C0B24FF4F05100F013
:100D7000D1B900002DE9FF4F087883B09946FF28CC
:100D800005D0491C2D2804D00024002008E00020B4
:100D90000BE00124F9E700EB800003EB4000491C65
:100DA0000B78FF2BF7D104B1404200230293147853
:100DB00019461D462D2C01D02B2C04D1521C2D2C54
:100DC00013D000240294AA461478FF2C0FD00A25D1
:100DD000A3FB057801FB05814FF0000C03FB0C1110
:100DE000521CE3194AEB0101EEE70124EAE78144D2
:100DF00053EA010002D019F5C87F06DA03980021F2
:100E0000C0E9001107B0BDE8F08F0025AE4E2F46B7
:100E1000DFF8B882184600F091F9CDE90001B9F188
:100E2000000002DAC9F1000400E004460023A74AEA
:100E30001AEB030B42EB045A12E0E00707D02A46F4
:100E4000334638464146FFF78FFB074688462A4619
:100E5000334610461946FFF787FB05460E466410D9
:100E6000002CEAD1DDE90001B9F1000F5A465346E2
:100E700006DAFFF7EBFB3A464346FFF7E7FB05E0F0
:100E8000FFF772FB3A464346FFF76EFB029A0AB140
:100E900081F00041039AC2E90001B3E72DE9FF4F59
:100EA0001F468DB0D7E901464FF0FF382E2045464A
:100EB0004FF000090B90B9696D1C0E988847396A8C
:100EC000824688470028F6D1BAF1FF3F0AD024F4C1
:100ED000D064002E11DDBAF12B0F08D0BAF12D0F1E
:100EE0000BD102E0404611B08DE744F48064B9694B
:100EF0006D1C0E9888478246761E6946600501D5AE
:100F00002D2000E02B208DF8000001F1010B0DF1E8
:100F1000200809E0B9696D1C0E98884782460F9831
:100F200044F40074761E0560002E02DDBAF1300F25
:100F3000F0D00B998A453ED144F0800406E00F9929
:100F4000681CA9F1010944F400740860B9696D1CBA
:100F5000761E0E98884782463028F0D02BE00B99F9
:100F60008A4505D1200603D444F08004761E18E09B
:100F7000504607F077FE08B30DF11301761E44F4D6
:100F800000748B4508D2AAF130000BF8010B200643
:100F900007D5A9F1010003E0200602D409F1010000
:100FA0008146A00502D50F99681C0860B9696D1CBF
:100FB0000E9888478246002ED1DC53E0002E51DD8A
:100FC000BAF1650F02D0BAF1450F4BD1A00549D552
:100FD000B9696D1C24F44074761E0E9888478246C9
:100FE000002E0CDD2B2804D0BAF12D0F07D144F4CC
:100FF0008074B9696D1C0E9888478246761EE0059C
:1010000001D52D2100E02B2108F8011BCDF82C8003
:1010100021E00DF12901761E44F4007488450CD2BC
:10102000AAF1300010F0FF0088F8000002D10B99FF
:10103000884509D908F1010806E0E00501D52448F2
:1010400001E042F20F708146B9696D1C0E98884725
:1010500082460F980560002E04DD504607F002FE20
:101060000028D6D1F9690E988847FF208BF8000038
:1010700088F800000020069007904B466A4608A9B1
:1010800006A8FFF777FEA00502D46FF001002AE75B
:1010900014F0240F0AD0E00714D1DDE906123868F5
:1010A000031D3B600068C0E900120BE0DDE90601AA
:1010B000FFF726FC0146E00704D13868021D3A60BC
:1010C0000068016028460EE7000014400000F03F71
:1010D000F1D8FFFF426842B1016811F8013B23B12A
:1010E000521EC0E90012184670470121C160881ED7
:1010F000704742685AB1C368016843B983688B423C
:1011000005D0491E521CC0E90012002070474FF064
:10111000FF3070477F2801D9002208E0064A02EB21
:101120005002C007127800D1120902F00F0201200C
:101130009040084070470000E8F000080EB540F20B
:10114000334202920022CDE900221346FFF743FD0D
:1011500003B000BD70B58C1810F8015B15F00703E3
:1011600001D110F8013B2A1106D110F8012B03E040
:1011700010F8016B01F8016B5B1EF9D12B0705D448
:101180000023521E0DD401F8013BFAE710F8013B91
:10119000CB1A921C03E013F8015B01F8015B521EAD
:1011A000F9D5A142D8D3002070BD002904D08168B0
:1011B00041F0010181607047816821F00101816087
:1011C0007047000010B5154988420AD14415012125
:1011D000204604F02BFA2046BDE81040002104F020
:1011E00025BA0F4988420AD104150121204604F08E
:1011F0001DFA2046BDE81040002104F017BA094945
:1012000088420AD10121CC03204604F00FFA20467F
:10121000BDE81040002104F009BA10BD00240140CF
:1012200000280140003C0140014600208968490730
:1012300000D501207047C06C80B270470246002084
:1012400012680A4200D001207047014600208968D8
:10125000090700D50120704710B542680E4B1A40AF
:101260000C790B6842EA04221343436082680B4BFB
:101270001A40D1E9024323434C7942EA4402134322
:101280008360C26A22F47002097C491EC9B242EA34
:101290000151C16210BD0000FFFEF0FFFDF7F1FF3C
:1012A00070B5072609290AD9C568A1F10A0404EB1B
:1012B0004404A640B543A3401D43C56007E005694B
:1012C00001EB4104A640B543A3401D4305611F2324
:1012D000072A09D2446B521E02EB820293409C43C0
:1012E00091400C43446370BD0D2A09D2046BD21F98
:1012F00002EB820293409C4391400C43046370BD17
:10130000C46A0D3A02EB820293409C4391400C4325
:10131000C46270BD816841F0080181607047002996
:1013200004D0816841F4A00181607047816821F494
:10133000A00181607047816841F0040181607047BD
:1013400070B51948194A0188C1F1A00111810389BA
:1013500043F2C8218B4200D90181018941F6641012
:10136000401A00B25081124D124C002249B100F5D2
:101370007A6041F27D51884206D301F0FDFA206087
:1013800003E022602A6070BD226006F057F82860F2
:1013900009492068884201DD216070BD0749884203
:1013A000FBD9216070BD000006040020100400205D
:1013B000300000202C0000200000F0410000F0C1AF
:1013C00070B50C4800240C4E40680C4DFA280CD225
:1013D0000B48306001200BF023FC34600948286082
:1013E00001200BF01DFC2C6070BD074830602C60A4
:1013F00070BD0000C40000202C0000203000002040
:10140000000020C10000E143000070410D49087850
:10141000002803D00B2801D00C2809D10A484068C5
:10142000002805D0A0F115024F2A02D20B20087027
:101430007047F1383B2802D20C200870704700201A
:101440000870704786020020C400002008B5012102
:10145000102004F0DDF84FF47070ADF80000182093
:101460008DF8030003208DF802006946014801F061
:10147000C3FA08BD0010014070B588B004460D469F
:101480000121480304F0C4F8244E304605F096F8D4
:10149000641EADF81840ADF814500024ADF81A40A1
:1014A000ADF8164005A9304605F056FB6020ADF8B2
:1014B00004000120ADF80600ADF80A40ADF80C407C
:1014C00001A9304605F000FA01A9304605F046FAB8
:1014D00001A9304605F090FA01A9304605F0D4FA8A
:1014E0000121304605F05CF80821304605F030FA5D
:1014F0000821304605F076FA0821304605F0BEFA9C
:101500000821304605F0F4FA0121304605F02AF8AA
:101510000121304605F038F808B070BD00340140B4
:1015200070B504460D4616480068FFF715F92146C8
:10153000FEF7F1FE044685F00040124E3169FEF7D9
:10154000F0FE1149FEF71FFF05461049F068FEF74F
:101550001AFF2146FEF7E5FE2946FEF7DCFEFFF7FF
:1015600027F90B490978032908D1FFF7F5F8316805
:10157000FEF7D7FEBDE87040FFF71AB970BD000056
:10158000280000203C0100200000C8420000C8C222
:10159000F102002070B54FF47A740C4D0146072318
:1015A00001222846FFF77CFE01212846FFF7B7FEFF
:1015B00002212846FFF742FE10B9641EA4B2F7D2FA
:1015C0002846BDE87040FFF736BE00000024014009
:1015D00030B587B001214FF4017004F019F84FF4D1
:1015E000004003F0EFFF2020ADF8040000248DF848
:1015F000074001A9164801F0FFF9164D2846FFF7EC
:10160000E1FD02948DF80C408DF80D404FF46021FF
:101610000491059401218DF8181002A92846FFF7BE
:101620001BFE01212846FFF7C0FD2846FFF772FE8A
:101630002846FFF70AFE0028FAD12846FFF77BFE6E
:101640002846FFF7F1FD0028FAD107B030BD0000B1
:101650000008014000240140FEE7000010B504F03E
:1016600049F80020054A02F5807132F81030DB0895
:101670000B54401C8028F8DB014810BD8806002070
:10168000880700202DE9F04F8DB0334C60680128A9
:101690005ED1324800680C903148D0F80080324862
:1016A00030490068FEF76FFE064620612F48076844
:1016B00067612F480068FFF76EF800222D4BFEF798
:1016C000C5FFFFF71DF9044650212B48FEF798FD92
:1016D00029482AA10968016029480068FFF7CDF868
:1016E00082468B462046FFF7C8F804460D4638462A
:1016F000FFF7C3F8CDE90A013046FFF7BEF806460A
:101700000F464046FFF7B9F8804689460C98FFF728
:10171000B4F806AAA2E8300CDDE90A23CDE9008975
:10172000CDE9042302460B46CDE9026715A1124814
:1017300006F070FE104850215030FEF761FD0DB0EC
:101740000D49BDE8F04F502201F15000FEF73FBDBA
:101750000DB0BDE8F08F00008402002034010020AD
:10176000380100200000C8422400002010000020A2
:10177000C800002000002440F02C0020244C56001B
:1017800028010020244C5625332E32662C52562533
:10179000332E32662C414325332E32662C47592591
:1017A000332E32662C43534225332E32662C565448
:1017B00025332E32662300002DE9F041144E154FDB
:1017C0001548B2690025154C4FF40061BA4204DB9C
:1017D0002560BDE8F04101F098B9114B9A4202DC56
:1017E00001F095F908E00F4B9A4202DC01F08DF907
:1017F00002E001F08AF92560F069032803DA0A485B
:101800002060BDE8F08101DD2760FAE72560F8E798
:10181000300400200000E1430008014030000020B7
:10182000000048430000BE430000E1C32DE9F0473B
:101830002E4C2068FEF799FF8046D4F83804FEF756
:1018400094FF8146D4F86801FEF78FFF0146284CCB
:10185000284E294FE0780025062810D2DFE800F056
:1018600003151D252D402548A8F50008804508D200
:1018700035603D600A2008F01FFC0120E070BDE8E3
:10188000F0871F4830603D60F9E709F09FFE0028AF
:10189000F5D1E078401CE070F1E71A4830603D6017
:1018A000642008F009FC0320E07009F08FFE002896
:1018B000E5D1E078401CE070E1E74846FFF746F8E4
:1018C00006D8356010483860642008F0F5FB05E064
:1018D00035600E483860642008F0EEFB0520E070AB
:1018E00009F074FE0028CAD1E570C8E7E030002096
:1018F000300400202C0000203000002000002F4386
:101900000000A041000070C10000E1C30000E143FD
:101910002DE9F0411C4D2868FEF727FF0446D5F855
:10192000EC04FEF722FF0646D5F8B400FEF71DFFD3
:101930000346164FA4F5000500201549154ABD427F
:1019400004D2154B0B601060BDE8F081134D144FAD
:101950002544BD4203D2134B0B601060F4E7124FD5
:10196000124DBE4205DAAC4203DD0860104810603B
:10197000EAE7BB4205DAAC4203DD08600D481060BF
:10198000E2E708601060DFE7E030002000008242FC
:101990002C00002030000020000070C1FFFF5FBC61
:1019A000FFFF4000000070410000AA4300007A439E
:1019B0000000E1C30000E1432DE9F0474948006819
:1019C000FEF7D3FE484C00254FF001082379072B82
:1019D0000FD301230022022144A002F07AFD01204E
:1019E00002F0BCF80028FAD0257184F80580BDE823
:1019F000F0873D4AA0F5000CDFF804914148424EC3
:101A0000424F12784FF40061CC450ED2012AEED13C
:101A100001F07DF83068E0623868206335603D6031
:101A2000257009F0D3FD2081E1E742B13848082B49
:101A3000DDD2DFE803F0111D253139424A54E26A54
:101A40003260226B3A6001F060F884F800802089EF
:101A5000BDE8F0470BF07CBA2E4901602E4830609B
:101A60003D60C82008F028FB2079401C2071BEE7AB
:101A700009F0ACFD0028BAD12079401C2071B6E7EE
:101A8000264901603560264838603F2008F014FB85
:101A90002079401C2071AAE709F098FD0028A6D102
:101AA0002079401C2071A2E735603D601E2008F0BF
:101AB00003FB2079401C207199E709F087FD00287D
:101AC00095D12079401C207191E76079082803D2D4
:101AD000401C607125718AE70720207187E7356017
:101AE0003D6084E7E03000203004002070617472B3
:101AF0006F6C20707574206B657931202020200078
:101B000000001643000801402C0000203000002097
:101B10006C01002000008C420000704100000C426B
:101B20000080A2442DE9F0413748817801292ED167
:101B300000278770354936A0FEF780FB364C374DBD
:101B4000012630B3314936A0FEF778FB78B32F4930
:101B500035A0FEF773FB374C50B32C4936A0FEF787
:101B60006DFBA0B3294937A0FEF768FB00280ED112
:101B70000024C5F8AC61142008F096FAC5F8AC71E1
:101B8000142008F091FA641CE4B2032CF1D3BDE8F0
:101B9000F081C5F8AC61142008F086FAC5F8AC7184
:101BA0002A48206002200BF03BF82760EFE700E0B6
:101BB0000EE0C5F8AC61142008F076FAC5F8AC71F7
:101BC0002348206002200BF02BF82760DFE70DE0B0
:101BD000C5F8AC61142008F067FAC5F8AC711D486F
:101BE000206001200BF01CF82760D0E7C5F8AC613D
:101BF000142008F059FAC5F8AC711748206001208C
:101C00000BF00EF82760C2E700040020B42E00207D
:101C1000676F6261636B00002C00002000002142AE
:101C2000676F6168656164007475726E6C65667477
:101C300000000000300000207475726E72696768E1
:101C40007400000062757A7A65720000000070C14D
:101C5000000070410000C8C30000C84370B52248AE
:101C60008178012921D100248470204920A0FEF729
:101C7000E5FAD8B11D491FA0FEF7E0FA1E4D10B3DA
:101C80001A491EA0FEF7DAFA00280ED1012300221D
:101C900003211BA002F01DFC1C48286001200AF053
:101CA000BFFF01200AF0BCFF2C6070BD01230022A1
:101CB000032117A002F00DFC184D012028600AF046
:101CC000AFFF2C6070BD01230022032114A002F09D
:101CD00000FC1648286001200AF0A2FF01200AF04B
:101CE0009FFF2C6070BD000000040020B42E002077
:101CF00036000000320000003000002033000000F9
:101D00006E756D3A33212020000000000000C843AA
:101D10006E756D3A3621202000000000AC01214292
:101D20006E756D3A32212020000000000000C8C30B
:101D30002DE9F0411D488178012921D100248470CA
:101D40001B491CA0FEF77AFADFF86C801B4DC8B166
:101D500017491BA0FEF772FA1A4E1B4FC8B114495F
:101D60001AA0FEF76BFA00280AD1C6F800800120FD
:101D70000AF056FF34602F6001200AF051FF2C60FA
:101D8000BDE8F081C5F8008002200AF049FF2C6010
:101D9000F6E70F48306001200AF042FF34602F6000
:101DA00001200AF03DFF2C60EAE70000000400205B
:101DB000B42E0020310000000000C8432C00002099
:101DC00032000000300000200000704133000000AD
:101DD0000000C8C32DE9F041074608460B4E0C4CE5
:101DE0002168FEF79EFA216BFEF743FA0146094887
:101DF000FEF797FA054631463846FEF792FA29462D
:101E0000FEF737FA2063BDE8F08100000AD7A33C53
:101E10002C03002048E17A3F2DE9F04107460846AF
:101E20000B4E0C4C2168FEF77CFA216EFEF721FA6E
:101E300001460948FEF775FA054631463846FEF771
:101E400070FA2946FEF715FA2066BDE8F081000019
:101E50000AD7A33C2C03002048E17A3F07218143A5
:101E60000902054A10684FF6FF031840034B184358
:101E700008431060704700000CED00E00000FA0518
:101E800008B5002000906B4601227521682009F0FA
:101E900027FC29A006F0AEFA9DF80000682809D0BA
:101EA0002E4801682E4A01F4E06111430160BFF33E
:101EB0004F8FFEE70AF09AF800283CD178200AF00C
:101EC000D7FD10B91CA006F095FA782009F09AFF0A
:101ED00010B924A006F08EFAC8200AF087FD10B9C8
:101EE0002AA006F087FA08F063FA10B931A006F0CC
:101EF00081FA3D4809F094FC08F068FC10B93BA059
:101F000006F078FA40F2731008F012F910B941A007
:101F100006F070FAC82008F09DFB10B947A006F043
:101F200069FA0AF09EFF01200AF078FC002802D12D
:101F30004BA006F05FFA08BD6D70755F7365745F46
:101F400073656E736F7220636F6D706C657465205E
:101F50002E2E2E2E2E2E0D0A000000000CED00E07D
:101F60000400FA056D70755F636F6E666967757260
:101F7000655F6669666F20636F6D706C6574652060
:101F80002E2E2E2E2E2E0D0A000000006D70755F75
:101F90007365745F73616D706C655F7261746520E9
:101FA000636F6D706C657465202E2E2E2E2E2E0D97
:101FB0000A000000646D705F6C6F61645F6D6F7428
:101FC000696F6E5F6472697665725F6669726D775C
:101FD00061726520636F6D706C657465202E2E2EA6
:101FE0002E2E2E0D0A0000008C000020646D705F04
:101FF0007365745F6F7269656E746174696F6E206A
:10200000636F6D706C657465202E2E2E2E2E2E0D36
:102010000A000000646D705F656E61626C655F66EA
:1020200065617475726520636F6D706C6574652091
:102030002E2E2E2E2E2E0D0A00000000646D705FD5
:102040007365745F6669666F5F7261746520636F44
:102050006D706C657465202E2E2E2E2E2E0D0A00AE
:102060006D70755F7365745F646D705F73746174B8
:102070006520636F6D706C657465202E2E2E2E2E7C
:102080002E0D0A0070B5174B2428197800D1B1B174
:10209000012926D10024232819D0242821D05978B9
:1020A000114D4A1CD2B25A706854142A19D95C7066
:1020B0001C702846BDE870401421FEF7A1B801202D
:1020C0001870BDE8704014210748FEF799B81C70DD
:1020D0005C7000F059FFBDE8704014210248FEF723
:1020E0008FB870BD04040020C82E002030B4164BF9
:1020F00001222428197800D129B1012921D10024F5
:10210000232806D008E01A7030BC14210F48FEF7CF
:1021100077B81C705C709A701978012911D1242845
:102120000FD05978094D4A1CD2B25A706854142AFB
:1021300007D95C701C709C70284630BC1421FEF7D7
:102140005FB830BC7047000000040020B42E0020AF
:1021500030B4164B01222428197800D129B1012965
:1021600021D10024232806D008E01A7030BC1421A5
:102170000F48FEF745B81C705C709A7019780129F9
:1021800011D124280FD05978094D4A1CD2B25A7067
:102190006854142A07D95C701C709C70284630BCA7
:1021A0001421FEF72DB830BC704700000004002059
:1021B000B42E002030B4164B01222428197800D107
:1021C00029B1012921D10024232806D008E01A7062
:1021D00030BC14210F48FEF713B81C705C709A7065
:1021E0001978012911D124280FD05978094D4A1C9A
:1021F000D2B25A706854142A07D95C701C709C7053
:10220000284630BC1421FDF7FBBF30BC70470000EE
:1022100000040020B42E00202DE9F041234CA4F549
:10222000E953D87800EB4005002019785A7841EA44
:10223000022121809978A170D978E17019795A79B1
:1022400041EA0221A1809979DA7941EA0221E1800B
:10225000197A5A7A41EA02212181002110E05A18A4
:1022600004EB8007967A7E81D67A127B46EA0226B4
:10227000024604EB8202401CC0B29681C91C89B29E
:10228000A942ECD3204604F047FF30B12046BDE818
:10229000F04140F2AA51FDF7B3BF05490120487053
:1022A000BDE8F04101020348FDF7AABF004D002040
:1022B00028040020E02F002010B50D494FF4807451
:1022C000224601F58070FDF782FF21460848FDF7A0
:1022D00097FFFFF7A1FF07484178012906D10021A8
:1022E0004170BDE81040044800F0DEBE10BD0000A3
:1022F000E02E002028040020004D0020704701B58A
:1023000008E00020401CC0B20A28FBD39DF8000062
:10231000401E00909DF800000028F2D108BD00008A
:1023200070B5FDF7FBFF0646094D3046A96AFDF77B
:10233000F2FF0849FDF7F5FF04464FF040413046F3
:10234000FDF7EFFF2146FDF7E6FFAE6270BD00002E
:10235000300400200000404170B5FDF7DFFF0C4C59
:10236000054660632846E16BFDF7D5FF0949FDF797
:10237000D8FF06464FF040412846FDF7D2FF3146D0
:10238000FDF7C9FF0146A063E563084670BD000084
:1023900030040020000040410020401C0A28FCDBE3
:1023A000704700002DE9FE4F9448006800287DD159
:1023B00093494FF480500860924C608808B1401EE9
:1023C0006080DFF844A24FF000089AF8000004286B
:1023D00012D005281BD006281CD012281DD0132887
:1023E0002CD008282FD0092830D0102831D011281F
:1023F00032D00E2833D034E06078401CC0B2607018
:1024000014282ED984F8018002F01AFB29E003F089
:102410004DFC26E003F04AFC23E02078401CC0B2CB
:10242000207004281DD984F8008003F037FCFFF7E2
:1024300015F97649086007F0E1FD12E008F056FE54
:1024400003F0D6FD0DE003F041FC0AE0FEF778FF53
:1024500007E001F0A9FE04E001F0EEFE01E000F06B
:1024600037FD6B48007800F089FB002003F052FA3A
:102470000290012003F04EFAC0F10009494602988B
:1024800000F088FE9AF800001538032801D801F002
:10249000ABFD9AF800001A2801D105F0B7FE5D489F
:1024A0005D4F01683868FFF73BF800E0A4E0834621
:1024B0004946029805F0F8FE06469AF8000057498A
:1024C000052835D0062833D0122836D0132839D025
:1024D00008283CD0086804F051FF054604F0D0FB02
:1024E0000BEB06024E4E511901443160521B4D4D0B
:1024F00010442860084602F015FD3060286802F09C
:1025000011FD2860DFF820B14FF42F615A46306882
:1025100002F016FD30605A464FF42F61286802F031
:102520000FFD28609AF80000DFF800B1A0B129E0A3
:10253000086804F061FE0546D0E7086804F008FE6C
:102540000546CBE7086804F02BFE0546C6E7086899
:1025500004F0BCFE0546C1E704F0EAFB90B934483C
:102560004B46029A3968006802F0F2FC10B1012073
:102570008BF800004A460299386802F0E9FF08B17A
:102580008BF800802169386804F0C8FE28B1002467
:102590009BF80000204302D003E00124F8E704F098
:1025A00033FB1CB12968306803F09EFC9AF80000E8
:1025B00019280ED1002C01D0296801E04FF000014C
:1025C00001D0306801E04FF000004B46029A01F064
:1025D0000FFB0298CDE90009002C01D02B6801E027
:1025E0004FF0000301D0326801E04FF000020948CB
:1025F0003968006804F078FCBDE8FE8F30012142A4
:102600001404014018010020F102002008000020FD
:1026100000000020100000200C000020140000200A
:10262000180000201C00002010F5FFFF040000200F
:102630002400002030B51B4A83790168002B2AD082
:1026400013688B431360111D0B680468A3430B6070
:10265000017911440B68046823430B60114C083462
:102660002168036899432160231D19680568A943FF
:1026700019604179102905D011440A6800680243A5
:102680000A6030BD21680268114321601968006842
:102690000143196030BD0079104402688A4302602A
:1026A00030BD00000004014010B588B0202168460C
:1026B000FDF7A6FD134C14A168466369226805F076
:1026C000A9FE012300221946684601F002FFD4E961
:1026D000012312A1684605F09DFE0123002202217C
:1026E000684601F0F6FED4E9032311A1684605F01F
:1026F00091FE012300220321684601F0EAFE08B0A2
:1027000010BD0000CC000020736561743A25642080
:10271000204D49443A256420202000004C313A25C0
:102720006420204C333A2564202020202000000023
:1027300052313A2564202052333A2564202020204B
:102740002000000010B588B00121022002F044FFF3
:102750000121042002F05CFFC020ADF80400042039
:102760008DF8070001A91C4800F046F905A804F0FF
:1027700041FA0020ADF814004FF6FF71ADF81810C3
:10278000ADF81A00ADF81600144C05A9204604F067
:10279000E3F900231A460321204604F017F802A8A3
:1027A00004F080F80A21ADF8101002A9204604F0C8
:1027B00033F80121204603F0E1FE012211462046B4
:1027C00004F078F80021204604F09CF9012120460D
:1027D00003F0DAFE08B010BD00080140000400401C
:1027E00010B588B00121042002F0F6FE0121082076
:1027F00002F00EFFC020ADF8040004208DF80700A1
:1028000001A91C4800F0F8F805A804F0F3F900202D
:10281000ADF814004FF6FF71ADF81810ADF81A00BE
:10282000ADF81600144C05A9204604F095F90023D4
:102830001A460321204603F0C9FF02A804F032F82B
:102840000A21ADF8101002A9204603F0E5FF01218E
:10285000204603F093FE01221146204604F02AF898
:102860000021204604F04EF90121204603F08CFEA1
:1028700008B010BD000C01400008004070B53C4B92
:10288000188806463B4C05256580618833F8112081
:10289000824200D31046491C89B261807B29F4D35F
:1028A000A68165806188A68933F81120B24200D8DC
:1028B000A281491C89B261807B29F3D3A189084494
:1028C000C0F3470060706580618833F81120824250
:1028D0001BD94A1C33F81220824216D98A1C33F8BD
:1028E0001220824211D9CA1C33F8122082420CD223
:1028F0000A1D33F81220824207D24A1D33F81220F3
:10290000824202D26188E18004E0491C89B2618080
:102910007629D9D37621A180A18833F8112082426B
:102920001BD24A1C33F81220824216D28A1C33F87A
:102930001220824211D2CA1C33F8122082420CD9D2
:102940000A1D33F81220824207D94A1D33F812209B
:10295000824202D9A088208104E0491E89B2A18068
:102960000529D9D82089E18808444008207070BD25
:1029700088060020E40000202DE9F041104FB7F94F
:102980000A603E80B7F90200301AFDF7F3FEDFF867
:1029900034800D4B4246FDF7E7FD04460D463046B8
:1029A000FDF7E8FE4246094BFDF7DEFD22462B46C9
:1029B000FDF733FDFDF7A4FF7E80BDE8F081000048
:1029C00010040020FCA9F1D24D62403F4D62503FFF
:1029D00010B58A07120F0F23934021F00304054915
:1029E00021448C689C438C608B68904003438B60CF
:1029F00010BD0000000001402DE9F0410022CC781C
:102A000004F00F03E40601D58C7823430C784FF0D3
:102A10000F0714F0FF0F4FF0010C1CD005680CFAE3
:102A200002F40E882640A64211D1960007FA06F855
:102A300025EA080503FA06F848EA0505CE78282EA7
:102A400002D0482E02D002E0446100E00461521C32
:102A5000082AE4D305600A88FF2A1ED945680022A7
:102A600002F108060CFA06F40E882640A64210D1A0
:102A7000960007FA06F825EA080503FA06F848EA78
:102A80000505CE78282E00D14461CE78482E00D19D
:102A90000461521C082AE3D34560BDE8F0810000C0
:102AA000F0B5154C002801DAE36900E06368C0F373
:102AB0000346420D120185B2C0F301579540032F22
:102AC00007D0C2020CD50322B240934343F0706298
:102AD00009E023F07062636823F07063636002E0D2
:102AE000AB4343F0706201B12A43002801DAE2618E
:102AF000F0BD6260F0BD0000000001400246002011
:102B000092680A4200D0012070474161704701611C
:102B10007047000010B50B4C0146072301222046E8
:102B2000FEF7BEFB01212046FEF7F9FB02212046FD
:102B3000FEF784FB0028F9D02046BDE81040FEF7E0
:102B40007ABB00000028014010B50B4C014607235A
:102B500001222046FEF7A4FB01212046FEF7DFFB01
:102B600002212046FEF76AFB0028F9D02046BDE886
:102B70001040FEF760BB0000002801402DE9F04F37
:102B80008DB0044602F0DCFEBB490860DFF8ECB211
:102B9000BB4E012C7ED04421D02000F068FB0446BF
:102BA0004321D02000F063FB04EB0020FDF7DDFDA6
:102BB00007464621D02000F05AFB04464521D0208C
:102BC00000F055FB04EB0020FDF7CFFD81464821C6
:102BD000D02000F04CFB04464721D02000F047FBFA
:102BE00004EB0020FDF7C1FD05463C21D02000F09C
:102BF0003EFB04463B21D02000F039FB04EB0020D3
:102C0000FDF7B3FD82463E21D02000F030FB0446A4
:102C10003D21D02000F02BFB04EB0020FDF7A5FDAB
:102C200080464021D02000F022FB04463F21D020E6
:102C300000F01DFB04EB0020FDF797FD0446B7F103
:102C40008E4F05DD4FF08F413846FDF764FB074698
:102C5000B9F18E4F05DD4FF08F414846FDF75BFB24
:102C60008146B5F18E4F05DD4FF08F412846FDF7C7
:102C700052FB0546BAF18E4F05DD4FF08F415046AD
:102C8000FDF749FB8246B8F18E4F07DD4FF08F41CB
:102C9000404600E05FE0FDF73EFB8046B4F18E4F1A
:102CA00005DD4FF08F412046FDF735FB044687F0E8
:102CB0000040CBF800005046FDF7DFFDDFF8C4A16F
:102CC000DFF8C4B1CDE90B1052465B46FDF7BEFC00
:102CD000FDF716FE02904046FDF7CFFDCDE9091045
:102CE00052465B46FDF7B2FCFDF70AFE0190204616
:102CF000FDF7C3FDCDE9071052465B46FDF7A6FC84
:102D0000FDF7FEFD00903846FDF7B7FDDFF87C814A
:102D1000CDE905104FF066373A464346FDF796FC7D
:102D2000FDF7EEFD82464846FDF7A7FDCDE903100D
:102D30003A464346FDF78AFCFDF7E2FD80465448DB
:102D4000544FDFF854B10078DFF8509102281ED0BC
:102D5000032843D087E002F005FD51483168016047
:102D6000504CB4F90000FDF7F7FCCBF80000B4F9C3
:102D70000400FDF7F1FC4C4908604C48B0F9040030
:102D8000FDF7EAFC4A4908600DB0BDE8F08FDDE9C7
:102D900000108AF0004200F069FCFDF76EFD3A4633
:102DA0005B46FDF753FC00224B46FDF7DDFBFDF7CC
:102DB000A7FD306042460099029800F085FDFDF7BE
:102DC0005CFD3A465B46FDF741FC00224B46FDF7B1
:102DD000CBFBFDF795FD3749086044E0DDE907329C
:102DE000DDE9091006F09AFD00224B46FDF7BCFB19
:102DF0003A465B46FDF72AFCFDF782FD8046DDE999
:102E00000732DDE90B1006F089FD00224B46FDF785
:102E1000ABFB3A465B46FDF719FCFDF771FD074633
:102E2000DFF894A0DDE905104FF066394A465346B5
:102E3000FDF70CFCFDF764FD01464046FEF7CAFFB6
:102E400080F000403060DDE903104A465346FDF74C
:102E5000FDFBFDF755FD01463846FEF7DDFF80F02E
:102E60000041144801600E48316801600E48056059
:102E70000F48046088E700002000002010000020B8
:102E8000780000208FC2F5285C1F9A40665E8D4056
:102E900000000020F1D4C853FB21094000806640A7
:102EA0000C0000208000002014000020860000207C
:102EB00024000020740000206666304010B500F049
:102EC000B9F8BDE810400149FDF72BBAC3F58040C1
:102ED00070B51A4E1848B0610320F061184CD4F850
:102EE0003804FDF742FC174D6860D4F8B004FDF7D4
:102EF0003CFCA8602068FDF738FCE860D4F8F000DE
:102F0000FDF733FC2861D4F86801FDF72EFC6861F9
:102F1000002455F8241011F0FF4F07D0B069FDF7D9
:102F200015FD03D255F82400B061F461641CE4B2CD
:102F3000072CEED370BD0000003C1C46300400207E
:102F4000E0300020AC52002010B50D4C0120206074
:102F50000F2007F0BBF8002222600A490888030608
:102F60000CD500F03F0000044B881844AA235843B6
:102F70004FF47A73B0FBF3F048600A8010BD000094
:102F800080012142C400002070B527496FF02F0452
:102F900008788A78303800EBC00303EB001002EBAE
:102FA00080024878214B303800EB800004EB400071
:102FB00010441880C8784A79303800EBC00505EB1A
:102FC000001002EB80020879303800EB800004EB3F
:102FD00040001044588016480078092823D1887989
:102FE0000A7A303800EBC00505EB001002EB8002D6
:102FF000C879303800EB800004EB400002449A802E
:10300000487ACD7A303800EBC00606EB001005EBAD
:103010008005887A303800EB800004EB40002844BB
:10302000D88042431A8170BDC82E002006040020BB
:10303000F102002010B50520FEF7ACFAFDF795FB74
:10304000BDE810400149FDF76CB900003333533A35
:103050002DE9F0470646DDE908890F4610469A46F5
:10306000FDF799FB04460D465046FDF794FB0246DA
:103070000B4630463946FDF7E9FA22462B46FDF766
:1030800073FA42464B46FDF7C8F9BDE8F04708F031
:1030900091BE10B54008FDF77EFBBDE810406FF013
:1030A0000502FDF742BB00002DE9FC4780460022E7
:1030B000DFF8CC9009E008EB8200808900F064F82A
:1030C00009EB02110860521CD2B298F8030090423A
:1030D000F1D8B8F80400FFF7DCFF04460D46B8F855
:1030E0000600FFF7D6FF06460F46C9E9024598F8E5
:1030F0000300401E09EB0010C0E902673B46324660
:1031000020462946FDF7E4FB0CD222462B46002040
:103110001C49FDF723FA32463B46FDF77EF9064689
:103120000F4607E022462B4630463946FDF716FA91
:1031300006460F460022134630463946FDF7B0FBDF
:1031400017D04FF0010A0FE0C3B25246304639465D
:10315000CDE90045FFF77CFF09EB0A12C2E9020145
:103160000AF1010A0AF0FF0A98F80300401E5045D0
:10317000EADC98F80300BDE8FC4702F065BF0000F8
:103180008036002000807640010AC0F3850040EAC6
:10319000811070472DE9F35FFDF7ECFA2B4C00220C
:1031A0002346FDF7E1F96FF001052A46FDF7BDFA68
:1031B000274E00223346FDF749FA0022254BFDF742
:1031C00045FAFDF79DFBFDF758FB234FDFF88C9088
:1031D0003A464B46FDF7C8F9DFF884A00022534673
:1031E000FDF7C2F9DFF87CB000225B46FDF72EFA4E
:1031F000FDF786FBDFF87080C8F808000198FDF73E
:10320000B9FA00222346FDF7AFF92A46FDF78DFAF9
:1032100000223346FDF71AFA00220E4BFDF716FA8C
:10322000FDF76EFBFDF729FB3A464B46FDF79CF98F
:1032300000225346FDF798F900225B46FDF706FA97
:10324000FDF75EFBC8F80C00BDE8FC9F000069407C
:1032500000003E4000002640F1D4C853FB21094045
:1032600000C05040000024402C010020FEE770B553
:1032700004460D4600F0CEF8204600F09BF800F022
:1032800011F9284600F096F800F00CF900F0C2F8A9
:10329000641CE0B200F08EF800F004F9002000F0A9
:1032A00053F8044600F0E2F8204670BD70B50B4CB0
:1032B000002565600A48016821F4706101600168B9
:1032C00041F4407101602560012006F0FFFE0120FD
:1032D000606006F0FBFE656070BD0000A8812142C1
:1032E000040C014008B50121082002F091F94FF4C7
:1032F0004060ADF8000010208DF8030003208DF829
:10330000020069460148FFF777FB08BD000C014049
:1033100070B50B4C002565600A48016821F47061A6
:103320000160016841F440710160012626600120BE
:1033300006F0CCFE6660012006F0C8FE656070BD38
:10334000A8812142040C01402DE9F0478146002468
:103350001648016821F470610160016841F4006160
:1033600001600025124E00274FF00108C6F8AC712D
:10337000022006F0ABFEC6F8AC816006040ED6F85B
:10338000280108B1641CE4B2022006F09FFE6D1C07
:10339000EDB2082DEAD3B9F1000F02D0FFF786FF96
:1033A00001E0FFF7B5FF2046BDE8F087040C0140BF
:1033B000008021422DE9F04105461448016821F4BE
:1033C00070610160016841F440710160104E4FF07E
:1033D0000008C6F8AC8100240127E809C6F8A80156
:1033E0006806050E012006F071FEC6F8AC710120DA
:1033F00006F06CFEC6F8AC81012006F067FE641C86
:10340000E4B2082CE9D3BDE8F0810000040C0140CF
:103410000080214270B51348016821F47061016099
:10342000016841F4407101600F4C0120C4F8A8010B
:10343000D4F8281100290BD0C4F8AC0106F046FEE0
:103440000025C4F8A851D4F8280118B1002070BD97
:10345000002070BD012006F039FEC4F8AC510120F7
:1034600070BD0000040C01400080214210B50B48E3
:10347000016821F470610160016841F440710160EC
:10348000074C002060602060012006F01FFE012034
:1034900060602060BDE8104006F018BE040C0140DA
:1034A000A881214270B500241448016821F470619C
:1034B0000160016841F400610160114D0126C5F809
:1034C000A861012006F002FEC5F8AC61012006F0FB
:1034D000FDFD0AE0641CE4B2322C03D9FFF7C6FFFD
:1034E000002070BD012006F0F1FDD5F8280100286C
:1034F000F0D1C5F8AC01012070BD0000040C014002
:103500000080214210B51446FFF7B1FE2070012063
:1035100010BD2DE9F84305460E46174698466A4603
:1035200031462846FFF7EEFF0124BC40B8F1000FFA
:1035300004D09DF8000044EA000202E09DF800205B
:10354000A243D2B200923146284600F031F8BDE8DD
:10355000F8832DE9F8430646DDF820800F4614462F
:103560001D466A4639463046FFF7CCFFF0B1611C74
:10357000FF20C4F1080200FA01F12A44521ED04093
:103580000143C8B2C5F1080108FA01F808F0FF03C9
:10359000C4F10701CB409DF8002002401A4300927D
:1035A0003946304600F004F8BDE8F8830020FBE718
:1035B00007B502AB012200F001F80EBD2DE9F04184
:1035C00080460F4616461D460024FFF723FF40465F
:1035D000FFF7F0FEFFF766FF3846FFF7EBFEFFF759
:1035E00061FF06E0285DFFF7E5FEFFF75BFF641C67
:1035F000E4B2B442F6D3FFF739FF0120BDE8F08111
:103600000948016809480160094909684160094998
:103610000968816008490968C16008490968016151
:10362000074909684161704748010020302E002099
:103630004C010020500100205401002058010020BE
:103640005C01002041060748826942F00102826164
:103650000548426822F0E062426042680A434260E4
:103660007047000000100240000001402DE9F04FBB
:10367000ABB007469148D0E91056D0E90E43CDE9EA
:103680002956CDE92743269200F1480222AE3CCAD2
:103690003CC6D0E90223CDE92023D0E90423CDE9BB
:1036A0001E2300F158021AAE3CCA3CC6066800F15F
:1036B00068023CCACDE91623CDE91845C269806984
:1036C000CDE91402002012901390109011900C90EC
:1036D0000D900E900F90089009900A900B90069014
:1036E000079005900846FDF7C8F804460D4687F098
:1036F0000040FDF7C2F822462B4606F00FF9FDF711
:10370000FFF8049012AFDFF8B881CDE901870222FB
:1037100022AC012311461046009409F039FA26A97B
:1037200020AACDE9002110A8012302901A461946CB
:10373000022009F02DFA10991298FCF79AFD08F171
:103740000805286011991398FCF793FD68600DF146
:10375000300905F12800CDE9010902231A4619466E
:103760000094184609F014FA16A90223CDE9009135
:1037700008A802901A461946184609F009FA1A993B
:103780000898FCF776FD4F4C20601B990998FCF7D0
:1037900070FD60601C990A98FCF76BFDA0601D9994
:1037A0000B98FCF766FDE0600DF1780B06A802238C
:1037B000CDE900B402901A461946012009F0E8F953
:1037C0000DF1140A14A8CDE9010A06A90123022269
:1037D00000911146184609F0DBF931460598FCF7CF
:1037E00048FD01464FF07E50FCF7CDFD059014A832
:1037F000CDE901070222012311460094104609F089
:10380000C7F90123CDE9007A05F108061A461946E1
:103810000220029609F0BCF9CDE900B5012302228D
:1038200011461846CDF808A009F0B2F9DDE9040107
:10383000FCF771FD0590CDE901A701231A46194651
:103840000220009609F0A4F912992868FCF711FDEE
:10385000C8F8000013996868FCF70BFDC8F804006D
:10386000CDE901B90223012211461846009609F05C
:103870008FF90C992798FCF74EFD0C900D9928981C
:10388000FCF749FD0D900E992998FCF744FD0E9028
:103890000F992A98FCF73FFD0F90022305F12800AD
:1038A000CDE9009402901A461946184609F070F9BD
:1038B000D8F800002BB0BDE8F08F00001CEE000827
:1038C000B0030020942E00202DE9F04FABB0074646
:1038D0000B469549D1E92056D1E91E40CDE929563C
:1038E000CDE92740269201F1800000F1080274CA58
:1038F000CDE92224CDE92456D1E90824CDE92024BC
:10390000D1E90A24CDE91E2400F1180274CACDE9D8
:103910001A24CDE91C564E68D0E90B45826A406BEB
:10392000CDE9174516921990D1E90C01CDE91401A2
:10393000002012901390109011900C900D900E900A
:103940000F90089009900A900B90069007900590B0
:103950001846FCF792FF04460D4687F00040FCF73E
:103960008CFF22462B4605F0D9FFFCF7C9FF0490D7
:1039700012AFDFF8B881CDE90187022222AC012322
:1039800011461046009409F003F926A920AACDE9B2
:10399000002110A8012302901A461946022009F0BE
:1039A000F7F810991298FCF764FC08F108052860F4
:1039B00011991398FCF75DFC68600DF1300905F171
:1039C0002000CDE9010902231A4619460094184641
:1039D00009F0DEF816A90223CDE9009108A80290AB
:1039E0001A461946184609F0D3F81A990898FCF7B0
:1039F00040FC4F4C20601B990998FCF73AFC606032
:103A00001C990A98FCF735FCA0601D990B98FCF7EF
:103A100030FCE0600DF1780B06A80223CDE900B47C
:103A200002901A461946012009F0B2F80DF1140A65
:103A300014A8CDE9010A06A901230222009111462A
:103A4000184609F0A5F831460598FCF712FC014626
:103A50004FF07E50FCF797FC059014A8CDE90107C4
:103A60000222012311460094104609F091F8012327
:103A7000CDE9007A05F108061A4619460220029699
:103A800009F086F8CDE900B5012302221146184657
:103A9000CDF808A009F07CF8DDE90401FCF73BFC57
:103AA0000590CDE901A701231A4619460220009688
:103AB00009F06EF812992868FCF7DBFBC8F80000E3
:103AC00013996868FCF7D5FBC8F80400CDE901B983
:103AD0000223012211461846009609F059F80C9964
:103AE0002798FCF718FC0C900D992898FCF713FC0C
:103AF0000D900E992998FCF70EFC0E900F992A98BC
:103B0000FCF709FC0F90022305F12000CDE9009499
:103B100002901A461946184609F03AF8D8F80000FB
:103B20002BB0BDE8F08F00001CEE0008C803002099
:103B3000A42E002008B50121042001F069FD4FF4F6
:103B40008070ADF8000048208DF8030069460248F7
:103B5000FEF752FF08BD00000008014010B5044602
:103B600000F018F80A4A012807D000205080108081
:103B70005088022809D0002010BD5188641CB1EB88
:103B8000440FF5D2491C5180F2E70120108010BD8E
:103B9000C000002010B54FF480710448FEF7AEFF5E
:103BA00008B1002010BD012010BD00000008014038
:103BB0000E480021C163016441648164C1640165F0
:103BC00041658165C165016641668166C1660167BF
:103BD00041678167C1678162C16201634163816935
:103BE000C1614FF0FF31816307F082BEC001002048
:103BF0002DE9FF5F05460E46D7480090A81900EB57
:103C0000D0704010FCF7A8FD0446D4484FF40008DB
:103C10000068FCF7A1FD444504DB2146FCF77EFB70
:103C2000814603E02146FCF724FB8146CC4F444506
:103C300001DBB94503D2BC4203D3C14501DB4FF0E0
:103C40000009C84CC848E16E00680390FCF763FBAC
:103C5000C649FCF766FB82460398E066616D4846FC
:103C60008B46FCF758FBC249FCF75BFB5946FCF757
:103C700000FB606501464846FCF74DFBA16D894697
:103C8000FCF749FBDFF8ECB25946FCF74AFB494622
:103C9000FCF7EFFA8146A065E16D50460291FCF712
:103CA0003AFBB349FCF73DFB0299FCF7E2FAE06509
:103CB00001465046FCF72FFB216E8A46FCF72BFB92
:103CC0005946FCF72EFB5146FCF7D3FA8346206693
:103CD00049464846FCF725FB8246A749606EFCF73B
:103CE00020FB5146FCF7C5FA8246606659464846B5
:103CF000FCF717FB8146A049A06EFCF712FB494672
:103D0000FCF7B7FAA0664FF07E59CA4508DD514668
:103D1000FCF739FB6063B84202D380F00040606377
:103D2000E16B03988A46FCF7F6FA9449FCF7F9FA36
:103D30005146FCF79EFAE06301460398FCF7EBFA64
:103D4000216C8A46FCF7E7FA8D49FCF7EAFA5146FE
:103D5000FCF78FFA20640146FCF7E3FA616C8B46AE
:103D6000FCF7D9FADFF81CA25146FCF7DAFA5946FB
:103D7000FCF77FFA6064FCF780FD09F0D5FAFCF7E8
:103D8000BFFD8149FCF7FFFAA0628048A16C006882
:103D90008B460190FCF7BFFA7D49FCF7C2FA594601
:103DA000FCF767FAA06401460198FCF7B4FAE16CED
:103DB0008B46FCF7B0FA7749FCF7B3FA5946FCF7A3
:103DC00058FAE0640146FCF7ACFA216D8B46FCF72B
:103DD000A2FA5146FCF7A5FA5946FCF74AFA2065C3
:103DE000FCF74BFD09F0A0FAFCF78AFDE0624FF406
:103DF0002F60854208DA41428D4205DD864203DAB2
:103E00008E4201DD4FF000094846216B0D46FCF75C
:103E100082FA5146FCF785FA2946FCF72AFA206314
:103E2000206A002804DBE061BDE8FF5F07F060BDA9
:103E3000E06C0026B84201D380F00040E168FCF756
:103E400085FD16D22168A06AFCF776FD11D2E069E3
:103E500004280EDA0420E06166644F48E067606A77
:103E6000401C606226676667A667BDE8FF5F07F0D3
:103E70003FBDE06F404503DB0099FCF74CFAE0677B
:103E8000A06F404509DB0099FCF745FAA06726675B
:103E90006667BDE8FF5F07F02BBD2168A06AFCF7ED
:103EA00055FD31D2E06900282EDDE06F40452BDA68
:103EB0000125276901212068FCF7A3FAA16AFCF714
:103EC0003BFD05D2022535492069FCF72AFA074651
:103ED00066670099206FFCF7CCF920673946FCF73C
:103EE00035FD0DD8E069401BE061002800DAE6618D
:103EF00026674FF0FF316069FCF783FAA0676664BC
:103F0000BDE8FF5F07F0F4BC26676168E06AFCF774
:103F10001DFD1CD2A168A06AFCF70EFD17D2E06956
:103F2000042814DA0099606FFCF7A3F9054660676E
:103F30001B492069FCF7F5F92946FCF7FDFC07D879
:103F4000E069401CE06166676069A06700E0666741
:103F5000BDE8FF5F07F0CCBC0AD7A33B2C010020D3
:103F600000008080C00100201000002000004843B5
:103F7000D34D223E9487C53E77BE7F3F5CAB4D3E1E
:103F80000745AB3E9D4A863C333383410C000020FD
:103F900037FA183CD027723D000040409A99993E6C
:103FA0009A99193F054800218161C161016241620E
:103FB0008162C16201210161704700008801002017
:103FC000042800D3032006490860C0EBC00205485E
:103FD00000EBC200026B8A60406BC8607047000053
:103FE0008801002090E0000810B51F48006810F01C
:103FF000FF4F04D11D48006810F0FF4F01D0012190
:1040000000E000211A48006800F044F819494868A7
:10401000012802D0022803D004E00020086101E05A
:1040200001200861144A086930B10868C0EBC0007B
:1040300002EBC000183004E00868C0EBC00002EBDF
:10404000C0000E4A016811600D4A416811600D4AB6
:10405000816811600C4AC16811600C4A01691160E5
:104060000B494069086010BD2C0000203000002082
:10407000100000208801002090E000084801002086
:104080004C01002050010020540100205801002064
:104090005C0100202DE9F04107460C463A4E3B4DAD
:1040A0003846A9698846FCF736F93949FCF739F9E9
:1040B0004146FCF7DEF8A86101463846FCF72BF9CB
:1040C000E9690F46FCF727F93249FCF72AF9394626
:1040D000FCF7CFF8E8610146FCF723F9296A0F469F
:1040E000FCF719F92C49FCF71CF93946FCF7C1F823
:1040F0002862FCF7C2FB09F017F9FCF701FC27491D
:10410000FCF741F968612649EA6A8A4207DA3146D2
:104110001046FCF7AEF8E8622869BDE8F081002798
:1041200014B16F622869F8E7AA6AB2F5000F07DBDD
:1041300031461046FCF7EFF8A8626F622869ECE799
:104140002C692CB9A968FCF7F7FB01D2012407E020
:10415000286928B1E9686869FCF7F8FB00D20024F7
:10416000286984420CD03146686AFCF782F868629C
:10417000B0F1804F05DB2C616F620A48A86200E055
:104180006F622869C9E700000AD7A33B88010020B5
:104190001FBAE83E9296163F9D4A863C33338341D0
:1041A0006666663F0000404070B51F4B5C89002189
:1041B0001E4DD5F82001DA89C82A10D298B1B0F581
:1041C000C87F10D8521C92B2DA81588100F1C8061B
:1041D0009E81C72A03D101225A70C822DA819A89A6
:1041E000904200D284B2491CC9B20529E3D3D889D0
:1041F000C82809D328680E4D401EB0F5C77F04D8E3
:104200000C4900200860286070BD01F003FF588948
:10421000FCF7ABFA06462046FCF7A7FA3146FEF754
:104220007FF8286070BD000030040020E0300020DE
:10423000300000202C0000202DE9F0472D4C258A6D
:1042400000212D4E0123D6F82001A28AC82A0FD2C0
:1042500090B1B0F5C87F0FD8521C92B2A2822082D2
:1042600000F1C8076782C72A02D1A370C822A282C0
:10427000628A904200D285B2491CC9B20529E4D3B2
:10428000A08AC82818D33068DFF870801C4FDFF888
:104290007490002690B1618A88420FD2A07940B90B
:1042A000A3711948C8F8000018483860012005F0CB
:1042B00003FFC9F80060E663BDE8F08707F086F900
:1042C0000028F9D1A07901280DD001F0A3FE208AA1
:1042D000FCF74BFA04462846FCF747FA2146FEF75E
:1042E0003BF83860E8E7A671C9F800603E60C8F89E
:1042F0000060E1E730040020E03000206C01002085
:10430000300000202C0000200000F041000016C406
:104310001FB50121084601F07BF90121042001F0BD
:1043200077F94FF48054ADF80C4048208DF80F0019
:1043300003A91148FEF760FB0C210020FEF748FBA3
:10434000019400208DF808000C208DF8090001244C
:104350008DF80A4001A8FEF76DF928208DF80000BD
:1043600002208DF801008DF802408DF80340684668
:1043700000F07AF81FBD00000008014010B50220CF
:1043800000F011F8032000F020F8002000F014F8ED
:10439000002000F02FF8002000F026F8BDE81040C3
:1043A000002000F01BB808B50323009002226B2107
:1043B000D020FFF7CEF808BD08B5022300900422F4
:1043C0001C21D020FFF7C5F808BD08B502230090D6
:1043D00004221B21D020FFF7BCF808BD03460122B0
:1043E0003721D020FFF795B8034605226A21D02057
:1043F000FFF78FB8034606226B21D020FFF789B85C
:10440000FEE7000010B5002401231A46194611A04A
:1044100000F05FF80FE0002001F07CFA0444012076
:1044200001F078FA201A04B2204605F099FC08F051
:1044300095FD02F08DFC0120FFF790FB0028EAD0EB
:1044400001F04CFC01F084FD01F0A4FDBDE810403A
:1044500001F06EBC312E5374616E64617264204D44
:104460006F6465007047000070B50F23C2780126A5
:104470000178002A1ED0144A126802F4E062C2F5E4
:10448000E062120AC2F10404D3404578A540827864
:104490001A402A43120101F1E02181F8002400783A
:1044A00000F01F018E404009800000F1E020C0F8BC
:1044B000006170BD01F01F0086404809800000F1D6
:1044C000E020C0F8806170BD0CED00E0002001F03C
:1044D000D5BA38B51446491E022908D801EB810126
:1044E00049060A0E00932346002100F001F838BD6A
:1044F0002DE9F0410746069C0D461646002B01D0DB
:10450000FFF7E4FF3146284601F0C4FA01220649CC
:10451000384601F019FB002C03D0BDE8F04100F053
:104520007DB9BDE8F0810000A400002010B500F0C6
:1045300015F800F0D3F80123BDE810401A461946DB
:1045400001A0FFF7C6BF00006F6C656420696E694B
:104550007420737563636573732100000748816974
:1045600041F0080181610648016821F0FF01016006
:10457000016841F033010160704700000010024003
:10458000040C01402DE9F04105461448016821F072
:10459000F0010160016841F030010160104E4FF000
:1045A0000008C6F8A08100240127E809C6F8A40184
:1045B0006806050E0120FDF7A2FEC6F8A0710120D5
:1045C000FDF79DFEC6F8A0810120FDF798FE641C52
:1045D000E4B2082CE9D3BDE8F0810000040C0140EE
:1045E0000080214270B51348016821F0F00101609C
:1045F000016841F0300101600F4C0120C4F8A401B2
:10460000D4F8241100290BD0C4F8A001FDF777FEDF
:104610000025C4F8A451D4F8240118B1002070BDBD
:10462000002070BD0220FDF76AFEC4F8A0510120F1
:1046300070BD0000040C01400080214270B50D489F
:10464000016821F0F0010160016841F03001016072
:10465000094C0020206060600220FDF750FE01251B
:1046600025600120FDF74BFE6560BDE8704002202B
:10467000FDF745BE040C0140A081214270B5002425
:104680001448016821F0F0010160016841F08001E7
:104690000160114D0126C5F8A4610120FDF72FFE30
:1046A000C5F8A0610120FDF72AFE0AE0641CE4B20F
:1046B000322C03D9FFF7C2FF002070BD0120FDF7A7
:1046C0001EFED5F824010028F0D1C5F8A001012074
:1046D00070BD0000040C01400080214210B540F67E
:1046E000C410401E0028FCD1AE2200213C2008F05E
:1046F00057FEA62200213C2008F052FEAE220021E7
:104700003C2008F04DFED52200213C2008F048FE58
:10471000802200213C2008F043FEA82200213C20FA
:1047200008F03EFE1F2200213C2008F039FED32273
:1047300000213C2008F034FE002211463C2008F005
:104740002FFE402200213C2008F02AFE8D2200216D
:104750003C2008F025FE142200213C2008F020FE19
:10476000202200213C2008F01BFE022200213C20D8
:1047700008F016FEA12200213C2008F011FEC822FC
:1047800000213C2008F00CFEDA2200213C2008F039
:1047900007FE022200213C2008F002FE81220021B7
:1047A0003C2008F0FDFDCF2200213C2008F0F8FD60
:1047B000D92200213C2008F0F3FDF12200213C2009
:1047C00008F0EEFDDB2200213C2008F0E9FD40224C
:1047D00000213C2008F0E4FD2E2200213C2008F0BE
:1047E000DFFDA42200213C2008F0DAFDA6220021F2
:1047F0003C2008F0D5FDAF2200213C2008F0D0FD80
:10480000002001F03BF901F0B3F9034800210180D9
:1048100041800121417110BD9C00002001F0A8B928
:1048200070B50546FFF752FE0024295D202903D20A
:10483000A0B2012201F000F9641C802CF5DBBDE878
:104840007040FFF7EBBF2DE9F04104460F461646D6
:104850001D46FFF7C7FE68B16006000EFFF792FE27
:10486000FFF70CFF48B13846FFF78CFEFFF706FF55
:1048700000240DE00120BDE8F081FFF7DFFE0120FC
:10488000F9E7285DFFF77EFEFFF7F8FE30B1641C04
:10489000B442F6DBFFF7D2FE0020ECE7FFF7CEFED6
:1048A0000020E8E71FB56B4601AA02A903A808F09B
:1048B0000BFF9DF80800394B01280AD19DF80C1018
:1048C00039B99DF80410012903D19DF80010012980
:1048D00005D09DF80C1050EA010403D00AE0FF2037
:1048E00018701FBD9DF80420012A03D19DF80020F7
:1048F000012A01D018B10CE0FE2018701FBD01295B
:1049000007D19DF80420012A03D19DF80020012A37
:1049100004D09DF80420144303D006E0FD20187055
:104920001FBD9DF80040012C02D0012803D009E0F2
:10493000FC2018701FBD012904D11AB99DF8004050
:10494000012C02D0012803D008E0012018701FBDFF
:10495000012903D112B99DF8004014B1012803D0F8
:1049600009E0022018701FBD012904D1012A02D1DB
:104970009DF8004014B1012803D007E0032018700F
:104980001FBD19B912B99DF8000020B11143F7D12C
:10499000002018701FBD042018701FBDF8020020F1
:1049A0000149085C70470000080800200020044A04
:1049B00000211154401CC0B20928FAD370470000EE
:1049C000080800202DE9F8438046012500951A4E7D
:1049D000002777700095194C24E0BDF8000010EA1C
:1049E000080F02D0C4F8BC5101E0C4F8BC71C4F88F
:1049F000B451052005F06AFBC4F8B471052005F038
:104A000065FBC4F8B451D4F8380120B17178BDF811
:104A1000000001437170BDF800004FF6FF7101EA1C
:104A200040000090BDF80000FF28D6D9BDE8F8434B
:104A3000102005F04BBB0000080800200080214238
:104A40002DE9F05F0720FFF7ABFF7A4CA06008204C
:104A5000FFF7A6FFE0600520FFF7A2FF2061062018
:104A6000FFF79EFF606100F0F5F8A061A268724B4D
:104A70004FF002094FF0030A4FF0040B4FF0010C06
:104A80004FF00008FF2A08D1E168FF2905D121690C
:104A9000FF2902D16169FF2902D0616831B107E0C5
:104AA000616801295BD1C4F8048058E0C4F804C0EF
:104AB000322A02DAE168322905DB2169322905DA76
:104AC0006569322D02DA0721197048E0962A02DD65
:104AD000E568322D04DB962905DD6569322D02DAA1
:104AE000082119703BE0322A02DAE568962D04DCD1
:104AF000322905DA6569962D02DD092119702EE04B
:104B0000962A02DDE568962D04DC962905DD6569A7
:104B1000962D02DD0A21197021E0E5685A2D02DB8D
:104B200066695A2E03DA83F800C0BDE8F09F962D1F
:104B300001DC962E02DD83F80090F6E75A2A01DBAD
:104B40005A2902DA83F800A0EFE7962A01DC9629B9
:104B500002DD83F800B0E8E708B983F80080401F61
:104B60003649374E374F384D0C284AD2DFE800F02F
:104B70003D404346062206223D4043462078401CE5
:104B8000C0B22070052801D9052020703068FBF7DD
:104B900070FB0446306039462868FBF76AFB014623
:104BA00028602A48844200DD306029488142BCDD0B
:104BB0002860BAE72078401EC0B2207008B984F897
:104BC00000C088463068FBF7A6FB044630603946D3
:104BD0002868FBF7A0FB01462860444501DAC6F8C7
:104BE0000080B942A1DA2F609FE783F800C09CE7FC
:104BF00083F800B099E783F8009096E783F800A067
:104C000093E76068012802D083F800808DE7E068B0
:104C10005B38312889D25B3A312A86D260695B38A9
:104C2000312882D220695B38312886D283F800800F
:104C30007BE70000D4020020860200200000204113
:104C40006001002000004041640100200000484253
:104C50000000704270B5FFF7A9FE00F0BDF80D48E6
:104C6000C178007941EA00210B48418000200A4BBD
:104C70001B1D012513F81040641E05FA04F20A42B8
:104C800002D1401CC0B270BD401CC0B21028F1D38C
:104C9000002070BD08080020F200002010B5144C60
:104CA00000202060102005F011FA0120FFF78AFE95
:104CB0004320FFF787FE0020FFF784FE0120FFF767
:104CC00081FE0020FFF77EFE0020FFF77BFE002024
:104CD000FFF778FE0020FFF775FE0020FFF772FE59
:104CE00001202060BDE81040102005F0EFB9000061
:104CF000B081214210B5144C00202060102005F036
:104D0000E5F90120FFF75EFE4320FFF75BFE002080
:104D1000FFF758FE0020FFF755FE5A20FFF752FE1E
:104D20005A20FFF74FFE5A20FFF74CFE5A20FFF79C
:104D300049FE5A20FFF746FE01202060BDE81040E2
:104D4000102005F0C3B90000B0812142F8B501215F
:104D5000082000F05DFC48208DF803004FF48040EF
:104D6000ADF8000003248DF802401A4E6946304623
:104D7000FDF742FE0121082000F04AFC10258DF8C5
:104D80000350E802ADF800008DF802406946304655
:104D9000FDF732FE0121082000F03AFC8DF80350A7
:104DA0002802ADF800008DF8024069463046FDF754
:104DB00023FE0121082000F02BFC8DF8035068022F
:104DC000ADF800008DF8024069463046FDF714FE4C
:104DD000F8BD0000000C01402DE9FC4100270197BF
:104DE00001260096204CC4F8B071204D2878FFF7BA
:104DF000E9FD6878FFF7E6FD022001902CE00096BF
:104E00001B4D4FF6FF781CE0C4F8B461052005F097
:104E10005DF9C4F8B471052005F058F9C4F8B4611F
:104E2000D4F8380140B19DF80400BDF80010285CAA
:104E300008439DF804106854BDF8000008EA4000DB
:104E40000090BDF80000FF28DED9102005F03EF9E3
:104E50009DF80400401C01909DF804000928CED361
:104E6000C4F8B061BDE8FC8100802142F20000205E
:104E70000808002010B500F00DF800F00BF800F065
:104E800009F8FFF70BFF00F025F8BDE81040FFF729
:104E900031BF000010B50E4C00202060102005F03E
:104EA00015F90120FFF78EFD4220FFF78BFD002052
:104EB000FFF788FD0020FFF785FD0020FFF782FD4A
:104EC00001202060BDE81040102005F0FFB8000070
:104ED000B081214210B5124C002020600120FFF764
:104EE00071FD4420FFF76EFD0020FFF76BFD0120F0
:104EF000FFF768FDEE20FFF765FD0020FFF762FD7C
:104F00000020FFF75FFD0020FFF75CFD0020FFF7AA
:104F100059FD01202060BDE81040102005F0D6B8F2
:104F2000B08121420549002802DD09680844704724
:104F3000FDDA4968A0EB0100704700002C01002059
:104F4000884200DD0846904200DA104670477047FC
:104F50002DE9F0478046894616461F46294C002514
:104F6000A088002814D1304607F065FE82463846F6
:104F700007F061FE5044322803DAE088401CE080EC
:104F800000E0E580E0880A2802D90120A080E580C1
:104F9000A088012820D12089401C80B22081C82807
:104FA00001D92581A5801848DFF860A0804513DD70
:104FB000DAF800001438FBF7CFFB4946FBF7BCFCDE
:104FC0000AD2DAF800001430FBF7C6FB4946FBF7BB
:104FD000BDFC01D20220A080A088022810D16089E7
:104FE000401C80B26081642801D96581A580F019D8
:104FF00007F021FE322803DDA5800120BDE8F087FF
:105000000020FBE71801002000E0AB46280000204C
:105010002DE9F04F8BB0DFF8E4820125002798F8E6
:105020000100B74C3038052811D2DFE800F00E033C
:1050300005080B00A5700BE00220A07008E003201B
:10504000A07005E00420A07002E0A77000E0A77047
:1050500098F80300312801D10521A170322801D12F
:105060000620A070A548FBF7E2F815280AD22770A1
:105070005021A248FBF7C4F80BB0A2A0BDE8F04F46
:1050800002F054BA98F80500312802D0322808D02E
:105090000EE000F071F9052004F0F2FF00F06CF969
:1050A00006E000F07DFC00F067F99BA002F03EFAFC
:1050B00098F80700312802D0322805D008E0656052
:1050C00095A002F033FA03E0676093A002F02EFA95
:1050D00098F80900DFF848B2312853D11C2104A800
:1050E000FBF78EF802970397009701978DA18348ED
:1050F00000F0E0FF0646701C7ED0E06808EB060971
:10510000821B494604A8FBF762F887A104A800F0B7
:10511000D1FF0546681C6FD0AA1E0DF1100A0DF1D3
:10512000120102A8FBF753F802A804F0C5FC002204
:105130005B46FBF719FAFBF7E3FB7C4908601C218F
:1051400004A8FBF75DF8E16870190A1A09EB05017C
:10515000491C04A8FBF73BF873A104A800F0AAFFC0
:10516000411C49D0821E0AF102016846FBF72FF864
:10517000684604F0A1FCFBF7C3FB6D49086066A01C
:1051800002F0D4F998F80B00312855D11C2104A85D
:10519000FBF736F8029703970097019765A15748E8
:1051A00000F088FF0646701C26D0E06808EB060970
:1051B000821B494604A8FBF70AF85BA104A800F08B
:1051C00079FF0546681C17D0AA1E0DF1100A0DF1D3
:1051D000120102A8FAF7FBFF02A804F06DFC0022FE
:1051E0005B46FBF7C1F9FBF78BFB534908601C21B9
:1051F00004A8FBF705F800E07DE0E16870190A1AE1
:1052000009EB0501491C04A8FAF7E1FF46A104A82F
:1052100000F050FF411C6ED0821E0AF10201684668
:10522000FAF7D5FF684604F047FCFBF769FB4349F2
:10523000086039A002F07AF998F80D00312852D1AF
:105240001C2104A8FAF7DCFF029703970097019747
:105250003BA12A4800F02EFF0646701C4BD0E068A8
:10526000B044821B414604A8FAF7B1FF2EA104A85E
:1052700000F020FF0546681C3DD0AA1E0DF1100964
:105280000DF1120102A8FAF7A2FF02A804F014FC23
:1052900000225B46FBF768F9FBF732FB29490860FF
:1052A0001C2104A8FAF7ACFFE16870190A1A08EB90
:1052B0000501491C04A8FAF78AFF23A104A800F0FD
:1052C000F9FE411C17D0821E09F102016846FAF767
:1052D0007EFF684604F0F0FBFBF712FB1B490860F9
:1052E0000DA002F023F927700BB05021BDE8F04F5C
:1052F0000248FAF785BF0BB0BDE8F08FE02D002023
:105300008402002024526563656976655061636B91
:105310004572726F72230000244F4B23000000007F
:1053200000005940415000002C00000048010020BE
:105330004C01002056500000500100205401002074
:105340005450000058010020230000005C010020A0
:1053500010B507480749826801F15000521CFAF75E
:1053600036FFBDE8104050210248FAF749BF00005F
:1053700084020020902D002070B532215D48FAF79C
:105380003FFF5C485CA11C380968C1615B485C4C0C
:105390000068A0427DD25B4D2946FAF7F4FFFBF787
:1053A0006CFA02460B4658A1594803F033F85948A5
:1053B0000068A0426ED2FBF760FA024654480B46E2
:1053C00051A10A3003F026F853480068A0427CD26D
:1053D0002946FAF7D8FFFBF750FA02464C480B462D
:1053E00049A1143003F016F84C480068A04271D26D
:1053F000FBF743FA024646480B4643A11E3003F032
:1054000009F847480068A04269D22946FAF7BBFF6D
:10541000FBF733FA02463E480B463BA1283002F028
:10542000F9FF40480068A0425ED2FBF726FA024628
:1054300037480B4634A1323002F0ECFF34492D4896
:10544000FAF7E9FE38A12B48FAF7E5FE304929487A
:105450000A31FAF7E0FE35A12648FAF7DCFE2C49BE
:1054600024481431FAF7D7FE31A12248FAF7D3FEC7
:10547000274920481E31FAF7CEFE2EA11D48FAF723
:10548000CAFE23491B482831FAF7C5FE2AA119484C
:1054900001E010E014E0FAF7BEFE1D491548323174
:1054A000FAF7B9FE25A11348FAF7B5FEBDE870403A
:1054B000104802F03BB8BDE8704021A002F036B8B9
:1054C000BDE870401EA002F031B8BDE870401CA0DD
:1054D00002F02CB8BDE8704019A002F027B8BDE872
:1054E000704017A002F022B8BDE8704014A002F08E
:1054F0001DB80000A00200202441500048010020F7
:10550000000080800000C84225332E326600000073
:10551000482E00204C0100205001002054010020A2
:10552000580100205C0100202C4144002C56500002
:105530002C5649002C5450002C54440023000000E9
:10554000244765745049444572726F72230000000D
:105550002DE9F04180460D46164617480078002890
:1055600004D0164C164FA08918B116E00020BDE8F3
:10557000F08138680A38FBF7EFF84146FBF7DCF9B1
:105580000BD238680A30FBF7E7F84146FBF7DEF943
:1055900003D215B90EB90120A081A089012809D133
:1055A0002D1F242D02D3361F242E03D20020A081CC
:1055B0000120DCE70020DAE70400002018010020C9
:1055C00028000020034A516821F440410143516002
:1055D0007047000000100240054A002903D0D1693D
:1055E0000143D1617047D1698143D16170470000A7
:1055F00000100240054A002903D0116901431161DE
:10560000704711698143116170470000001002402A
:10561000054A002903D0916901439161704791695E
:10562000814391617047000000100240054A002943
:1056300003D0D1680143D1607047D1688143D16004
:10564000704700000010024010B5264A516801F072
:105650000C01254B002927D0042927D0082927D061
:105660000360516801F0F0010909204B5C5C01689E
:10567000E1404160546804F4E064240A1C5D21FAAE
:1056800004F48460546804F46054E40A1B5DD94057
:10569000C160526802F44042920B144B1B1F9A5C8B
:1056A000B1FBF2F1016110BD0360DAE70360D8E7F6
:1056B000516801F47011536803F48033022404EB41
:1056C000914133B153689B0307D5094B594301609E
:1056D000C7E7074B59430160C3E7034B59430160D8
:1056E000BFE700000010024000127A004C000020CA
:1056F00000093D002DE9F04700240025174E4FF02A
:105700000108C6F8008000277760FCF745FEC6F860
:1057100004803760FCF740FEC6F800807760A6F58D
:10572000C876FCF739FEDFF83890C6F89071FCF7C0
:1057300033FEFCF731FE0420FDF7ECF9000929F8EF
:1057400015006D1CEDB2C6F89081FCF725FE641CB7
:10575000E4B2802CE9D3BDE8F087000090812142BB
:10576000880600202DE9F04F8BB0684E07A8CDE9E0
:10577000006006F1260108AB03AA881F04F022FE90
:105780003088C0057ED50398FAF7E6FF6FF01D0854
:105790004146FAF736FE044670600498FAF7DCFFDB
:1057A0004146FAF72EFE0746B0600598FAF7D4FF97
:1057B0004146FAF726FE0546F0600698FAF7CCFF58
:1057C0004146FAF71EFE8046306101212046FAF775
:1057D00018FE2946FAF7A5FD05464FF0404421463C
:1057E0003846FAF79EFD4146FAF79BFD2946FAF73F
:1057F00040FDFBF742F803F049FEDFF814814FF05B
:1058000066373A464346FAF7AFFEFBF779F8706120
:10581000F06801210546FAF7F4FD82462946FAF7B9
:1058200080FD0546B06821468146FAF77AFD494673
:10583000FAF777FD2946FAF76EFD4FF07E51FAF739
:1058400018FDFBF71AF804460D4601217068FAF7B7
:10585000D8FD4946FAF765FD814650463169FAF7A9
:1058600060FD4946FAF705FDFBF707F822462B468F
:1058700004F054F83A464346FAF776FEFBF740F850
:10588000B06100E03FE0316989464846FAF749FDDA
:10589000F168044608460A91FAF743FDB1680546E7
:1058A0008A465046FAF73DFD7168834608460991DD
:1058B000FAF737FD5946FAF7DCFC2946FAF72BFDD3
:1058C0002146FAF728FDFAF7D8FF04460D46494667
:1058D0000998FAF726FD814650460A99FAF721FD04
:1058E0004946FAF7C6FC0121FAF78BFDFAF7C5FF26
:1058F00022462B4604F012F83A464346FAF734FEA5
:10590000FAF7FEFFF0610BB0BDE8F08F60000020F9
:1059100066A64C400021002803D0012806D00020B4
:105920007047054AB2F9000011807047034AB2F986
:10593000000011807047000024040040240800404B
:1059400010B54221D020FDF792FC04464121D02021
:10595000FDF78DFC04EB0020FAF707FFB0F18E4F46
:1059600003DD4FF08F41FAF7D6FC0949FAF70BFD3A
:10597000FAF783FF074A084BFAF74FFD0022074B5F
:10598000FAF7F2FDFAF7BCFFBDE81040FAF710BFD6
:105990000000AA43A4703D0AD743424000002440BF
:1059A0002DE9F047DFF874A0DFF87490DFF8748019
:1059B0001D4F1E4D1E4C1F4EDAF800002168FAF7ED
:1059C000BBFF02D02068CAF800006168D9F8000067
:1059D000FAF7B2FF02D06068C9F80000A168D8F8F1
:1059E0000000FAF7A9FF02D0A068C8F80000E1683B
:1059F0003868FAF7A1FF01D0E068386021692868AB
:105A0000FAF79AFF01D02069286061693068FAF7D7
:105A100093FF01D060693060BDE8F0874801002045
:105A20004C010020500100205401002058010020AA
:105A3000302E00205C01002030B5802813D22029B0
:105A400011D20C4B1B790BB172B10022012301F072
:105A50000704A340C908084D00EBC110012A05D076
:105A6000295C9943295430BD0122EFE7295C194391
:105A7000295430BD9C00002088040020002805D057
:105A8000FF224FF400710248FAF7B3BB0022F8E797
:105A900088040020014A1080518070479C0000203B
:105AA0002DE9F04782460E469146DFF8988031781E
:105AB000B8F800000844802805D2B8F802007178D0
:105AC0000844202802D30020BDE8F08700252BE001
:105AD000AAF1200101FB0050726832F81070002416
