:020000040800F2
:100000006008002049010008E9260008B91A000824
:100010000B2600081D0F00085743000800000000D1
:100020000000000000000000000000000132000895
:10003000F111000800000000952B00089133000822
:100040006301000863010008630100086301000800
:1000500063010008630100086301000863010008F0
:1000600063010008630100086301000863010008E0
:1000700063010008630100086301000863010008D0
:1000800063010008630100086301000863010008C0
:1000900063010008630100086301000863010008B0
:1000A00063010008630100086301000863010008A0
:1000B000BD3600087D370008953700086301000849
:1000C0006301000863010008630100086301000880
:1000D00063010008ED400008314100086301000899
:1000E0001912000863010008630100086301000899
:1000F0006301000863010008630100086301000850
:10010000630100086301000863010008630100083F
:100110006301000863010008AD37000863010008AF
:10012000630100086301000863010008630100081F
:10013000DFF810D000F094FC00480047996B0008ED
:10014000AFF300806008002006488047064800475B
:10015000FEE7FEE7FEE7FEE7FEE7FEE7FEE7FEE777
:10016000FEE7FEE795330008310100082DE9F04174
:100170000024061B254671F1000605DA012400273C
:10018000D0EB070067EB0101161E73F1000605DADC
:100190000027D2EB0702012567EB030300F032FBD7
:1001A00086460E4617469C46AC4204D00025D0EB4E
:1001B000050E65EB010624B10020D2EB000760EBD1
:1001C000030C704631463A466346BDE8F081D2B230
:1001D00001E000F8012B491EFBD270470022F6E730
:1001E00010B513460A4604461946FFF7F0FF2046AD
:1001F00010BD30B504460020034600E05B1C93426E
:1002000003D2E05CCD5C401BF8D030BDF0B480EA96
:100210000102D40F4200B2EB410F02D2024608465F
:1002200011464A0042D0C30DDDB2C1F3C752AD1A28
:10023000202D35DAC1F3160141F4000204B1524217
:10024000C5F1200602FA06F12A411044B3EBD05F53
:1002500023D0C4B1012DA0EBC35009DCF0BC4FF09A
:10026000004202EAC352DBB200F5000000F025BBF9
:10027000400000F1807000EBC350A0F1807040EAB4
:10028000D170490009E0490841EAC071A0EBC350B0
:1002900000F50000400800EBC350F0BC00F004BBC8
:1002A0006142012202EB4101001BF6E7F0BC7047FE
:1002B00081F00041AAE780F00040A7E780EA010250
:1002C00010B502F00043400022D04A001FD0010EBA
:1002D00001EB1261C0F35600C2F3560240F4000075
:1002E00042F40002A0FB022000047F39140400D075
:1002F000401C50EA124001D44000491EC2B20C0614
:1003000004EBD010401C4008802A02D003E00020FB
:1003100010BD20F00100002900DA0020184310BDB4
:1003200030B480EA010202F0004530F0004221F0D2
:10033000004013D090B1C30DD40DC2F31601C0F329
:100340001600E41A41F4000140F400027D349142A9
:1003500001D3641C00E04900002C02DA30BC00200C
:1003600070474FF400000023914201D3891A0343E0
:1003700040084FEA4101F7D151B1914202D14FF00B
:10038000004105E002D24FF0010101E06FF00101F0
:1003900003EBC450284430BC00F086BA2DE9FE4F70
:1003A000804681EA0300C00F0C46009021F0004116
:1003B00023F00045B8EB0200A94105D24046214692
:1003C00090461C460B46024623F00040104347D09F
:1003D000270DC7F30A00C3F30A510290401A019097
:1003E00040286BDAC3F3130040F4801B0098924658
:1003F00020B10023D2EB030A63EB0B0B01985946A3
:10040000C0F14002504600F02EFA06460D46504616
:100410005946019A00F036FA10EB080061410024B9
:1004200087EA115284EAE7731A4340D0009A62B314
:10043000019A012A4FEA075215DC001B61EB020109
:100440004FF0004202EA0752CDE90042001C41F59C
:10045000801132462B4600F06DFA03B0BDE8F08FF4
:1004600040462146F9E7001B61EB0201001C41F503
:10047000801300185B412018A2F5001747EB030119
:1004800040EAD570B6196D4111E06D084FEA3606A5
:1004900045EAC0754FEA0752001B61EB0201001CE0
:1004A00041F5801149084FEA3000001951413246A8
:1004B0002B4603B0BDE8F04F00F02DBA00980122A2
:1004C00040000023D0EB020263EBE073009821466A
:1004D0004FEAE074B8EB000061EB0401E9E783F058
:1004E00000435BE781F0004158E72DE9FE4F81EAC8
:1004F000030404F0004421F0004100944FF0000B8D
:1005000023F0004350EA01045ED052EA03045BD0BA
:10051000C3F30A54C1F30A552C44A4F2F3340194F2
:10052000A0FB0254C1F3130141F48011C3F3130380
:1005300043F4801301FB024400FB034E840A970A34
:1005400044EA815447EA8357A4FB076802958D0A61
:1005500005FB07854FEA932C04FB0C542705029DED
:100560004FEA065847EA1637B5EB08056EEB070C5D
:10057000870E920E47EA811742EA8312A7FB020117
:10058000B6EB0B0164EB00042B0D43EA0C335E1851
:1005900044EB1C50DA465146E7FB0201C5F3130455
:1005A0004FEA0B3343EA14534FEA0432019C43EA07
:1005B0000603A4F10C040294009CCDE900B400F001
:1005C000B9F903B0BDE8F08F00200146F9E72DE945
:1005D000F04D81EA030404F0004B21F0004514467D
:1005E0004FF0000A23F0004150EA050220D054EAFF
:1005F00001021DD0C5F30A570246C5F31303C1F328
:100600001300C1F30A5640F4801543F48013A7EB9E
:100610000608101BD64608F2FD3873EB050002D31E
:1006200008F1010801E092185B41B8F1000F03DA0C
:1006300000200146BDE8F08D00204FF480110646F1
:1006400084460EE0171B73EB050705D3121B63EB03
:10065000050306434CEA010C49084FEA30009218A2
:100660005B4150EA0107EDD152EA030012D082EA61
:10067000040083EA0501084305D0101BAB4106D2F4
:100680000122002306E000224FF0004302E06FF059
:10069000010253101AEB06004CEB085110EB0A0054
:1006A00041EB0B01BDE8F04D00F035B9C10F80EA18
:1006B000E0700844CA079623002100F0FEB8962394
:1006C0000022114600F0F9B800F0004220F000408E
:1006D000C10DC0F3160040F400007F2901DA0020AC
:1006E0007047962903DCC1F19601C84001E09639B4
:1006F0008840002AF4D04042704720F00040C10DED
:10070000C0F3160040F400007F2901DA0020704792
:10071000962903DCC1F19601C8407047963988409C
:10072000704700F0004230F000400AD0C10D01F5E2
:100730006071C0F3160042EA0151C208400711433C
:10074000704700200146704730B5041E71F1000467
:1007500004DB4FF00044404264EB0101141E73F1CE
:10076000000405DB1C464FF00043524263EB0403D8
:100770008B4208BF824230BD01F0004330B421F00B
:10078000004150EA010206D00A0DA2F56072C1F3E1
:100790001301002A02DC30BC00207047440F44EAF9
:1007A000C104C100E01830BC00EBC25000F07CB8BE
:1007B000002801DBC0F10040002901DBC1F100414C
:1007C00081427047002801DBC0F10040002901DBB5
:1007D000C1F100418842704730B50B460146002008
:1007E0002022012409E021FA02F59D4205D303FAF3
:1007F00002F5491B04FA02F52844151EA2F1010274
:10080000F1DC30BD2DE9F05F0546002092469B46A5
:1008100088460646814640241BE028464146474616
:10082000224600F02FF953465A46C01A914110D380
:1008300011461846224600F016F82D1A67EB0108FB
:100840004F4622460120002100F00DF817EB000969
:100850004E41201EA4F10104DFDC484631462A4601
:100860004346BDE8F09F202A04DB203A00FA02F15B
:10087000002070479140C2F1200320FA03F319438E
:1008800090407047202A06DBCB17203A41FA02F04D
:1008900043EAE07306E041FA02F3D040C2F12002DD
:1008A00091400843194670470029A8BF7047401C73
:1008B000490008BF20F00100704710B4B0FA80FC76
:1008C00000FA0CF050EA010404BF10BC704749B1B3
:1008D000CCF1200421FA04F411FA0CF118BF012123
:1008E00021430843A3EB0C01CB1D4FEA00614FEA03
:1008F000102042BF002010BC704700EBC3501044D2
:100900000029A4BF10BC7047401C490008BF20F05C
:10091000010010BC704710B5141E73F1000408DA12
:10092000401C41F1000192185B411A4301D120F0B3
:10093000010010BD2DE9F04D92469B4611B1B1FA70
:1009400081F202E0B0FA80F220329046FFF78BFF8E
:1009500004460F4640EA0A0041EA0B0153465A4654
:10096000084313D0114653EA010019D0C8F14002E0
:10097000504600F087F805460E4650465946424616
:10098000FFF771FF084305D0012004E020463946F7
:10099000BDE8F08D0020054346EAE0762C4337435E
:1009A0000A986305E40AA0EB08000022FD0A44EA65
:1009B00047540A3002D500200146E9E70105101925
:1009C0006941DDE9084500196941BDE8F04DA2E73C
:1009D00070B521F0004303430CD0C1F30A55002445
:1009E000D5EB040564EB0403D617AD1AB34102DB63
:1009F0000020014670BD201841EB025170BDC1F3CB
:100A00000A52C1F3130140F2FF3341F480119A42BC
:100A100002DA00200146704740F233439A42A2F2C4
:100A2000334202DC524200F02DB8FFF71CBF000039
:100A300030B5041E71F1000404DB4FF00044404265
:100A400064EB0101141E73F1000405DB1C464FF03A
:100A50000043524263EB0403994208BF904230BD09
:100A6000064C074D06E0E06840F0010394E80700FB
:100A700098471034AC42F6D3FFF75EFB00B600088F
:100A800020B60008202A04DB203A21FA02F00021D7
:100A9000704721FA02F3D040C2F12002914008438E
:100AA000194670472DE9F04D00231A461B1A8A415A
:100AB00003DB00200146BDE8F08DC1F30A52C1F30B
:100AC000130141F480154FF0000BD10702D100183B
:100AD0006D41521E0027044640F2FF11384601EBDB
:100AE000620A3E468046024600204FF48011FFF71E
:100AF000C9FFC2197141BB1846EB0100B4EB030CEE
:100B000075EB000C04D3E41A65EB000517460E469E
:100B1000241908F101006D4180463428E3DDF919FC
:100B200046EB0600091BA84103D24FF0FF321346E3
:100B300001E0002213461BEB070046EB0A51BDE81B
:100B4000F04DFFF7E8BE70B58C1810F8015B15F09A
:100B5000070301D110F8013B2A1106D110F8012B2F
:100B600003E010F8016B01F8016B5B1EF9D12B0754
:100B700005D40023521E0DD401F8013BFAE710F80A
:100B8000013BCB1A921C03E013F8015B01F8015BF7
:100B9000521EF9D5A142D8D3002070BD21B1826880
:100BA00042F00102826003E0826822F0010282606A
:100BB0007047000010B504461248844208D1012154
:100BC000401502F025F80021601502F021F817E029
:100BD0000D48844208D10121001502F019F80021C6
:100BE000201502F015F80BE00848844208D10121D5
:100BF000C80302F00DF800214FF4004002F008F89D
:100C000010BD00000024014000280140003C0140CC
:100C1000014600208A6802F004020AB1012000E0C7
:100C2000002070470146C86C80B270470246002021
:100C300013680B400BB1012000E000207047014613
:100C400000208A6802F008020AB1012000E00020BA
:100C50007047000030B502460020002350680F4C5A
:100C600020400D790C6844EA0524204350609068C8
:100C70000B4C2040D1E902542C434D7944EA450401
:100C800020439060D06A20F470000C7C641EE4B2B3
:100C9000234340EA0350D06230BD0000FFFEF0FF66
:100CA000FDF7F1FFF0B504460D4600200021092DA7
:100CB00011DDE068A5F10A0606EB4607072606FAED
:100CC00007F18843A5F10A0606EB460603FA06F18A
:100CD0000843E0600CE0206905EB4507072606FAAB
:100CE00007F1884305EB450603FA06F10843206146
:100CF000072A0FDA606B561E06EB86071F2606FAD8
:100D000007F18843561E06EB860605FA06F10843EE
:100D1000606322E00D2A0FDA206BD61F06EB8607F0
:100D20001F2606FA07F18843D61F06EB860605FA4A
:100D300006F10843206310E0E06AA2F10D0606EB1D
:100D400086071F2606FA07F18843A2F10D0606EB77
:100D5000860605FA06F10843E062F0BD816841F0BD
:100D600008018160704721B1826842F4A00282606C
:100D700003E0826822F4A00282607047816841F03B
:100D8000040181607047000010B50D480068FA2822
:100D90000FD20C480C490860012006F087FF0020A4
:100DA0000949086009480A490860022006F07EFFE8
:100DB00005E008480449086000200549086010BDA6
:100DC000D0000020000020C1240000200000C84303
:100DD00028000020000070412DE9FC5F04460D460C
:100DE00017480068FFF762FC80462146FFF760FA6B
:100DF000064629460020FFF75BFA0190114801687A
:100E00000198FFF75BFA82460F49FFF789FA81469E
:100E10000E48006880F0004B0B495846FFF780FAF7
:100E200082463146FFF74AFA49460090FFF740FAFA
:100E30008046FFF749FC07463846BDE8FC9F0000A6
:100E400020000020E40000200000C842E000002054
:100E500070B504464FF47A750723012221460B48EA
:100E6000FFF720FF01210948FFF77DFF00BF0221A6
:100E70000648FFF7DBFE20B9281EA5F101018DB25F
:100E8000F5D10248FFF7CEFE70BD000000240140FE
:100E900000B587B001214FF4017001F0A9FE4FF4B5
:100EA000004001F079FE2020ADF8040000208DF80C
:100EB000070001A9174800F023FB1748FFF77AFE47
:100EC000002002908DF80C008DF80D004FF460208A
:100ED00004900020059001208DF8180002A90E480A
:100EE000FFF7B8FE01210C48FFF758FE0A48FFF74C
:100EF00035FF00BF0848FFF7A2FE0028FAD10648D8
:100F0000FFF73CFF00BF0448FFF782FE0028FAD13C
:100F100007B000BD000801400024014000BFFEE70B
:100F20002DE9F05F05460C46124E13480168204635
:100F3000FFF7C4F98346114801685846FFF766F980
:100F4000804631464FF07E50FFF7B2F98246414667
:100F5000FFF7B4F9074631462846FFF7AFF9814657
:100F60003946FFF753F90549086008460068BDE8AF
:100F7000F09F00000AD7A33C400100208001002020
:100F80002DE9F05F05460C46124E134801682046D5
:100F9000FFF794F98346114801685846FFF736F980
:100FA000804631464FF07E50FFF782F98246414637
:100FB000FFF784F9074631462846FFF77FF9814657
:100FC0003946FFF723F90549086008460068BDE87F
:100FD000F09F00000AD7A33C40010020C001002080
:100FE00038B5002000906B4601227521682005F07D
:100FF000F5FC2CA003F05CFA9DF8000068280ED0E8
:1010000000BF3148006800F4E06030490843001D2B
:101010002D490860BFF34F8F00BF00BFFEE705F00A
:1010200039FF00283CD1782006F03EFD10B91DA004
:1010300003F03EFA782005F01BFE10B924A003F05F
:1010400037FAC82006F0E2FC10B92BA003F030FA02
:1010500004F03AFD10B932A003F02AFA3D4805F039
:101060005FFD044604F08AFF10B93BA003F020FAAC
:1010700040F2731004F0D0FB10B941A003F018FA4D
:10108000C82004F0ABFE10B947A003F011FA06F037
:101090004BFE012006F0B6FB10B94CA003F008FA95
:1010A00038BD00006D70755F7365745F73656E7336
:1010B0006F7220636F6D706C657465202E2E2E2EFE
:1010C0002E2E0D0A000000000CED00E00000FA05D5
:1010D0006D70755F636F6E6669677572655F66696F
:1010E000666F20636F6D706C657465202E2E2E2EDA
:1010F0002E2E0D0A000000006D70755F7365745F21
:1011000073616D706C655F7261746520636F6D7083
:101110006C657465202E2E2E2E2E2E0D0A000000DA
:10112000646D705F6C6F61645F6D6F74696F6E5F2B
:101130006472697665725F6669726D776172652047
:10114000636F6D706C657465202E2E2E2E2E2E0D05
:101150000A00000088000020646D705F7365745F92
:101160006F7269656E746174696F6E20636F6D7004
:101170006C657465202E2E2E2E2E2E0D0A0000007A
:10118000646D705F656E61626C655F6665617475E4
:10119000726520636F6D706C657465202E2E2E2E27
:1011A0002E2E0D0A00000000646D705F7365745F81
:1011B0006669666F5F7261746520636F6D706C65E0
:1011C0007465202E2E2E2E2E2E0D0A006D70755F4A
:1011D0007365745F646D705F737461746520636FB1
:1011E0006D706C657465202E2E2E2E2E2E0D0A002D
:1011F000704701B500200AE0002001E0411CC8B2A0
:101200000A28FBDB9DF80010491EC9B200919DF829
:1012100000100029F0D108BD2DE9F0412B480068ED
:10122000002851D14FF4805029490860294800789E
:1012300000F0FAF9002001F093FE8046012001F051
:101240008FFE47422448016824480068FFF7C4FD28
:1012500004463946404603F081F8054620480068B8
:1012600002F00AFF0646601930441E490860601902
:10127000801B1D4908601B48006801F075FC194976
:1012800008601948006801F06FFC17490860174AA8
:1012900051421448006801F074FC12490860134A76
:1012A00051421148006801F06CFC0F490860104879
:1012B00001680A48006802F0A7FE28B90A480168D8
:1012C0000848006802F012F8BDE8F08130012142C0
:1012D0001404014000000020080000200400002049
:1012E0000C0000201000002014000020D8F5FFFFA3
:1012F000D8000020002123498279002A3AD00A46EA
:10130000126803689A430B461A600A1D1268036844
:101310009A430B1D1A60027911440A6803681A4344
:101320000A60184A0832126803689A43154B08335A
:101330001A601A1D126803689A43124B0C331A6024
:101340004279102A0ED11A1F126803681A430D4BF6
:1013500008331A601A1D126803681A43094B0C33CC
:101360001A600DE00749427911440A6803681A437C
:101370000A6005E0027911440A6803689A430A602A
:10138000704700000004014000B587B00121022031
:1013900001F00EFC0121042001F02AFCC020ADF870
:1013A000000004208DF8030069461C4800F0A8F8EE
:1013B00004A802F01FFE0020ADF810004FF6FF70E9
:1013C000ADF814000020ADF81600ADF8120004A925
:1013D000134802F0BDFD00231A460321104802F015
:1013E00093FB01A802F018FC0A20ADF80C0001A93B
:1013F0000B4802F0BBFB0121094802F06FFA012201
:101400001146074802F011FC0021054802F071FD69
:101410000121034802F068FA07B000BD000801404E
:101420000004004000B587B00121042001F0C0FB9A
:101430000121082001F0DCFBC020ADF800000420F1
:101440008DF8030069461C4800F05AF804A802F021
:10145000D1FD0020ADF810004FF6FF70ADF814007C
:101460000020ADF81600ADF8120004A9134802F0F0
:101470006FFD00231A460321104802F045FB01A826
:1014800002F0CAFB0A20ADF80C0001A90B4802F0DB
:101490006DFB0121094802F021FA0122114607489B
:1014A00002F0C3FB0021054802F023FD012103489F
:1014B00002F01AFA07B000BD000C0140000800401D
:1014C00030B500228B071C0F0F2303FA04F20B4BDD
:1014D0008C1053F824309343084C8D1044F8253079
:1014E00023468C1053F824308C07240F00FA04F4A0
:1014F0002343024C8D1044F8253030BD08000140D4
:101500002DE9F0410246002500260020002300249A
:10151000002791F803C00CF00F0591F803C00CF000
:10152000100CBCF1000F03D091F802C04CEA050585
:1015300091F800C0BCF1000F31D0146800202BE0FE
:101540004FF0010C0CFA00F3B1F800C00CEA0306EE
:101550009E4220D183004FF00F0C0CFA03F7BC43DE
:1015600005FA03FC4CEA040491F803C0BCF1280F0F
:1015700006D14FF0010C0CFA00FCC2F814C00AE0CE
:1015800091F803C0BCF1480F05D14FF0010C0CFAE3
:1015900000FCC2F810C0401C0828D1D31460B1F878
:1015A00000C0BCF1FF0F34DD546800202EE000F1D4
:1015B000080C4FF0010808FA0CF3B1F800C00CEA6F
:1015C00003069E4221D183004FF00F0C0CFA03F763
:1015D000BC4305FA03FC4CEA040491F803C0BCF1D7
:1015E000280F05D100F1080C08FA0CF8C2F8148095
:1015F00091F803C0BCF1480F07D100F1080C4FF07F
:10160000010808FA0CF8C2F81080401C0828CED354
:101610005460BDE8F0810246002093680B400BB196
:10162000012000E0002070472DE9F04F91B0804686
:1016300001F0B2FCE2490860B8F1010F1BD101F0E2
:1016400061FBE0480068E0490860E049B1F900004A
:10165000FFF72CF8DE490860DC49B1F90400FFF718
:1016600025F8DC490860DC49B1F90400FFF71EF8F1
:10167000DA490860A1E14421D02000F01FFA834636
:101680004321D02000F01AFA0BEB00200990FFF75D
:101690000DF806464621D02000F010FA8346452179
:1016A000D02000F00BFA0BEB00200990FEF7FEFFB4
:1016B0000A904821D02000F001FA83464721D0202B
:1016C00000F0FCF90BEB00200990FEF7EFFF074656
:1016D0003C21D02000F0F2F983463B21D02000F0DD
:1016E000EDF90BEB00200990FEF7E0FF0D903E2195
:1016F000D02000F0E3F983463D21D02000F0DEF950
:101700000BEB00200990FEF7D1FF82464021D0204C
:1017100000F0D4F983463F21D02000F0CFF90BEB45
:1017200000200990FEF7C2FF05464FF08E4130467B
:10173000FFF748F805D24FF08F413046FEF7B8FD6D
:1017400006464FF08E410A98FFF73CF805D24FF05D
:101750008F410A98FEF7ACFD0A904FF08E41384653
:10176000FFF730F805D24FF08F413846FEF7A0FD65
:1017700007464FF08E410D98FFF724F805D24FF041
:101780008F410D98FEF794FD0D904FF08E4150461D
:10179000FFF718F805D24FF08F415046FEF788FD4D
:1017A00082464FF08E412846FFF70CF805D24FF0E5
:1017B0008F412846FEF77CFD054686F000408449AF
:1017C00008600D98FEF7ADFF854A864BCDE906010E
:1017D000FEF7FDFECDE90801FEF7CEFF1090504662
:1017E000FEF79FFF7E4A7F4BCDE90601FEF7EFFE35
:1017F000CDE90801FEF7C0FF0F902846FEF791FFE4
:10180000774A784BCDE90601FEF7E1FECDE9080104
:10181000FEF7B2FF0E903046FEF783FF4FF06632C0
:10182000714BCDE90601FEF7D2FECDE90801FEF7C6
:10183000A3FF81460A98FEF774FF4FF066326A4BA9
:10184000CDE90601FEF7C3FECDE90801FEF794FFDE
:10185000044666480078022837D189F000400246E5
:101860000390DDE90E1000F04BFB8346FEF759FFB5
:101870005F4A604BCDE90401FEF7A9FE00225E4BF2
:10188000CDE90601FEF731FECDE90801FEF774FF50
:101890004C49086022460E99109800F08DFC834652
:1018A000FEF73FFF524A534BCDE90401FEF78FFE8E
:1018B0000022514BCDE90601FEF717FECDE90801E4
:1018C000FEF75AFF4D4908606FE04848007803284A
:1018D0006BD12846FEF725FFCDE902015046FEF701
:1018E00020FFCDE90001DDE9022303F07DFD0022A8
:1018F000414BCDE90401FEF7F8FD3D4A3D4BCDE9F2
:101900000601FEF764FECDE90801FEF735FF0C90F5
:101910002846FEF706FFCDE902010D98FEF701FF0C
:10192000CDE90001DDE9022303F05EFD0022324B28
:10193000CDE90401FEF7D9FD2D4A2E4BCDE9060174
:10194000FEF745FECDE90801FEF716FF0B90304685
:10195000FEF7E7FE4FF06632294BCDE90601FEF7B0
:1019600036FECDE90801FEF707FF834659460C987D
:10197000FFF7D6FA80F00040124908600A98FEF797
:10198000D0FE4FF066321E4BCDE90601FEF71FFE7A
:10199000CDE90801FEF7F0FE834659460B98FFF7A4
:1019A000EFFA80F0004015490860064800680649D3
:1019B0000860084807600948056011B0BDE8F08F6D
:1019C0001800002070000020040000205C000020AF
:1019D000080000200C000020620000201C000020F5
:1019E0008FC2F5285C1F9A40665E8D400000002083
:1019F000F1D4C853FB210940008066406C000020F0
:101A00006666304010B500F045F8044603492046AC
:101A1000FEF754FC0446204610BD0000C3F580408C
:101A200010B50120164908600F2003F0B9FE002010
:101A30001449C1F880011448007800F08000E8B132
:101A40001148007800F03F001049086008460088FF
:101A500000040860084600680D49098808440B49DD
:101A6000086008460068AA2148434FF47A71B0FB29
:101A7000F1F00649086000200349088010BD00000D
:101A80008001214200002142D4000020D00000202B
:101A9000D600002070B50520FFF7DAF90546284684
:101AA000FEF70DFE06460349FEF708FC04462046F5
:101AB00070BD00003333533A00BFFEE770B50546F2
:101AC0000E46002400F0EAF8284600F0B5F8641C41
:101AD00000F03CF9304600F0AFF8641C00F036F935
:101AE00000F0DCF8691CC8B200F0A6F8641C00F035
:101AF0002DF9002000F068F8044600F003F92046B4
:101B000070BD000010B500200E4908600E48006846
:101B100020F470600C4908600846006840F440708A
:101B2000086000200949C1F8A801012003F038FE2F
:101B300001200449086003F033FE00200349C1F886
:101B4000AC0110BDAC812142040C01400080214257
:101B500008B50121082001F04BF84FF44060ADF8C2
:101B6000000010208DF8030003208DF80200694664
:101B70000148FFF7C5FC08BD000C014010B500206E
:101B80000E4908600E48006820F470600C49086037
:101B90000846006840F44070086001200949C1F817
:101BA000A80103F0FDFD01200449086003F0F8FDE1
:101BB00000200449C1F8AC0110BD0000AC812142F5
:101BC000040C01400080214270B5054600241748EE
:101BD000006820F47060154908600846006840F409
:101BE00000600860002616E000201149086002200D
:101BF00003F0D6FD01200F49C1F8AC016006040EC8
:101C00000B488438006808B1601CC4B2022003F09D
:101C1000C7FD701CC6B2082EE6DB15B1FFF772FFD8
:101C200001E0FFF7ABFF204670BD0000040C01404F
:101C3000AC8121420080214270B5044614480068FE
:101C400020F47060124908600846006840F4407053
:101C5000086000200F490860002516E0E0090D49E2
:101C6000091F08606006040E012003F099FD0120A1
:101C70000949C1F8AC0103F093FD00200549086053
:101C8000012003F08DFD681CC5B2082DE6DB70BD98
:101C9000040C0140AC8121420080214210B516485D
:101CA000006820F47060144908600846006840F439
:101CB000407008600120114908601148D0F82801DF
:101CC00008B9002010BD01200C49091D086003F06F
:101CD00067FD00200A49C1F8A8010848803800685B
:101CE00008B10020EEE7012003F05AFD002003496F
:101CF000091D08600120E5E7040C0140A88121428C
:101D00000080214210B50E48006820F470600C4934
:101D100008600846006840F44070086000200949E7
:101D200008600949C1F8A801012003F039FD01202C
:101D3000044908600449C1F8A80103F031FD10BD51
:101D4000040C0140AC8121420080214210B50024E6
:101D50001548006820F47060134908600846006860
:101D600040F40060086001201049086003F018FD8D
:101D700001200F49C1F8AC0103F012FD0AE0601C1C
:101D8000C4B2322C03DDFFF7BDFF002010BD0120DF
:101D900003F006FD0548803800680028EFD10349AC
:101DA000091D08600120F1E7040C0140A8812142CF
:101DB0000080214270B505460E461446314628463D
:101DC000FFF77CFE2070012070BDF8B506460F4677
:101DD00014461D466A4639463046FFF7EBFF2DB1E3
:101DE0000120A0409DF80010084305E00120A0401C
:101DF0009DF8001021EA0000C0B200909DF800207C
:101E00003946304600F036F8F8BD2DE9F84307466C
:101E1000884614461D46089E6A4641463846FFF7E6
:101E2000C9FF28B3601CFF2101FA00F0C4F10801CA
:101E30002944491EFF220A41104300F0FF09C5F161
:101E4000080006FA00F0C6B2C4F1070006419DF88A
:101E5000000000EA090000909DF800003043009067
:101E60009DF800204146384600F004F8BDE8F883AC
:101E70000020FBE737B504460D4602AB0122294698
:101E8000204600F001F83EBD2DE9F04180460D46A8
:101E900016461F460024FFF701FF4046FFF7CCFE21
:101EA000FFF754FF2846FFF7C7FEFFF74FFF00BFBD
:101EB00006E0385DFFF7C0FEFFF748FF601CC4B2C4
:101EC000B442F6DBFFF71EFF0120BDE8F081000001
:101ED00001464906084A926942F00102064B9A619E
:101EE000064A526822F0E062044B5A601A46526871
:101EF0000A435A6070470000001002400000014091
:101F00002DE9F04FADB0044689469246A3482B9088
:101F1000A349D1E90023D1E90201CDE92723CDE985
:101F20002901CDF898A09E4B1033D3E90021D3E9C5
:101F30000203CDE92403CDE922219949203103C9C7
:101F4000CDE920019649283103C9CDE91E01944B02
:101F500030330FCB1AAD0FC591484030006819904F
:101F60008F4B4433D3E90020D3E9021316AD0BC5E0
:101F700015928B49543103C9CDE91301002011900A
:101F800012900F9010900B900C900D900E90079067
:101F9000089009900A900590069004904846FEF734
:101FA000C0FB0746884684F000400190FEF7B9FB6D
:101FB0003A464346CDE9020103F016FA0546FEF71C
:101FC000DBFB834611A8774922AA0123CDE9002132
:101FD000029002221146104605F00EFE0FA826A917
:101FE00020AA0123CDE9002102901A4619460220B9
:101FF00005F002FE0F991198FEF708F96A4908608A
:1020000010991298FEF702F9674948600BA86749D2
:1020100022AA0223CDE9002102901A461946184649
:1020200005F0EAFD07A815A90BAA0223CDE90021B6
:1020300002901A461946184605F0DEFD1A990798CF
:10204000FEF7E4F85A4908601B990898FEF7DEF895
:10205000574948601C990998FEF7D8F85449886098
:102060001D990A98FEF7D2F85149C86005A81EAA22
:102070000223CDE9002102901A461946012005F0FD
:10208000BBFD04A813A905AA0123CDE900210290F4
:1020900002221146184605F0AFFD19990498FEF783
:1020A000B5F8054629464FF07E50FEF739F9049001
:1020B00011A813A93E4A0123CDE900210290022272
:1020C0001146104605F098FD3A4804A911AA0123CB
:1020D000CDE9002102901A461946022005F08CFD38
:1020E00004A831491EAA0123CDE900210290022251
:1020F0001146184605F080FD58460499FEF7D8F8B9
:10210000049011A804A92B4A0123CDE900210290D3
:102110001A461946022005F06FFD234A11991068EE
:10212000FEF774F81F4908601F4A12995068FEF7BD
:102130006DF81C4948600BA81EA91E4A0223CDE970
:102140000021029001221146184605F055FD0B9919
:102150002798FEF7ADF80B900C992898FEF7A8F891
:102160000C900D992998FEF7A3F80D9027AA0E99C7
:10217000D068FEF79DF80E900C480D490BAA02237B
:10218000CDE9002102901A461946184605F034FDA3
:10219000044800682DB0BDE8F08F00000AD7A33BCB
:1021A00004B40008C4010020CC010020D4010020A8
:1021B0003C040020E40100202DE9F04FADB00446BE
:1021C00089469246A3482B90A349D1E90023D1E93F
:1021D0000201CDE92723CDE92901CDF898A09E4B36
:1021E0001033D3E90021D3E90203CDE92403CDE97B
:1021F00022219949203103C9CDE92001964928318E
:1022000003C9CDE91E01944B30330FCB1AAD0FC576
:1022100091484030006819908F4B4433D3E9002037
:10222000D3E9021316AD0BC515928B49543103C97E
:10223000CDE913010020119012900F9010900B9097
:102240000C900D900E900790089009900A900590C0
:10225000069004904846FEF764FA0746884684F0E4
:1022600000400190FEF75DFA3A464346CDE902018F
:1022700003F0BAF80546FEF77FFA834611A87749BE
:1022800022AA0123CDE90021029002221146104624
:1022900005F0B2FC0FA826A920AA0123CDE9002150
:1022A00002901A461946022005F0A6FC0F991198D3
:1022B000FDF7ACFF6A49086010991298FDF7A6FF78
:1022C000674948600BA8674922AA0223CDE900218B
:1022D00002901A461946184605F08EFC07A815A963
:1022E0000BAA0223CDE9002102901A46194618468E
:1022F00005F082FC1A990798FDF788FF5A49086093
:102300001B990898FDF782FF574948601C99099866
:10231000FDF77CFF544988601D990A98FDF776FF08
:102320005149C86005A81EAA0223CDE900210290E8
:102330001A461946012005F05FFC04A813A905AA56
:102340000123CDE90021029002221146184605F032
:1023500053FC19990498FDF759FF054629464FF09B
:102360007E50FDF7DDFF049011A813A93E4A01231A
:10237000CDE90021029002221146104605F03CFCF6
:102380003A4804A911AA0123CDE9002102901A4676
:102390001946022005F030FC04A831491EAA012389
:1023A000CDE90021029002221146184605F024FCD6
:1023B00058460499FDF77CFF049011A804A92B4A04
:1023C0000123CDE9002102901A461946022005F0AA
:1023D00013FC234A11991068FDF718FF1F49086084
:1023E0001F4A12995068FDF711FF1C4948600BA85D
:1023F0001EA91E4A0223CDE90021029001221146A6
:10240000184605F0F9FB0B992798FDF751FF0B9043
:102410000C992898FDF74CFF0C900D992998FDF721
:1024200047FF0D9027AA0E99D068FDF741FF0E9047
:102430000C480D490BAA0223CDE9002102901A464F
:102440001946184605F0D8FB044800682DB0BDE8D1
:10245000F08F00000AD7A33B60B40008EC01002015
:10246000F4010020FC0100204C0400200C0200209C
:1024700008B50121042000F0BBFB4FF48070ADF8DB
:10248000000048208DF8030069460248FFF738F83D
:1024900008BD00000008014010B5044600F022F815
:1024A00001280BD1601C0D490988B1EB400F0ADAF5
:1024B0000A480088401C0949088004E000200749B8
:1024C00008800749088005480088022803D10120B8
:1024D0000349088010BD0020FCE70000CE0000206A
:1024E000CC00002010B54FF480710448FFF793F83A
:1024F00008B9012010BD0020FCE7000000080140E1
:102500001FB50121084600F073FB0121042000F0F3
:102510006FFB4FF48050ADF80C0048208DF80F0091
:1025200003A91248FEF7ECFF0C210020FEF7C8FFBC
:102530004FF48050019000208DF808000C208DF899
:10254000090001208DF80A0001A8FEF7D3FE28201B
:102550008DF8000002208DF8010001208DF80200A6
:102560008DF80300684600F0C1F81FBD0008014067
:1025700010B5022000F010F8032000F021F8002030
:1025800000F014F8002000F037F8002000F02BF8DD
:10259000002000F01FF810BD38B5044603230222C6
:1025A0006B21D0200094FFF730FC38BD38B50446CD
:1025B000022304221C21D0200094FFF726FC38BD02
:1025C00038B50446022304221B21D0200094FFF7D3
:1025D0001CFC38BD10B50446234601223721D0200B
:1025E000FFF7F3FB10BD10B50446234605226A2110
:1025F000D020FFF7EAFB10BD10B5044623460622A3
:102600006B21D020FFF7E1FB10BD00BFFEE700000B
:1026100008B50121102000F0EBFA4FF47070ADF80E
:10262000000018208DF8030003208DF80200694691
:102630000148FEF765FF08BD0010014030B587B0C6
:1026400005460C460121480300F0D2FA254801F066
:1026500067F9681E80B2ADF81400ADF81040002094
:10266000ADF81600ADF8120004A91E4801F070FC88
:102670006020ADF800000120ADF802000020ADF8A8
:102680000600ADF808006946164801F0D7FA694619
:10269000144801F029FB6946124801F085FB6946A0
:1026A000104801F0DBFB01210E4801F029F9082157
:1026B0000C4801F00FFB08210A4801F067FB0821D4
:1026C000084801F0C1FB0821064801F005FC012182
:1026D000044801F0F7F80121024801F005F907B0BC
:1026E00030BD0000003401407047000070B500218B
:1026F00000230F22C47804B3154C246804F4E0646A
:10270000C4F5E064210AC1F10403CA40447804FA24
:1027100003F184781440214309010E4C0678A15539
:10272000047804F01F050124AC4005786D11AD005C
:1027300005F1E025C5F8004109E0047804F01F0523
:102740000124AC40044D0678761145F8264070BD52
:102750000CED00E000E400E080E100E0024901430C
:10276000024A1160704700000000FA050CED00E01D
:1027700010B5002000F0A0FC10BDF8B507460C46CF
:1027800015461E46002C0CDD032C0ADC601E00EBF7
:1027900080004006020E2B4600213846009600F0CD
:1027A00001F8F8BD2DE9F04107460C4615461E46D6
:1027B000DDF818800EB1FFF7DBFF2946204600F058
:1027C0008BFC01220549384600F0E0FCB8F1000F0F
:1027D00001D000F095F9BDE8F0810000A4000020D0
:1027E00010B500F013F800F0E9F801231A46194675
:1027F00001A0FFF7C2FF10BD6F6C656420696E69B0
:1028000074207375636365737321000008488069E1
:1028100040F00800064988610648006820F0FF0083
:10282000044908600846006840F0330008607047BB
:1028300000100240040C014070B5044614480068C2
:1028400020F0F000124908600846006840F03000AF
:10285000086000200F490860002516E0E0090D49D6
:10286000091D08606006040E0120FEF7C2FC01206D
:102870000949C1F8A001FEF7BCFC00200549086029
:102880000120FEF7B6FC681CC5B2082DE6DB70BD62
:10289000040C0140A08121420080214210B516485D
:1028A000006820F0F000144908600846006840F015
:1028B000300008600120114908601148D0F8240157
:1028C00008B9002010BD01200C49091F0860FEF75F
:1028D00090FC00200A49C1F8A4010848803800682B
:1028E00008B10020EEE70220FEF783FC0020034938
:1028F000091F08600120E5E7040C0140A481214282
:102900000080214210B51048006820F0F0000E4908
:1029100008600846006840F03000086000200B495D
:1029200008600B49C1F8A4010220FEF762FC0120F7
:1029300006490860FEF75DFC01200549C1F8A401C5
:102940000220FEF756FC10BD040C0140A08121427C
:102950000080214210B500241548006820F0F000E6
:10296000134908600846006840F0800008600120B4
:1029700010490860FEF73DFC01200F49C1F8A00195
:10298000FEF737FC0AE0601CC4B2322C03DDFFF70F
:10299000B9FF002010BD0120FEF72BFC0548803850
:1029A00000680028EFD10349091F08600120F1E702
:1029B000040C0140A48121420080214210B540F660
:1029C000C41400E0641E002CFCD1AE2200213C2087
:1029D00005F060FAA62200213C2005F05BFAAE2249
:1029E00000213C2005F056FAD52200213C2005F0BC
:1029F00051FA802200213C2005F04CFAA822002147
:102A00003C2005F047FA1F2200213C2005F042FA45
:102A1000D32200213C2005F03DFA002211463C2043
:102A200005F038FA402200213C2005F033FA8D22CF
:102A300000213C2005F02EFA142200213C2005F054
:102A400029FA202200213C2005F024FA022200214C
:102A50003C2005F01FFAA12200213C2005F01AFAC3
:102A6000C82200213C2005F015FADA2200213C2082
:102A700005F010FA022200213C2005F00BFA812219
:102A800000213C2005F006FACF2200213C2005F071
:102A900001FAD92200213C2005F0FCF9F1220021A5
:102AA0003C2005F0F7F9DB2200213C2005F0F2F98B
:102AB000402200213C2005F0EDF92E2200213C208F
:102AC00005F0E8F9A42200213C2005F0E3F9A62254
:102AD00000213C2005F0DEF9AF2200213C2005F06A
:102AE000D9F9002000F0E8FA00F066FB0020034965
:102AF000088048800120487110BD00009C00002023
:102B000010B500F059FB10BD2DE9F04105460E4609
:102B100017469846FFF7C2FE10B90120BDE8F081C4
:102B20006906080EFFF788FEFFF714FF18B9FFF7D4
:102B3000E9FE0120F2E73046FFF77EFEFFF70AFFCD
:102B400000240BE018F80400FFF776FEFFF702FF01
:102B500018B9FFF7D7FE0020E0E7641CBC42F1DBA8
:102B6000FFF7D0FE0020D9E70146002902DD01F27F
:102B700014507047002902DAA1F21450F9E7084610
:102B8000F7E703461846884200DD0846904200DA1F
:102B9000104670477047000001460020034A506805
:102BA00020F440400843506070470000001002408D
:102BB00029B1064AD2690243044BDA6104E0034AB0
:102BC000D2698243014BDA61704700000010024075
:102BD00029B1064A12690243044B1A6104E0034A10
:102BE00012698243014B1A617047000000100240D5
:102BF00029B1064A92690243044B9A6104E0034AF0
:102C000092698243014B9A617047000000100240B4
:102C100029B1064AD2680243044BDA6004E0034A51
:102C2000D2688243014BDA60704700000010024016
:102C300030B500210022002400232D4D6D6805F0E1
:102C40000C0121B1042905D0082923D105E0294D23
:102C5000056022E0274D05601FE0254D6D6805F4F5
:102C60007012234D6D6805F48034022505EB924205
:102C70001CB9214D554305600BE01D4D6D6805F4F1
:102C800000351DB11C4D5543056002E0194D5543FB
:102C9000056002E0174D056000BF00BF144D6D6870
:102CA00005F0F0010909154D6B5C0568DD404560D4
:102CB0000F4D6D6805F4E061090A104D6B5C4568C5
:102CC000DD4085600A4D6D6805F46051C90A0B4D01
:102CD0006B5C4568DD40C560054D6D6805F440419D
:102CE000890B074D6B5CC568B5FBF3F5056130BD1D
:102CF0000010024000127A0000093D00440000204C
:102D0000540000202DE9F04F8FB00CA889490DAB7D
:102D100008AACDE900108849884802F0E1FE8548FC
:102D2000008800F4807000287ED00898FDF7BEFC73
:102D300004464FF09D41FDF7F3FA81490860099878
:102D4000FDF7B4FC04464FF09D41FDF7E9FA7D49DB
:102D500008600A98FDF7AAFC04464FF09D41FDF774
:102D6000DFFA794908600B98FDF7A0FC04464FF0A4
:102D70009D41FDF7D5FA75490860714801684FF02B
:102D80008040FDF79BFA06906F4801680698FDF7B2
:102D900095FA82466B4801684FF04040FDF78EFA85
:102DA00006906A4801680698FDF788FA83465146FE
:102DB000FDF72CFA0790FDF7B4FC804602F0CCF842
:102DC00006464FF06632624BFDF78FFB0446FDF777
:102DD000D3FC604908605C4801684FF08040FDF713
:102DE0006DFA0390584801680398FDF767FA824628
:102DF000544801684FF04040FDF760FA0390514895
:102E000001680398FDF75AFA83465146FDF750FAD8
:102E100081464FF07E51FDF7F9F90446FDF781FC3C
:102E2000CDE90401464800E081E001684FF08040B0
:102E3000FDF744FA8346434801685846FDF73EFAD9
:102E40008146414801684FF08040FDF737FA8346DC
:102E50003E4801685846FDF731FA82464946FDF77B
:102E6000D5F90446FDF75DFC0746DDE9042302F0D1
:102E7000BBFA4FF06632364BCDE90601FDF735FB64
:102E80000546FDF779FC3449086030480168006860
:102E9000FDF714FA03902C4801680068FDF70EFA5C
:102EA0000290284801680068FDF708FA8346244824
:102EB00001680068FDF702FA59460190FDF7A6F98E
:102EC00082460299FDF7F4F981460399FDF7F0F97E
:102ED0000446FDF726FCCDE904011C4801681848AA
:102EE0000068FDF7EBF9824617480168154800684D
:102EF000FDF7E4F983465146FDF788F981464FF026
:102F00008041FDF7DBF90446FDF70BFC0746DDE9E0
:102F1000042302F069FA4FF066320D4BCDE9060149
:102F2000FDF7E3FA0546FDF727FC0C4908600FB0F2
:102F3000BDE8F08F68000020620000205C000020E7
:102F4000780000207C000020800000208400002009
:102F500066A64C406C000020700000207400002029
:102F6000014611B101290ED106E0094A128810B2BA
:102F70000022074B1A8008E0064A128810B200228D
:102F8000044B1A8001E0002000BF00BF7047000022
:102F900024040040240800402DE9F05F4221D020A5
:102FA000FEF78CFD05464121D020FEF787FD05EB9D
:102FB00000242046FDF77AFB82464FF08E415046B2
:102FC000FDF700FC05D24FF08F415046FDF770F938
:102FD00082460D495046FDF7A3F98346FDF7A1FB54
:102FE00080460A4A0A4BFDF7D9F906460022094BEA
:102FF000FDF77BFA0446FDF7BFFB82465046FDF71E
:1030000063FBBDE8F09F00000000AA43A4703D0AE6
:10301000D743424000002440F0B503461446802BBD
:1030200001DA202900DBF0BD2148007920B10CB97C
:10303000012000E000200446012C1CD1CD1701EB3B
:103040005575ED1003EBC5151A4E755D0A46CE1782
:1030500001EB5676F610A1EBC6070126BE403543BC
:10306000EEB20846CD1701EB5575ED1003EBC51513
:10307000104F7E551AE0CD1701EB5575ED1003EB9F
:10308000C5150C4E755D0A46CE1701EB5676F61047
:10309000A1EBC6070126BE40B5430846CE1701EB9B
:1030A0005676F61003EBC616024FBD5500BFBAE7C1
:1030B0009C0000202C02002010B504460CB9002012
:1030C00000E0FF2002464FF400710248FDF77FF850
:1030D00010BD00002C020020014A10805180704772
:1030E0009C0000202DE9F04307460C4690462648F8
:1030F000008821780844802805DA234840886178D0
:103100000844202802DB0020BDE8F083002530E0E1
:10311000A7F12000617800FB0150616831F8109040
:10312000002622E009FA06F000F4004058B1164AE1
:1031300052882A4491B2144A1288324490B24246CC
:10314000FFF76AFF10E0B8F1000F01D1012300E0A2
:1031500000231A460C4B5B882B4499B20A4B1B8800
:10316000334498B2FFF758FF761C2078B042D9D884
:103170006D1C6078A842CBD80348008821780844A9
:10318000014908803846BFE79C00002070B504461E
:103190000D4616460AE0207832462946FFF7A2FF80
:1031A0002178884201D0207870BD641C20780028E6
:1031B000F1D12078F8E7000010B500241BE004F1FD
:1031C000B000C2B200213C2004F064FE002211468F
:1031D0003C2004F05FFE102200213C2004F05AFE47
:1031E0000648802101FB04020B4640213C2004F0EC
:1031F0005BFE601CC4B2082CE1DB10BD2C02002079
:10320000704710B500F002F810BD00000CB50020AA
:10321000019000903348006840F4803031490860E4
:1032200000BF3048006800F4003000900198401C56
:103230000190009818B90198B0F5A06FF1D1294814
:10324000006800F4003010B10120009001E000207F
:1032500000900098012843D12348006840F01000F6
:10326000214908600846006820F00300086008460D
:10327000006840F0020008601A4840681949486038
:103280000846406848600846406840F480604860EE
:103290000846406820F47C1048600846406840F4C6
:1032A000E81048600846006840F08070086000BF81
:1032B0000C48006800F000700028F9D00948406808
:1032C00020F00300074948600846406840F00200CB
:1032D000486000BF0348406800F00C000828F9D19E
:1032E0000CBD0000001002400020024070B50546F1
:1032F0000C4625B900201B490880091D08802CB9FF
:103300000020184908310880091D0880002D09DDBA
:10331000284604F0D6FC1349091D08800020091F27
:10332000088008E000200F49091D0880284604F0A5
:10333000C8FC0C490880002C09DD204604F0C1FCC3
:103340000849083108800020091D088009E0002094
:10335000044908310880204604F0B3FC01490C31CF
:10336000088070BD34340140042808D14FF0E021BA
:10337000096941F004014FF0E022116107E04FF0CC
:10338000E021096921F004014FF0E022116170474A
:103390007047000010B51348006840F00100114963
:1033A000086008464068104908400E4948600846D1
:1033B00000680E4908400B4908600846006820F480
:1033C000802008600846406820F4FE0048604FF402
:1033D0001F008860FFF715FF4FF000600449086088
:1033E00010BD0000001002400000FFF8FFFFF6FED5
:1033F00008ED00E0F0B50C46154600220021068CD1
:103400004FF6FE773E400684028B018C4FF60C7619
:1034100032407E1C06EA03162E433243104EB04261
:103420000ED0104EB0420BD0B0F1804F08D00E4EEF
:10343000B04205D00D4EB04202D00D4EB04206D182
:103440004FF6FD76314044F00106314305E04FF67A
:10345000F576314044F00106314302830184F0BD2A
:10346000002C0140003401400004004000080040EE
:10347000000C0040F0B50C46154600220021002645
:10348000078C4FF6EF7C07EA0C070784028B018C50
:103490004FF6FF7707EA041640F6FF473A404FF62B
:1034A000FF7707EA03373A434FF6FF7707EA052726
:1034B0003A43114FB8420ED0104FB8420BD0B0F182
:1034C000804F08D00E4FB84205D00E4FB84202D000
:1034D0000D4FB84206D14FF6DF77394046F010075E
:1034E000394305E04FF65F77394044F01007394320
:1034F00002830184F0BD0000002C01400034014033
:103500000004004000080040000C0040F0B50C46EC
:103510001546002200210026078C4FF6FF6C07EAB3
:103520000C070784828B018C4FF6FF7707EA04268D
:103530004FF60C773A404FF6FF7707EA03172F4311
:103540003A43114FB8420ED0104FB8420BD0B0F1F1
:10355000804F08D00E4FB84205D00E4FB84202D06F
:103560000D4FB84206D14FF6FF57394046F48077E9
:10357000394305E04FF2FF57394044F4807739432F
:1035800082830184F0BD0000002C01400034014022
:103590000004004000080040000C0040F0B50C465C
:1035A0001546002200210026078C4EF6FF7C07EA14
:1035B0000C070784828B018C4FF6FF7707EA0436ED
:1035C00040F6FF473A404FF6FF7707EA05273A43B0
:1035D0004FF6FF7707EA03373A43114FB8420ED050
:1035E000104FB8420BD0B0F1804F08D00E4FB84208
:1035F00005D00E4FB84202D00D4FB84206D14DF65D
:10360000FF77394046F48057394305E047F6FF57C6
:10361000394044F48057394382830184F0BD00006F
:10362000002C01400034014000040040000800402C
:10363000000C004030B587B005460C4604F092FC03
:1036400001210846FFF7B4FAADF80850ADF8044080
:103650000020ADF80A00ADF8060001A94FF0804047
:1036600000F076FC0420ADF810000020ADF8120048
:103670000120ADF814000020ADF81600ADF81800D8
:1036800004A94FF0804000F071FA1C208DF8000072
:1036900001208DF801008DF802008DF803006846C6
:1036A000FFF724F801220521880700F0BEFA012166
:1036B000880700F019F907B030BD00004FF08041D5
:1036C000088A2C49097801F0800100294DD100F0C9
:1036D0000101D1B12749097801F04001A9B125497B
:1036E000097801F03F013F290AD12249098841F0B8
:1036F0008001204A11804FF6FF711F4A118004E0BB
:103700001C490988491C1B4A118000F0040161B35F
:103710001849097801F0400199B11649098841F02A
:103720008001144A11804FF08041098F124A1180A4
:103730004FF08041098C21F020014FF0804211842C
:1037400013E000210B4A11800B4A118009490988B6
:1037500041F04001074A118000214FF080429184DE
:103760001146098C41F02001118400214FF0804264
:1037700011827047D4000020D60000200448008841
:103780000348008820F001000149088070470000CC
:1037900010040040044800880348008820F001001D
:1037A00001490880704700001008004010B5012151
:1037B000244800F0CAF9002842D00121214800F035
:1037C00090F821480088401C1F4908801F48007855
:1037D000401C1E4908701E480088002804DD1C4853
:1037E0000088401E1A490880FEF71AF91748007829
:1037F000022823DD002015490870FEF703F904466E
:10380000144801682046FCF701FD1249086012487F
:103810000078401C104908700846007832280DD105
:103820000E490C480068FCF77BFD0D49086000203C
:10383000084908600849087004F04CFA01F0DAFE03
:1038400010BD000000100040C8000020C100002092
:10385000C2000020BC000020C00000200000484240
:10386000D80000201FB501211020FFF7A1F941F673
:103870001F40ADF804006320ADF8080001A910480E
:1038800000F066FB01210E4800F028F801221146E5
:103890000B4800F0CAF936208DF8000004208DF89E
:1038A000010002208DF8020001208DF80300684617
:1038B000FEF71CFF0121024800F016F81FBD0000B2
:1038C0000010004021B1028842F08002028004E032
:1038D00002884FF67F731A4002807047CA43028203
:1038E0007047CA430282704721B1028842F0010248
:1038F000028004E002884FF6FE731A40028070478F
:1039000031B1B0F8442042F40042A0F8442005E070
:10391000B0F84420C2F30E02A0F844207047000023
:1039200010B504466848844208D10121C014FFF74D
:103930006FF90021E014FFF76BF9C4E0B4F1804F98
:1039400008D101210846FFF743F900210120FFF7C4
:103950003FF9B8E05D48844208D101210220FFF719
:1039600037F900210220FFF733F9ACE058488442D0
:1039700008D101210420FFF72BF900210420FFF7D3
:1039800027F9A0E05348844208D101210820FFF71D
:103990001FF900210820FFF71BF994E04E488442EC
:1039A00008D101211020FFF713F900211020FFF7A3
:1039B0000FF988E04948844208D101212020FFF70F
:1039C00007F900212020FFF703F97CE044488442F6
:1039D00008D101214014FFF71BF900216014FFF703
:1039E00017F970E03F48844209D10121C804FFF76C
:1039F0000FF900214FF40020FFF70AF963E03A487D
:103A0000844209D101210805FFF702F900214FF492
:103A10008010FFF7FDF856E03448844209D10121B7
:103A20004805FFF7F5F800214FF40010FFF7F0F814
:103A300049E02F48844208D101214020FFF7C8F80F
:103A400000214020FFF7C4F83DE02A48844208D115
:103A500001218020FFF7BCF800218020FFF7B8F893
:103A600031E02548844208D101218015FFF7B0F8E4
:103A70000021A015FFF7ACF825E02048844209D1C9
:103A800001210804FFF7C4F800214FF48030FFF74C
:103A9000BFF818E01A48844209D101214804FFF711
:103AA000B7F800214FF40030FFF7B2F80BE01548EB
:103AB000844208D101218804FFF7AAF800214FF4BD
:103AC0008020FFF7A5F810BD002C01400004004045
:103AD00000080040000C00400010004000140040AE
:103AE00000340140004C01400050014000540140AE
:103AF00000180040001C0040002000400040014031
:103B00000044014000480140F0B50C4615461E46F1
:103B10000021002200230189028B038C4FF6F877E5
:103B2000394021434FF6FC473A4040F201173A43EF
:103B30004FF6DD773B404FF6FF7707EA06172F4336
:103B40003B43018102830384F0BD30B5024600206F
:103B500000230024158A05EA0103958905EA01047A
:103B600013B10CB1012000E0002030BD70B5054656
:103B70000C46244885420ED0234885420BD0B5F12F
:103B8000804F08D02148854205D02148854202D087
:103B90002048854200D100E000BF208850B9238929
:103BA000A28861882846FFF725FCE188284600F0B6
:103BB000A2F925E0208804280AD12389A2886188F7
:103BC0002846FFF757FCE188284600F09DF917E0EA
:103BD000208808280AD12389A28861882846FFF70F
:103BE00095FCE188284600F09CF909E02389A28829
:103BF00061882846FFF7D2FCE188284600F09AF950
:103C000070BD0000002C0140003401400004004061
:103C100000080040000C004000210180418001218B
:103C200081800021C180018170471AB183890B43D3
:103C3000838102E083898B438381704770B50024C0
:103C400000220023058C4FF6FE7635400584028C59
:103C50008388048B4FF68F752C40B51E2C400D8841
:103C60002C43751E2A400D892A434D882A43144D42
:103C7000A8420BD0134DA84208D0134DA84205D03E
:103C8000124DA84202D0124DA84213D14FF6F7753B
:103C90002A404D892A434FF6FB752A408D882A43D6
:103CA0004FF6FF652B404FF6FF552B408D892B4378
:103CB000CD892B4383800483CD888586028470BDA3
:103CC000002C01400034014000400140004401400C
:103CD000004801400A460021018B4FF6F773194056
:103CE000114301837047000070B5002400220023B7
:103CF000058C4FF6EF7635400584028C8388048B63
:103D000048F6FF752C404FF6FF452C400D884FF6C6
:103D1000FF7606EA05252C434FF6DF752A400D890C
:103D200006EA05152A434D8806EA05152A43154D6E
:103D3000A84202D0144DA8421DD14FF67F752A40EB
:103D40004D894FF6FF7606EA05152A434FF6BF75F3
:103D50002A408D8806EA05152A434FF6FF352B4089
:103D60004FF2FF752B408D8906EA85052B43CD89DF
:103D700006EA85052B4383800483CD88058702846A
:103D800070BD0000002C0140003401400A460021B3
:103D9000018B4FF2FF7319404FF6FF7303EA0223C2
:103DA000194301837047000070B5002400220023EE
:103DB000058C4FF6FF6635400584028C8388848B22
:103DC0004FF68F752C404FF6FC752C400D882C4318
:103DD0004FF6FF552A400D894FF6FF7606EA052576
:103DE0002A434D8806EA05252A43154DA84202D0EC
:103DF000144DA8421DD14FF2FF752A404D894FF650
:103E0000FF7606EA05252A434FF6FF352A408D88BE
:103E100006EA05252A434EF6FF752B404DF6FF7541
:103E20002B408D8906EA05152B43CD8906EA051539
:103E30002B4383808483CD888587028470BD0000F6
:103E4000002C0140003401400A460021818B4FF6CE
:103E5000F7731940114381837047000070B5002249
:103E600000230024058C4EF6FF7635400584038C34
:103E70008488828B48F6FF752A404FF6FF452A401A
:103E80000D884FF6FF7606EA05252A434DF6FF75A5
:103E90002B400D8906EA05352B434D8806EA05358A
:103EA0002B430B4DA84202D00A4DA84208D14BF635
:103EB000FF752C408D894FF6FF7606EA85152C4359
:103EC00084808283CD88A0F84050038470BD0000B8
:103ED000002C0140003401400A460021818B4FF242
:103EE000FF7319404FF6FF7303EA022319438183DE
:103EF000704781847047028B4FF6F3731A40028338
:103F0000028B0A4302837047028B4FF2FF331A4041
:103F10000283028B4FF6FF7303EA01231A430283E5
:103F20007047828B4FF6F3731A408283828B0A4369
:103F300082837047828B4FF2FF331A408283828BD9
:103F40004FF6FF7303EA01231A4382837047000090
:103F5000002202881D4B98420ED01D4B98420BD078
:103F6000B0F1804F08D01B4B984205D01A4B9842B5
:103F700002D01A4B984204D14FF68F731A404B88E7
:103F80001A43174B984207D0164B984204D04FF66D
:103F9000FF431A40CB881A4302808B8883850B88A5
:103FA00003850A4B98420BD0094B984208D00E4B20
:103FB000984205D00D4B984202D00D4B984201D14A
:103FC0000B7A03860123838270470000002C014096
:103FD000003401400004004000080040000C004094
:103FE0000010004000140040004001400044014027
:103FF000004801404FF6FF71818000210180C1809F
:1040000041800172704700002DE9F0410546884665
:1040100013492846FCF7CCFB13D312492846FCF77A
:10402000D1FB0ED310480068FCF77BFB06464FF02F
:1040300033320E4BFCF788FB03D30D480078012880
:104040000AD1012400200B490880091D0880091DA0
:104050000880091D088000E000242046BDE8F081AA
:10406000000020C200002042D8000020333323404B
:104070002C000020343401402DE9F0470446154857
:104080000568002014490860144806683146204637
:10409000FCF714F982461249FCF742F9804629469A
:1040A0000D480068FCF70AF982460D49FCF738F91B
:1040B00081464146FCF7AAF807460A480168384697
:1040C000FCF7A4F80849086008460068FCF7FCFA09
:1040D000BDE8F087F00000200C010020F400002073
:1040E0000000C842280000201001002010B5002464
:1040F00040F22551054800F069F830B1034800F05E
:1041000021F9C4B2204600F003F810BD0038014088
:1041100010B5044600BF8021044800F04AF800288A
:10412000F9D02146014800F012F910BD00380140D5
:1041300010B540F22551084800F048F858B140F257
:104140002551054800F01AF8034800F0FBF8C4B206
:10415000204600F003F810BD0044004010B50446AE
:1041600000BF8021044800F024F80028F9D021463F
:10417000014800F0ECF810BD0044004010B50022EA
:10418000002340F66A14A14200D100BF0A120124A4
:104190009440A3B2DC43048010BD21B1828942F473
:1041A0000052828104E082894DF6FF731A408281B9
:1041B000704702460020B1F5007F00D100BF138890
:1041C0000B400BB1012000E00020704770B50246A3
:1041D000002400230025002040F66A16B14200D1D9
:1041E00000BFC1F3421501F01F03012606FA03F3D5
:1041F000012D02D19689334006E0022D02D1168AA4
:10420000334001E0968A33400C12012606FA04F48A
:104210001688344013B10CB1012000E0002070BDBD
:10422000F0B50346002400260025002040F66A175A
:10423000B94200D100BF1846C1F3421401F01F0675
:10424000012707FA06F5012C01D10C3004E0022CFD
:1042500001D1103000E014301AB107682F43076015
:1042600002E00768AF430760F0BD00002DE9F047AA
:1042700086B005460E460024A24600BFA146002790
:10428000B08900B100BF2F462C8A4CF6FF70044065
:10429000F08804432C82AC894EF6F3100440B088B9
:1042A00031890843718908430443AC81AC8A4FF6D5
:1042B000FF400440B0890443AC8201A8FEF7B8FC7B
:1042C0001F48874202D1DDF810A001E0DDF80CA004
:1042D000A88900F4004040B10AEBCA0000EB0A10C4
:1042E00031684900B0FBF1F807E00AEBCA0000EBC7
:1042F0000A1031688900B0FBF1F86420B8FBF0F0D7
:1043000004012009642101FB1089A88900F4004000
:1043100040B1322000EBC900B0FBF1F000F0070023
:10432000044308E0322000EB09106421B0FBF1F0F7
:1043300000F00F0004432C8106B0BDE8F0870000B8
:104340000038014001468888C0F308007047C1F377
:1043500008028280704700BFFEE700002DE9FC5F85
:1043600004468946414800684149086004EB090158
:104370004842FCF79BF93F4908603F480068FCF75A
:10438000D0F907463D4A3E4BFCF7AFF80546FCF72F
:10439000F3F93949086037480068FCF7C2F9074665
:1043A000384A394BFCF7A1F805460E4632480068FA
:1043B000FCF7B7F982462A463346FBF7EFFFCDE913
:1043C0000001FCF7D9F92C490860084601682F481C
:1043D0000068FBF71BFF2D490860254801682B4842
:1043E0000068FBF713FF294908602949274800683E
:1043F000FCF7E8F902D226482449086025492348F9
:104400000068FCF7D5F902D222482049086022480A
:1044100001681E480068FBF751FF07461F49FBF77C
:104420007FFF05461448006880F000481C4801687A
:104430004046FBF743FF07461849FBF771FF064666
:104440002946FBF735FF17490860174801681748E8
:104450000068FFF7D9FD012802D100200B49086050
:1044600010480068FCF730F9BDE8FC9F24000020EC
:1044700004010020FC00002000010020E17A14AEBD
:1044800047E1EA3F7B14AE47E17AC43F08010020D0
:104490000000FA450000FAC5EC0000200000C84208
:1044A000E8000020F8000020D800002004000020D0
:1044B0000FB4054B10B503A9044A029800F070F937
:1044C00010BC5DF814FB0000916300089800002008
:1044D0000FB4084B10B504A902AA039800F060F9C4
:1044E000044602A9002000F0DEFC204610BC5DF866
:1044F00014FB0000A74E0008490050EAC12018BF75
:1045000004204A0D18BF40F0010040F2FF72B2EBE8
:10451000515F08BF40F00200012808BF0520704726
:104520002DE9F0414F1E00EBC7010446D1E900011F
:1045300015461E4637F006020DD02A463346FBF7D5
:10454000D4FF7F1E04EBC703D3E90023FBF726FF4C
:1045500037F00602F1D1022F25D0042F13D0062FF9
:1045600018BFBDE8F0812A463346FBF7BEFFD4E909
:104570000A23FBF713FF2A463346FBF7B6FFD4E9BD
:104580000823FBF70BFF2A463346FBF7AEFFD4E9BF
:104590000623FBF703FF2A463346FBF7A6FFD4E9C1
:1045A0000423FBF7FBFE2A463346FBF79EFFD4E9C4
:1045B0000223FBF7F3FE2A463346FBF796FFD4E9C6
:1045C0000023BDE8F041FBF7E9BE0122FCF700BA89
:1045D000FBF7E4BE0022134610461146FBF7F7BF77
:1045E000024A00201107FCF7F3B9000001FDFFFFAC
:1045F00002E008C8121F08C1002AFAD170477047AC
:10460000002001E001C1121F002AFBD17047000009
:104610000149086070470000140200202DE9FF5F87
:1046200082B00021DDE90430020DDDF840B0034323
:1046300018D044F61050A2F2FF32424315141198DC
:1046400001281FD0A5EB0B00401C5FEA000A4FF0C9
:1046500000064E4FDFF83891B046504615D5CAF1E6
:10466000000413E0119801244AA3012801D16FEA44
:104670000B010298119AC0E90031C0E9024206B06C
:10468000BDE8F09FCBF10000DFE704460021404A7F
:10469000491842EB0450CDE9001012E0E00707D0C2
:1046A00032463B4640464946FBF71FFF8046894657
:1046B00032463B4610461946FBF717FF06460F46A3
:1046C0006410002CEAD1DDE90401DDE90023BAF130
:1046D000000F06DAFBF709FF42464B46FBF705FFE2
:1046E00005E0FBF774FF42464B46FBF770FF0446BC
:1046F0000E460022284BFCF79BF903D84FF0FF3001
:10470000014607E00022254B20463146FBF746FED6
:10471000FCF775F9102409E0002C0ADB0A220023BB
:10472000FCF770F8039B30321A55641E50EA010200
:10473000F2D1641C039AC4F111031444119A012AA2
:1047400003D0012208430DD10AE0084304D0002021
:104750004FF0110B119072E7A3EB0B056D1E0DE0EE
:104760005B4504DD4FF0000205F1010504E003DACA
:104770004FF00002A5F10105002AECD00298119932
:10478000C0E90231C0E9004579E7000000001440AB
:104790000000F03F300000000000F0430000E03F68
:1047A0002DE9FF4F95B09A46884606460025EEE172
:1047B000252877D100242746F94A0121039400E0F7
:1047C000044316F8013F203B01FA03F01042F7D1F1
:1047D00030782A2811D06FF02F033078A0F1300202
:1047E000092A16D8039A44F0020402EB820203EB72
:1047F00042021044761C0390EFE758F8042B039212
:10480000002A03DA504244F40054039044F00204B6
:10481000761C30782E2816D116F8010F44F00404C7
:104820002A280DD06FF02F023078A0F13003092B29
:1048300009D807EB870302EB4303C718761CF3E79D
:1048400058F8047B761C30786C280FD006DC4C2896
:1048500017D068280DD06A2814D104E0742810D02D
:104860007A280FD10DE044F400140AE044F48014D7
:1048700001E044F440147278824202D104F58014BD
:10488000761C761C307866280BD013DC582877D03D
:1048900009DC002875D04528F6D04628F4D04728F2
:1048A0001AD193E118E0632835D0642879D06528BF
:1048B00012D18BE1702873D008DC6728F1D0692809
:1048C0006FD06E280DD06F2806D1ACE073282CD0A5
:1048D000752874D0782853D05246179990476D1C8C
:1048E00054E1C4F30250022809D003280DD0D8F8AF
:1048F000001004280DD00D6008F1040846E1D8F836
:104900000010EA17C1E90052F6E7D8F800100D8050
:10491000F2E70D70F0E718F8041B8DF80010002086
:104920008DF80100EB46012003E058F804BB4FF07E
:10493000FF3061074FF0000102D40DE009F10101E1
:104940008946B9420FDA8145F8DB1BF809100029C6
:10495000F4D108E009F1010189468142FADB1BF834
:1049600009100029F6D103985346A0EB0907214608
:104970003846179A00F080FA284400EB090507E052
:1049800044E008E10DE01BF8010B524617999047EF
:10499000B9F10109F7D2534621463846179AF2E099
:1049A00039E00A21C4F302524FF0000B0091022AB1
:1049B00006D058F8040BC117032A09D00AE023E0F7
:1049C00008F1070020F00702F2E80201904605E036
:1049D00000B2C117042A01D140B2C117002906DA7A
:1049E0000A460021404261EB02012D2202E022052D
:1049F00004D52B228DF80420012203E0E20701D028
:104A00002022F7E7914657E00A2100E010214FF0FD
:104A1000000B00910BE010214FF0000B44F0040458
:104A20000827009103E008204FF0000B0090C4F32A
:104A30000252022A05D058F8040B0021032A08D09C
:104A400008E008F1070020F00702F2E802019046B2
:104A500003E080B2042A00D1C0B24FF0000922075F
:104A60002AD53278702A07D0DDF800C08CF0100CFF
:104A70005CEA0B0C05D00EE040228DF804200122E8
:104A800008E050EA010306D030238DF804308DF899
:104A9000052002229146009B83F0080353EA0B0392
:104AA0000AD150EA010201D1620705D530228DF802
:104AB00004204FF001097F1E3278582A04D039A211
:104AC0000C920CAA02920BE03BA2F9E75B46009A1B
:104AD000FBF798FE0C9B9B5C029A521E029213708D
:104AE00050EA0102F2D1029804A9081A00F1200B41
:104AF000600702D524F4803400E001275F4502DD21
:104B0000A7EB0B0000E0002000EB0B0100900398E6
:104B10004944401A0390E00306D453462146179AAD
:104B2000039800F0A9F90544002706E001A85246C1
:104B3000C05D179990476D1C7F1C4F45F6DBE00365
:104B40000CD553462146179A039800F095F9054471
:104B500004E030205246179990476D1C0099481E7A
:104B600000900029F5DC08E002980299524600788E
:104B7000491C0291179990476D1CBBF10001ABF1E4
:104B8000010BF1DC5BE100F065F90544761C30783F
:104B900000287FF40DAE19B02846BDE8F08F000064
:104BA0000928010030313233343536373839616203
:104BB00063646566000000003031323334353637C7
:104BC000383941424344454600000000600700D4A4
:104BD000062708F1070020F00700F0E802238046CE
:104BE00003F0004C5FEA0C0001D097A009E020051B
:104BF00001D596A005E0E00701D095A001E0AFF255
:104C00004C001390307823F0004365280CD006DC6C
:104C1000452809D046281DD047287FD13BE066288B
:104C200018D067287AD136E00021112F01DB11203E
:104C300000E0781CCDE9000104A90CA8FFF7EEFC08
:104C4000DDE90D010C9A4FF0000B07F101091092FC
:104C500000914EE04FF000400097CDE9011004A90B
:104C60000CA8FFF7DBFCDDE90D020C9B0F994FF060
:104C7000000B91461093009211B9791C00EB0109C9
:104C8000B7EB090003D4C0F1FF3B07F10109A9EB21
:104C90000700019042E0012F00DA01270021112FC7
:104CA00001DD112000E03846CDE9000104A90CA87F
:104CB000FFF7B4FCDDE90D010C9A00914FF0000BF9
:104CC000B946109221070FD4009A4A4503DA91465B
:104CD00001E0A9F10109B9F1010F05DD109AA9F16F
:104CE0000101515C3029F4D0B84202DA10F1040F0E
:104CF00003DA0121CDE9011010E0002803DC834430
:104D0000A9EB000102E0411C494500DD8946A0EB0A
:104D10000B00401C01904FF000400290200705D48A
:104D20000198484502DB4FF0FF30019000208DF8DC
:104D30004B0002980DF14B07B0F1004F25D0022037
:104D40000C902B200D90029800280CDA4042029023
:104D50002D200D9007E00A210298FBF73DFD303130
:104D6000029007F8011D0C99481E0C900029F2DCF6
:104D700002980028EFD1791E0D980870307800F065
:104D8000200040F0450007F8020D11A8C01BC01D0F
:104D900002901398007800B1012000EB09010198FE
:104DA00001EBE071029801440398401A401E039001
:104DB000E00306D453462146179A039800F05CF8A6
:104DC00005441398007818B15246179990476D1C06
:104DD000E00323D553462146179A039800F04CF878
:104DE00005441BE0BBF1000F07DB0098584504DDCC
:104DF0001098179910F80B0001E0179930205246CF
:104E0000904701980BF1010B401E05F1010501903F
:104E100004D12E205246179990476D1CB9F100011C
:104E2000A9F10109DEDC05E017F8010B52461799DC
:104E300090476D1C0299481E02900029F4DC5346ED
:104E40002146179A03989EE62D0000002B000000D3
:104E5000200000002DE9F041044600251E461746BB
:104E6000880404D405E039462020B0476D1C641E38
:104E7000F9D52846BDE8F0812DE9F041044600252A
:104E80001E469046C80301D5302700E0202788043D
:104E900004D505E041463846B0476D1C641EF9D57F
:104EA0002846BDE8F0810A68531C0B6010707047FB
:104EB0002DE9FE4F06460F460025684601F076FABA
:104EC000002442E056F8240057F82410A0EB010A11
:104ED000BAF1000F01DB514601E0CAF100010846BA
:104EE000FBF7E4FB83464FF08F41FBF719FA80464E
:104EF0005DF824000021FBF75BFC16D05DF8241060
:104F00004046FBF70DFA82464FF07E51FBF7D0F991
:104F1000814629F0004A0F48416A5046FBF752FC8F
:104F200012D20120A04005430EE00A48C169404664
:104F3000FBF73EFC05D30748016A4046FBF742FCFD
:104F400002D20120A0400543641C032CBADB284692
:104F5000BDE8FE8FE4A700082DE9F04D8D4F21F04C
:104F6000004A86B005460C46BA452ADBAAEB070084
:104F700028430AD08848824501DC1AD1CDB106B059
:104F80002846BDE8F04DFFF720BB844A844B2846F5
:104F9000FBF7ABFA07460E46824A834B284621466A
:104FA000FBF7A3FA06B03A463346BDE8F04DFBF7EF
:104FB000F5B90120FFF72CFB06B0BDE8F04DFFF777
:104FC00009BB7A48824542DABAF1795F0BDA2846A2
:104FD000FFF792FA042808BFFFF702FB284606B045
:104FE0002146BDE8F08D2A460B461046FBF77DFAB8
:104FF000834602466E480E460B4606217844FFF76C
:105000008FFA5A463346FBF770FA804669488A465B
:105010005A46334604217844FFF782FA5A4633460B
:10502000FBF763FA00223B46FBF7B8F902460B4652
:1050300040465146FBF7CBFA2A462346FBF755FA82
:1050400006B02A462346BDE8F04DFBF7A7B928462F
:1050500024F0004100223D463B46FBF743FA4FF067
:10506000FF32FBF7B5FC0646024653480F460B4697
:1050700006217844FFF754FA32463B46FBF735FAEF
:10508000CDE900014D4832463B4604217844FFF704
:1050900047FA32463B46FBF728FA00222B46FBF73D
:1050A0007DF9834602913046394602F0CDFE8046B6
:1050B00043480D46504517DCDDE900015A46029B86
:1050C000FBF785FA42462B46FBF70FFA42462B4682
:1050D000FBF764F90122FBF77BFC304A304BFBF70E
:1050E000FEF9304A304B4CE04FF0000A52460B4676
:1050F0004046FBF753F9CDE9031052462B461046C4
:105100001946FBF7F2F932463B46FBF7EBF9DDE9CE
:105110000332FBF75CFA06460F46DDE900015A460A
:10512000029BFBF754FA8346009101223046394630
:10513000FBF74EFC194A1A4BFBF7D4F906460F460B
:10514000012240462946FBF743FC5A46009BFBF7E9
:10515000CCF932463B46FBF7C2F906460F46012220
:1051600050462946FBF734FC0E4DDFF858802A469E
:105170004346FBF7B7F932463B46FBF7B3F92A46FD
:105180004346FBF7AFF9002CD8BF81F0004106B0D1
:10519000BDE8F08D0000F03F0000F07F075C1433A5
:1051A00026A6913C182D4454FB21F93F0000E03F16
:1051B000C0640000D66400004A640000606400001F
:1051C0003333EF3FFB21E93F2DE9F84F04460D460D
:1051D00021F0004000917349814211DC72498842FC
:1051E00001DC06D12CB120462946BDE8F84FFFF777
:1051F000ECB96E48002DCCBF6D496E49BDE8F88F03
:105200006D49814211DD6D498142D8BF4FF0FF36B3
:105210006DDD20462946FFF76FF9042808BFFFF728
:10522000DFF920462946BDE8F88F6549654F25F02E
:105230000045814233DD6449814219DD0026324652
:105240004FF0804320462946FBF7A8F880468A465F
:10525000012220462946FBF7BBFB00223B46FBF719
:105260003EF942465346FBF7B2F904460D463EE08E
:1052700001260022BA463B4620462946FBF78EF817
:1052800080460F460022534620462946FBF727F961
:1052900042463B46FBF79BF904460D4627E04B4947
:1052A00081421BDDDFF828A102260022534620465A
:1052B0002946FBF71AF900223B46FBF76FF88046B8
:1052C0000F460022534620462946FBF708F942467E
:1052D0003B46FBF77CF904460D4608E003262246D0
:1052E0002B4600203B49FBF772F904460D46224647
:1052F0002B4610461946FBF7F8F88B4682460246C5
:105300000B46FBF7F2F807460246334888460B4641
:1053100006217844FFF704F952465B46FBF7E5F8AF
:1053200082462E488B463A46434605217844FFF78D
:10533000F7F83A464346FBF7D8F802460B46002EEC
:10534000504659460CDAFBF729F822462B46FBF764
:10535000CCF801B022462B46BDE8F04FFBF7C2B8AF
:10536000FBF71CF822462B46FBF7BFF81C4A7A4491
:1053700002EBC603D3E90023FBF7B1F822462B4624
:10538000FBF7ADF8174A7A4402EBC603D3E90023D2
:10539000FBF7A8F8009A002AB8BF81F00041BDE8E9
:1053A000F88F0000000010440000F07F182D4454D6
:1053B000FB21F93FFB21F9BF0000DC3F0000203E4C
:1053C0000000F33F0000F03F0000E63F0080034094
:1053D0000000F83F0000F0BF6262000020620000A1
:1053E000BE610000866100002DE9F04D9446CCF1CD
:1053F000000423F000464CEA0404594F46EAD474F2
:105400009A46884621F00042BC4206D8454240EA0E
:10541000050442EAD474BC4204D9BDE8F04D6246AA
:10542000FFF7D6B8AAF14055A5F17F6555EA0C04FF
:105430000BD0022404EAAA744A4DDFF82CE144EAB6
:10544000D87452EA000B04D00CE0BDE8F04DFFF731
:10545000BBBE002C14BF012CBDE8F08D022C30D057
:10546000032C32D056EA0C0B0AD0BE4220D1BA42ED
:1054700009D126F0804622F080423346114617E0DB
:1054800000291ADB25E0DFF8E4B0FB44002C04BF60
:10549000DBE90001BDE8F08D012C02BFDBE9000172
:1054A00081F00041BDE8F08D022C0AD0032C0CD015
:1054B000BA4212D1B8F1000F0BDA2A482C49BDE8E4
:1054C000F08D28462B49BDE8F08D28467146BDE891
:1054D000F08D24482849BDE8F08D921B12153C2A16
:1054E000C4BF204F244E10DCBAF1000FBEBF12F132
:1054F0003C0F00273E4608DB6246FBF768F821F0C8
:105500000041FFF761FE07460E4694B1012C08BF2B
:1055100086F000460DD0194A194B022C3846314608
:1055200015D0FAF7DCFF2A46BDE8F04D114BFAF72B
:10553000D6BF0022134638463146FBF705F904BFB3
:105540000220FFF765F838463146BDE8F08DFAF7DE
:10555000C6FF2A46BDE8F04D064BFAF7C3BF000070
:105560000000F07F182D4454FB2109C01A6100008F
:10557000FB21F9BFFB210940FB21F93F075C1433F4
:1055800026A6A13C10B54FF4A060FDF7E7F800F0A7
:10559000B9F80220FCF79CFC0120FCF799FC01F013
:1055A000A5FA01F087FAFCF763FFFDF731F8002157
:1055B0004FF43460FDF742F8FBF7E6FEFBF732FFED
:1055C0004FF4E13002F07EFC4FF4967000F0C0F82A
:1055D000FCF7BEFAFCF7CCFFFBF702FDFDF700F984
:1055E000FBF756FC47214FF6FF70FEF723F8FEF756
:1055F00039F910BD2348008858B923480088B0F510
:10560000967F3DDD00202049088001201D4908804B
:1056100036E01D480088142832DD00201A49088031
:105620001A48007840B91A48006808B9012000E01B
:105630000020174908600BE01648006808B90120EF
:1056400000E000201349086001201349C1F88C01D3
:1056500012480088401C1149088008460088062826
:105660000ED10A48007818B900200949086002E004
:105670000020084908600020084908800149088086
:1056800070470000C4000020C8000020CA000020AD
:105690008C812142AC01214200802142C6000020C1
:1056A0002DE9F0410446E07800F0C006E07800F013
:1056B0003F05607800F0010098B1EF102846E91727
:1056C00005EB5171C910A5EBC101491C01F0FF08A0
:1056D0000B48006820B10A484146026838469047A6
:1056E00000BF607800F0080030B10548406818B18C
:1056F000B011034A516888470020BDE8F0810000DE
:105700002C04002010B50E4800680E49B0FBF1F0E3
:10571000C4B26FF00400FDF727FEE11704EB5171EE
:10572000C910094A11701046007800EB4001C1EB26
:10573000C0104FF6FF7101EAC0000449088010BD97
:105740003000002040420F00580000205A00002086
:1057500001460D4A12884A434FF0E0235A61002265
:105760009A6101221A6100BF4FF0E022106900F037
:1057700001021AB100F48032002AF5D000224FF065
:10578000E0231A619A6170475A000020034908809B
:1057900000BF024909880029FBD17047C2000020E0
:1057A00001460D4A12784A434FF0E0235A61002225
:1057B0009A6101221A6100BF4FF0E022106900F0E7
:1057C00001021AB100F48032002AF5D000224FF015
:1057D000E0231A619A6170475800002038B50446EA
:1057E00064B120208DF8000028208DF801003020C1
:1057F0008DF8020038208DF8030004E0A322042174
:105800006846FAF7E4FC6A46042140F69E2002F05E
:10581000B3F901F0A3FD38BD3EB5044602208DF872
:105820000000CA208DF80100E3208DF80200092055
:105830008DF803006A460421682002F09DF9A32038
:105840008DF8000004F0400048B1C0208DF8010040
:10585000C8208DF80200C2208DF8030006E0A320C6
:105860008DF801008DF802008DF8030004F4C0707B
:1058700048B1C4208DF80400CC208DF80500C62066
:105880008DF8060006E0A3208DF804008DF80500D1
:105890008DF80600A3208DF807008DF808008DF81C
:1058A00009006A460A2140F6A72002F065F904F0D3
:1058B000030018B120208DF8000002E0D8208DF8F8
:1058C00000006A46012140F6B62002F055F904F0C6
:1058D000200018B1012000F0ADF802E0002000F037
:1058E000A9F804F4C07008B304F4807060B1B22069
:1058F0008DF800008B208DF80100B6208DF8020095
:105900009B208DF803000BE0B0208DF80000802074
:105910008DF80100B4208DF8020090208DF803006E
:105920006A46042140F6A22002F026F904F00100A4
:1059300020B3F8208DF800006A4601214FF40B6077
:1059400002F01AF9FA21072000F02CFC072000F0E1
:10595000F3FB012000F013FC642000F0F3FC4FF493
:10596000FA7000F002FDC821304800F0A3FB2820A7
:1059700000F0BCFB0A2000F0CCFB08E0D8208DF83A
:1059800000006A4601214FF40B6002F0F5F804F0C4
:10599000020018B1D9208DF8000002E0D8208DF85F
:1059A00000006A46012140F23D7002F0E5F804F083
:1059B000040018B1012000F069F802E0002000F0B6
:1059C00065F804F0100018B10120FFF707FF02E0AE
:1059D0000020FFF703FF44F008001549488101F05B
:1059E000BDFC00201249887304F0400018B108463D
:1059F000807B801D887304F4C07020B10C48807BCC
:105A0000801D0B49887304F0140020B10848807B86
:105A100010300749887304F0030020B10448807BEC
:105A2000001D0349887300203EBD000009E3CA023F
:105A30002C0400203EB504466CB10EA1D1E9002033
:105A40008968CDE9002002916A4609214FF49760E8
:105A500002F092F83EBD0AA2D2E900109268CDE9A8
:105A6000010200916A4609214FF4976002F084F820
:105A7000F0E70000B8AAB38DB4980D355D000000C2
:105A8000B8AAAAAAB088C3C5C700000038B50446A2
:105A900064B1C0208DF80000C2208DF80100C42040
:105AA0008DF80200C6208DF8030004E08B2204214B
:105AB0006846FAF78CFB6A46042140F6982002F00B
:105AC0005BF801F04BFC38BD10B5C8234FF4806281
:105AD000024940F6F63001F0D5FA10BD0CA80008D6
