:020000040800F2
:100000006833002049010008C5430008C9370008CB
:1000100065430008FD1B0008297D00080000000062
:10002000000000000000000000000000B9640008AB
:10003000A128000800000000A54E00087169000812
:100040006301000863010008630100086301000800
:1000500063010008630100086301000863010008F0
:1000600063010008630100086301000863010008E0
:1000700063010008630100086301000863010008D0
:1000800063010008630100086301000863010008C0
:1000900063010008630100086301000863010008B0
:1000A00063010008630100086301000863010008A0
:1000B000296C0008956C0008A96C00086301000811
:1000C0006301000863010008630100086301000880
:1000D00063010008417900088D790008997A0008C9
:1000E0004929000863010008630100086301000852
:1000F0006301000863010008630100086301000850
:10010000630100086301000863010008630100083F
:100110006301000869780008BD6C000863010008ED
:10012000630100086301000863010008630100081F
:10013000DFF810D001F0CAF80048004781A7000896
:10014000AFF3008068330020064880470648004728
:10015000FEE7FEE7FEE7FEE7FEE7FEE7FEE7FEE777
:10016000FEE7FEE775690008310100082DE9F0415E
:100170000024061B254671F1000605DA012400273C
:10018000D0EB070067EB0101161E73F1000605DADC
:100190000027D2EB0702012567EB030300F0ECFE1A
:1001A00086460E4617469C46AC4204D00025D0EB4E
:1001B000050E65EB010624B10020D2EB000760EBD1
:1001C000030C704631463A466346BDE8F08140EA8A
:1001D00001039B0703D009E008C9121F08C0042AC5
:1001E000FAD203E011F8013B00F8013B521EF9D2AC
:1001F0007047D2B201E000F8012B491EFBD27047D4
:100200000022F6E710B513460A4604461946FFF7E2
:10021000F0FF204610BD421E12F8013F002BFBD11B
:1002200011F8013B02F8013B002BF9D1704730B5C2
:1002300005462A460B4612F8010B13F8014B08B18C
:10024000A042F8D01CB1002802D06D1CF1E728466E
:1002500030BD421C10F8011B0029FBD1801A7047E9
:1002600010B5002200E0521C835C8C5CA34201D1DB
:10027000002BF8D1D8B2E1B2401A10BD30B5044617
:100280000020034600E05B1C934203D2E05CCD5C9F
:10029000401BF8D030BD00000FB400B58DB010A9E0
:1002A00009900B9000914FF0FF300A9000200C90C5
:1002B00005480690054807906A4609A80F9900F07E
:1002C000D1FE0DB05DF814FB811000089F100008EE
:1002D0002DE9FF5F1D464FF0FF3BD5E901469146F2
:1002E0005F464FF00008A9697F1C01988847296A7A
:1002F000824688470028F6D1BAF1FF3F0CD024F49B
:10030000C064002E19DD600614D5BAF12B0F09D098
:10031000BAF12D0F0ED103E0584604B0BDE8F09FAE
:1003200044F48064A9697F1C01988847761E824640
:10033000002E02DDBAF1300F03D0B9F1000F26D044
:1003400032E0A969761E44F400747F1C0198884746
:100350008246002E05DDBAF1780F06D0BAF1580FAB
:1003600003D0B9F1000F10D01EE0B9F1000F02D098
:10037000B9F1100F18D1A969761E24F400747F1CFE
:10038000019888478246102002E0082000E00A20F9
:10039000814609E008FB0908A969761E44F4007447
:1003A0007F1C019888478246002E05DD494650464D
:1003B00000F044FE0028EDDAE96901988847A005BD
:1003C00002D46FF00100A8E7E00725D1600613D53D
:1003D000600502D5C8F1000000E0404629680A1D0A
:1003E0002A600968220501D5087015E0220701D5A9
:1003F000088011E008600FE02868011D296000688E
:10040000210502D580F8008006E0210702D5A0F87A
:10041000008001E0C0F8008038467EE72DE9FF5FEC
:10042000D2E901A74FF00008916999461446DDF81A
:1004300038B0464601988847054659EA0B0005D072
:1004400009E0A169761C019888470546216A28467B
:1004500088470028F5D1681C03D05FEACA7005D030
:1004600015E04FF0FF3004B0BDE8F09F2068011D9B
:100470002160D0F800800AE05FEACA7001D108F874
:10048000015BA169761C7F1E019888470546002FF5
:100490001ADD681C18D0B9F1000F0DD0E81705EB74
:1004A000D060421120F01F0059F822102A1A0120B2
:1004B00090400142E0D107E0BBF1000FDCD1216A9E
:1004C000284688470028D7D0E16901988847BBF1C2
:1004D000000F07D1002E05DD5FEACA7002D10021AE
:1004E00088F80010A068B84203DDBBF1000F03D00C
:1004F00017B16FF00100B6E73046B4E72DE9FF4FC2
:10050000087883B09946FF2805D0491C2D2804D0CF
:100510000024002008E000200BE00124F9E700EBB4
:10052000800003EB4000491C0B78FF2BF7D104B18E
:10053000404200230293147819461D462D2C01D009
:100540002B2C04D1521C2D2C13D000240294AA462B
:100550001478FF2C0FD00A25A3FB057801FB058139
:100560004FF0000C03FB0C11521CE3194AEB010184
:10057000EEE70124EAE7814453EA010002D019F5CD
:10058000C87F06DA03980021C0E9001107B0BDE872
:10059000F08F0025AE4E2F46DFF8B882184600F0E7
:1005A00071FECDE90001B9F1000002DAC9F10004E1
:1005B00000E004460023A74A1AEB030B42EB045A5F
:1005C00012E0E00707D02A4633463846414600F09D
:1005D000C0FA074688462A4633461046194600F0B8
:1005E000B8FA05460E466410002CEAD1DDE9000198
:1005F000B9F1000F5A46534606DA00F01CFB3A46A2
:10060000434600F018FB05E000F0A3FA3A464346E3
:1006100000F09FFA029A0AB181F00041039AC2E900
:100620000001B3E72DE9FF4F1F468DB0D7E9014622
:100630004FF0FF382E2045464FF000090B90B96966
:100640006D1C0E988847396A824688470028F6D183
:10065000BAF1FF3F0AD024F4D064002E11DDBAF1C4
:100660002B0F08D0BAF12D0F0BD102E0404611B08C
:100670008DE744F48064B9696D1C0E988847824602
:10068000761E6946600501D52D2000E02B208DF8EF
:10069000000001F1010B0DF1200809E0B9696D1CA2
:1006A0000E98884782460F9844F40074761E0560C1
:1006B000002E02DDBAF1300FF0D00B998A453ED101
:1006C00044F0800406E00F99681CA9F1010944F484
:1006D00000740860B9696D1C761E0E9888478246C2
:1006E0003028F0D02BE00B998A4505D1200603D4A1
:1006F00044F08004761E18E0504607F03BFD08B336
:100700000DF11301761E44F400748B4508D2AAF152
:1007100030000BF8010B200607D5A9F1010003E01A
:10072000200602D409F101008146A00502D50F99E7
:10073000681C0860B9696D1C0E9888478246002EB7
:10074000D1DC53E0002E51DDBAF1650F02D0BAF1D1
:10075000450F4BD1A00549D5B9696D1C24F44074EF
:10076000761E0E9888478246002E0CDD2B2804D07A
:10077000BAF12D0F07D144F48074B9696D1C0E983D
:1007800088478246761EE00501D52D2100E02B2109
:1007900008F8011BCDF82C8021E00DF12901761E0F
:1007A00044F4007488450CD2AAF1300010F0FF0028
:1007B00088F8000002D10B99884509D908F1010891
:1007C00006E0E00501D5244801E042F20F708146C1
:1007D000B9696D1C0E98884782460F980560002EF7
:1007E00004DD504607F0C6FC0028D6D1F9690E9802
:1007F0008847FF208BF8000088F800000020069052
:1008000007904B466A4608A906A8FFF777FEA005A1
:1008100002D46FF001002AE714F0240F0AD0E00799
:1008200014D1DDE906123868031D3B600068C0E999
:1008300000120BE0DDE9060100F058FB0146E0077D
:1008400004D13868021D3A600068016028460EE74E
:10085000000014400000F03FF1D8FFFFF0B480EA40
:100860000102D40F4200B2EB410F02D20246084609
:1008700011464A0042D0C30DDDB2C1F3C752AD1AD2
:10088000202D35DAC1F3160141F4000204B15242C1
:10089000C5F1200602FA06F12A411044B3EBD05FFD
:1008A00023D0C4B1012DA0EBC35009DCF0BC4FF044
:1008B000004202EAC352DBB200F5000000F057BC70
:1008C000400000F1807000EBC350A0F1807040EA5E
:1008D000D170490009E0490841EAC071A0EBC3505A
:1008E00000F50000400800EBC350F0BC00F036BC3F
:1008F0006142012202EB4101001BF6E7F0BC7047A8
:1009000081F00041AAE780F00040A7E780EA0102F9
:1009100010B502F00043400022D04A001FD0010E63
:1009200001EB1261C0F35600C2F3560240F400001E
:1009300042F40002A0FB022000047F39140400D01E
:10094000401C50EA124001D44000491EC2B20C06BD
:1009500004EBD010401C4008802A02D003E00020A5
:1009600010BD20F00100002900DA0020184310BD5E
:1009700030B480EA010202F0004530F0004221F07C
:10098000004013D090B1C30DD40DC2F31601C0F3D3
:100990001600E41A41F4000140F400027D34914253
:1009A00001D3641C00E04900002C02DA30BC0020B6
:1009B00070474FF400000023914201D3891A03438A
:1009C00040084FEA4101F7D151B1914202D14FF0B5
:1009D000004105E002D24FF0010101E06FF001019A
:1009E00003EBC450284430BC00F0B8BB420005D033
:1009F000C0F3C7525242914201DC0020704700EB25
:100A0000C15070472DE9FE4F804681EA0300C00FB8
:100A10000C46009021F0004123F00045B8EB0200A5
:100A2000A94105D24046214690461C460B46024647
:100A300023F00040104347D0270DC7F30A00C3F34B
:100A40000A510290401A019040286BDAC3F3130058
:100A500040F4801B0098924620B10023D2EB030A99
:100A600063EB0B0B01985946C0F14002504600F071
:100A7000B4FA06460D4650465946019A00F0CCFAA3
:100A800010EB08006141002487EA115284EAE77301
:100A90001A4340D0009A62B3019A012A4FEA0752E2
:100AA00015DC001B61EB02014FF0004202EA075225
:100AB000CDE90042001C41F5801132462B4600F082
:100AC00093FB03B0BDE8F08F40462146F9E7001BD9
:100AD00061EB0201001C41F5801300185B412018F6
:100AE000A2F5001747EB030140EAD570B6196D4136
:100AF00011E06D084FEA360645EAC0754FEA075225
:100B0000001B61EB0201001C41F5801149084FEA0E
:100B100030000019514132462B4603B0BDE8F04F7A
:100B200000F053BB0098012240000023D0EB0202EA
:100B300063EBE073009821464FEAE074B8EB0000E5
:100B400061EB0401E9E783F000435BE781F00041DA
:100B500058E72DE9FE4F81EA030404F0004421F038
:100B6000004100944FF0000B23F0004350EA0104D1
:100B70005ED052EA03045BD0C3F30A54C1F30A55B2
:100B80002C44A4F2F3340194A0FB0254C1F31301EA
:100B900041F48011C3F3130343F4801301FB0244B7
:100BA00000FB034E840A970A44EA815447EA8357BC
:100BB000A4FB076802958D0A05FB07854FEA932C75
:100BC00004FB0C542705029D4FEA065847EA1637E6
:100BD000B5EB08056EEB070C870E920E47EA8117FE
:100BE00042EA8312A7FB0201B6EB0B0164EB00049F
:100BF0002B0D43EA0C335E1844EB1C50DA46514689
:100C0000E7FB0201C5F313044FEA0B3343EA145325
:100C10004FEA0432019C43EA0603A4F10C04029457
:100C2000009CCDE900B400F0DFFA03B0BDE8F08F1E
:100C300000200146F9E72DE9F04D81EA030404F0B4
:100C4000004B21F0004514464FF0000A23F000410C
:100C500050EA050220D054EA01021DD0C5F30A571C
:100C60000246C5F31303C1F31300C1F30A5640F45F
:100C7000801543F48013A7EB0608101BD64608F234
:100C8000FD3873EB050002D308F1010801E092186A
:100C90005B41B8F1000F03DA00200146BDE8F08D9A
:100CA00000204FF48011064684460EE0171B73EBBC
:100CB000050705D3121B63EB050306434CEA010C41
:100CC00049084FEA300092185B4150EA0107EDD124
:100CD00052EA030012D082EA040083EA05010843C5
:100CE00005D0101BAB4106D20122002306E00022F2
:100CF0004FF0004302E06FF0010253101AEB0600C0
:100D00004CEB085110EB0A0041EB0B01BDE8F04D34
:100D100000F05BBA70B521F0004303430CD0C1F37F
:100D20000A550024D5EB040564EB0403D617AD1A6D
:100D3000B34102DB0020014670BD201841EB025197
:100D400070BDC10F80EAE0700844CA0796230021F5
:100D500000F00DBA96230022114600F008BA0EB535
:100D6000C10F80EAE0700844CA07002140F2334313
:100D70008DE80E000A460B4600F036FA03B000BDBF
:100D80000EB540F2334102910021CDE900110A462F
:100D90000B4600F029FA03B000BD00F0004220F03D
:100DA0000040C10DC0F3160040F400007F2901DAB5
:100DB00000207047962903DCC1F19601C84001E08C
:100DC00096398840002AF4D04042704720F0004015
:100DD000C10DC0F3160040F400007F2901DA0020A5
:100DE0007047962903DCC1F19601C84070479639D7
:100DF0008840704770B5C1F30A5201F000450024E5
:100E0000C1F3130140F2FF3341F480119A4201DA39
:100E1000002070BD40F233439A42A2F2334203DC19
:100E2000524200F0E9F800E090402C43F1D04042FB
:100E300070BDC1F30A5210B5C1F3130140F2FF3384
:100E400041F480119A4201DA002010BD40F2334390
:100E50009A42A2F2334203DC524200F0CDF810BDB8
:100E6000904010BD00F0004230F000400AD0C10DAB
:100E700001F56071C0F3160042EA0151C208400753
:100E800011437047002001467047000030B5041E32
:100E900071F1000404DB4FF00044404264EB0101B7
:100EA000141E73F1000405DB1C464FF00043524250
:100EB00063EB04038B4208BF824230BD30B5041E91
:100EC00071F1000404DB4FF00044404264EB010187
:100ED000141E73F1000405DB1C464FF00043524220
:100EE00063EB0403994208BF904230BD01F0004318
:100EF00030B421F0004150EA010206D00A0DA2F5FB
:100F00006072C1F31301002A02DC30BC002070477C
:100F1000440F44EAC104C100E01830BC00EBC250E9
:100F200000F01CB9002801DBC0F10040002901DB02
:100F3000C1F1004181427047002801DBC0F100404F
:100F4000002901DBC1F100418842704730B50B46F2
:100F5000014600202022012409E021FA02F59D42E9
:100F600005D303FA02F5491B04FA02F52844151EBD
:100F7000A2F10102F1DC30BD2DE9F05F0546002051
:100F800092469B4688460646814640241BE02846FA
:100F900041464746224600F02FF853465A46C01AAB
:100FA000914110D311461846224600F016F82D1A2A
:100FB00067EB01084F4622460120002100F00DF8A2
:100FC00017EB00094E41201EA4F10104DFDC484666
:100FD00031462A464346BDE8F09F202A04DB203AEA
:100FE00000FA02F1002070479140C2F1200320FA7C
:100FF00003F3194390407047202A04DB203A21FA7A
:1010000002F00021704721FA02F3D040C2F1200221
:101010009140084319467047202A06DBCB17203A37
:1010200041FA02F043EAE07306E041FA02F3D040ED
:10103000C2F1200291400843194670473A2800D275
:10104000303820F02002412A01D3A2F13700884233
:1010500001D34FF0FF3070470268114413780160EC
:1010600018467047D160044951610449116200215A
:101070001161114600F042B959100008F112000840
:10108000426842B1016811F8013B23B1521EC0E928
:101090000012184670470121C160881E70474268DF
:1010A0005AB1C368016843B983688B4205D0491EB1
:1010B000521CC0E90012002070474FF0FF3070470B
:1010C0000FB4002300B589B00CA900910B996FF003
:1010D0000042CB601E4B06931E4B07930423CDE9C1
:1010E00001321D4A089202466B460020FFF79AFA29
:1010F00009B05DF814FB70B586B006464FF0FF30BE
:101100000091CDE90101002015460C4604903246BD
:10111000694604A8FFF7D4FF02460498211825B1B8
:1011200008B1084600E020462860049800280DD049
:10113000002A02DD0098884208D0081B0094CDE9FF
:1011400001043246694604A8FFF7BAFF06B070BD35
:10115000811000089F100008F11200080029A8BFA4
:101160007047401C490008BF20F00100704710B4D0
:10117000B0FA80FC00FA0CF050EA010404BF10BC85
:10118000704749B1CCF1200421FA04F411FA0CF1B2
:1011900018BF012121430843A3EB0C01CB1D4FEAEB
:1011A00000614FEA102042BF002010BC704700EBE6
:1011B000C35010440029A4BF10BC7047401C490014
:1011C00008BF20F0010010BC704710B5141E73F169
:1011D000000408DA401C41F1000192185B411A43F7
:1011E00001D120F0010010BD2DE9F04D92469B4643
:1011F00011B1B1FA81F202E0B0FA80F220329046E9
:10120000FFF7EBFE04460F4640EA0A0041EA0B01F5
:1012100053465A46084313D0114653EA010019D0E9
:10122000C8F140025046FFF7E7FE05460E4650461D
:1012300059464246FFF7D1FE084305D0012004E09D
:1012400020463946BDE8F08D0020054346EAE076A9
:101250002C4337430A986305E40AA0EB08000022F8
:10126000FD0A44EA47540A3002D500200146E9E766
:10127000010510196941DDE9084500196941BDE81A
:10128000F04DA2E70EB540F2334202920022CDE9C2
:1012900000221346FFF7A8FF03B000BDC1F30A52B6
:1012A000C1F3130140F2FF3341F480119A4202DA94
:1012B00000200146704740F233439A42A2F2334283
:1012C00002DC5242FFF798BEFFF787BE064C074D7F
:1012D00006E0E06840F0010394E807009847103406
:1012E000AC42F6D3FEF728FF90D90008B0D9000829
:1012F000C0B24FF4F05100F0EBB900002DE9F34F0C
:101300008BB04FF0000801F10C000C464FF0010BC0
:1013100046460DF1080A0190626901210198904743
:10132000051E2DD0252D2CD0216A8847C0B16269B9
:10133000012101989047216A88470028F7D1411E72
:1013400062690198904700E0761CA1690B98884774
:10135000216A88470028F7D1E1690B988847DBE7C5
:10136000A1690B9888470746A84201D1761CD3E7AC
:10137000E1690B9888477F1C02D1B8F1000F6FD04C
:1013800047E1002762693D463946019890472A287F
:1013900004D162690121019890470125DFF8889204
:1013A0006269012101989047A0F130010A290AD20F
:1013B0004F45E5DC07EB870100EB4107303FDFD409
:1013C00045F01005ECE7E90601D46FF000476C2802
:1013D0000AD04C2814D0682815D06A280DD074285B
:1013E0001CD07A281AD01DE062690121019890472B
:1013F0006C2802D045F0040514E045F002050DE02C
:1014000045F020050AE062690121019890476828AB
:1014100002D045F0080505E045F400656269012148
:1014200001989047C4E9015765283DD019DC582838
:101430007AD00CDC452837D004DC252826D041287A
:1014400031D131E046282FD047282CD12CE05B2821
:1014500077D0612828D063287CD0642823D15AE033
:10146000D1E06F2848D008DC66281DD067281BD043
:10147000692821D06E2816D127E0702845D073281E
:1014800068D0752847D078280DD14DE0A1690B9818
:101490008847054625283FF469AFE1690B988847DE
:1014A0006D1C3FF46AAFB4E023466A466FF001005A
:1014B0000B99FFF7B7F89FE045F040006060A80780
:1014C00023464FF0000236D43EE0E8077FF447AFF2
:1014D0002068011D21600068290501D506701BE701
:1014E000290701D5068017E7A90703D5F117C0E939
:1014F000006111E706600FE745F040006060A80753
:1015000023464FF0080216D41EE040F60E0125EAED
:101510000100606016E045F040006060A8072346C7
:101520004FF00A0207D40FE045F040006060A807C2
:1015300008D5234610226FF001000B99AFF300800D
:101540005AE007E0234610226FF001000B99FEF7E6
:10155000BFFE51E04FF000094F464B46632802D0D2
:101560005B2807D041E02079C00601D40120A060AB
:1015700001273AE062690121019890475E2805D170
:101580004FF001096269494601989047216939B9CC
:1015900000210A46534643F82120491C0829FADB5A
:1015A000B0B3216969B9C11700EBD16253110AEBDD
:1015B000830122F01F02821A01200B68904003432E
:1015C0000B6062690121019890475D28E8D1B9F16B
:1015D000000F09D00020514651F82020D24341F895
:1015E0002020401C0828F7DB02AB224600976FF052
:1015F00001000B99FEF712FF00280CDA401C08D1FD
:10160000BBF1000F05D04FF0FF300DB0BDE8F08FFB
:10161000FFE74046F9E7E90701D108F10108064470
:101620004FF0000B78E60000CCCCCC0C2DE9F04D4F
:1016300000231A461B1A8A4103DB00200146BDE83D
:10164000F08DC1F30A52C1F3130141F480154FF03C
:10165000000BD10702D100186D41521E002704462D
:1016600040F2FF11384601EB620A3E4680460246D0
:1016700000204FF48011FFF7BFFCC2197141BB1865
:1016800046EB0100B4EB030C75EB000C04D3E41A39
:1016900065EB000517460E46241908F101006D415F
:1016A00080463428E3DDF91946EB0600091BA84102
:1016B00003D24FF0FF32134601E0002213461BEB2A
:1016C000070046EB0A51BDE8F04DFFF77EBD000074
:1016D0007F2801D9002208E0064A02EB5002C00729
:1016E000127800D1120902F00F0201209040084048
:1016F0007047000060D8000870B58C1810F8015BC6
:1017000015F0070301D110F8013B2A1106D110F89A
:10171000012B03E010F8016B01F8016B5B1EF9D19E
:101720002B0705D40023521E0DD401F8013BFAE724
:1017300010F8013BCB1A921C03E013F8015B01F88F
:10174000015B521EF9D5A142D8D3002070BD0029FB
:1017500004D0816841F0010181607047816821F007
:10176000010181607047000010B5154988420AD117
:1017700044150121204603F033FF2046BDE8104008
:10178000002103F02DBF0F4988420AD10415012121
:10179000204603F025FF2046BDE81040002103F05D
:1017A0001FBF094988420AD10121CC03204603F01A
:1017B00017FF2046BDE81040002103F011BF10BD07
:1017C0000024014000280140003C01400146002067
:1017D0008968490700D501207047C06C80B2704706
:1017E0000246002012680A4200D0012070470146DC
:1017F00000208968090700D50120704710B54268AC
:101800000E4B1A400C790B6842EA042213434360E2
:1018100082680B4B1A40D1E9024323434C7942EAD8
:10182000440213438360C26A22F47002097C491E99
:10183000C9B242EA0151C16210BD0000FFFEF0FFD3
:10184000FDF7F1FF70B5072609290AD9C568A1F18E
:101850000A0404EB4404A640B543A3401D43C560FD
:1018600007E0056901EB4104A640B543A3401D43D1
:1018700005611F23072A09D2446B521E02EB820224
:1018800093409C4391400C43446370BD0D2A09D2A0
:10189000046BD21F02EB820293409C4391400C43A5
:1018A000046370BDC46A0D3A02EB820293409C430C
:1018B00091400C43C46270BD816841F008018160B1
:1018C0007047002904D0816841F4A001816070470D
:1018D000816821F4A00181607047816841F00401B2
:1018E0008160704770B51948194A0188C1F1A0019B
:1018F0001181038943F2C8218B4200D901810189FA
:1019000041F66410401A00B25081124D124C002270
:1019100049B100F57A6041F27D51884206D301F069
:10192000D9FA206003E022602A6070BD226005F0D1
:1019300037FF286009492068884201DD216070BDB9
:1019400007498842FBD9216070BD000006030020D2
:1019500010030020300000202C0000200000F04187
:101960000000F0C170B50C4800240C4E40680C4DCE
:10197000FA280CD20B483060012009F0C5FF346012
:1019800009482860012009F0BFFF2C6070BD07489E
:1019900030602C6070BD0000C40000202C000020CE
:1019A00030000020000020C10000E1430000704131
:1019B0000D490878002803D00B2801D00C2809D144
:1019C0000A484068002805D0A0F115024F2A02D22B
:1019D0000B2008707047F1383B2802D20C200870A9
:1019E000704700200870704786010020C400002066
:1019F00008B50121102003F0E5FD4FF47070ADF83B
:101A0000000018208DF8030003208DF802006946BD
:101A1000014801F09FFA08BD0010014070B588B080
:101A200004460D460121480303F0CCFD244E304608
:101A300005F0FEF9641EADF81840ADF8145000240E
:101A4000ADF81A40ADF8164005A9304605F0BEFCC9
:101A50006020ADF804000120ADF80600ADF80A40A2
:101A6000ADF80C4001A9304605F068FB01A93046ED
:101A700005F0AEFB01A9304605F0F8FB01A93046A0
:101A800005F03CFC0121304605F0C4F90821304640
:101A900005F098FB0821304605F0DEFB08213046B2
:101AA00005F026FC0821304605F05CFC012130469B
:101AB00005F092F90121304605F0A0F908B070BD9B
:101AC0000034014070B504460D4616480068FFF723
:101AD00038F92146FEF714FF044685F00040124E07
:101AE0003169FEF713FF1149FEF742FF0546104921
:101AF000F068FEF73DFF2146FEF708FF2946FEF796
:101B0000FFFEFFF74AF90B490978032908D1FFF7CF
:101B100018F93168FEF7FAFEBDE87040FFF73DB9ED
:101B200070BD000028000020380100200000C842DD
:101B30000000C8C2F101002070B54FF47A740C4D5A
:101B40000146072301222846FFF77CFE0121284693
:101B5000FFF7B7FE02212846FFF742FE10B9641EC8
:101B6000A4B2F7D22846BDE87040FFF736BE0000A9
:101B70000024014030B587B001214FF4017003F01B
:101B800021FD4FF4004003F0F7FC2020ADF80400E5
:101B900000248DF8074001A9164801F0DBF9164D25
:101BA0002846FFF7E1FD02948DF80C408DF80D40BA
:101BB0004FF460210491059401218DF8181002A9B9
:101BC0002846FFF71BFE01212846FFF7C0FD2846E7
:101BD000FFF772FE2846FFF70AFE0028FAD12846D2
:101BE000FFF77BFE2846FFF7F1FD0028FAD107B08A
:101BF00030BD00000008014000240140FEE7000065
:101C000010B503F051FD0020054A02F5807132F84D
:101C10001030DB080B54401C8028F8DB014810BD55
:101C2000D8050020D80600202DE9F04F8DB0334CA8
:101C3000606801285ED1324800680C903148D0F8C5
:101C40000080324830490068FEF792FE0646206167
:101C50002F48076867612F480068FFF791F8002256
:101C60002D4BFEF7E8FFFFF741F9044650212B48C2
:101C7000FEF7C6FA29482AA10968016029480068C8
:101C8000FFF7F0F882468B462046FFF7EBF8044654
:101C90000D463846FFF7E6F8CDE90A013046FFF772
:101CA000E1F806460F464046FFF7DCF880468946D5
:101CB0000C98FFF7D7F806AAA2E8300CDDE90A2352
:101CC000CDE90089CDE9042302460B46CDE9026740
:101CD00015A1124806F0E0F8104850215030FEF7E8
:101CE0008FFA0DB00D49BDE8F04F502201F15000C0
:101CF000FEF76DBA0DB0BDE8F08F00008401002042
:101D000030010020340100200000C84224000020DF
:101D100010000020C80000200000244064090020BA
:101D2000244C56002C010020244C5625332E3266BC
:101D30002C525625332E32662C414325332E3266E3
:101D40002C475925332E32662C43534225332E32ED
:101D5000662C565425332E32662300002DE9F041BF
:101D6000144E154F1548B2690025154C4FF400610B
:101D7000BA4204DB2560BDE8F04101F074B9114BB3
:101D80009A4202DC01F071F908E00F4B9A4202DC42
:101D900001F069F902E001F066F92560F0690328B5
:101DA00003DA0A482060BDE8F08101DD2760FAE728
:101DB0002560F8E7300300200000E14300080140FF
:101DC00030000020000048430000BE430000E1C393
:101DD0002DE9F0472E4C2068FEF7BCFF8046D4F872
:101DE0003804FEF7B7FF8146D4F86801FEF7B2FF6A
:101DF0000146284C284E294FE0780025062810D2AD
:101E0000DFE800F003151D252D402548A8F5000842
:101E1000804508D235603D600A2007F0F3FA0120C2
:101E2000E070BDE8F0871F4830603D60F9E708F0DA
:101E300015FB0028F5D1E078401CE070F1E71A4866
:101E400030603D60642007F0DDFA0320E07008F0A8
:101E500005FB0028E5D1E078401CE070E1E748464A
:101E6000FFF76AF806D8356010483860642007F03C
:101E7000C9FA05E035600E483860642007F0C2FA00
:101E80000520E07008F0EAFA0028CAD1E570C8E73A
:101E9000500D0020300300202C00002030000020D6
:101EA00000002F430000A041000070C10000E1C30A
:101EB0000000E1432DE9F0411C4D2868FEF74AFF80
:101EC0000446D5F8EC04FEF745FF0646D5F8B40005
:101ED000FEF740FF0346164FA4F500050020154904
:101EE000154ABD4204D2154B0B601060BDE8F0816D
:101EF000134D144F2544BD4203D2134B0B601060A9
:101F0000F4E7124F124DBE4205DAAC4203DD086021
:101F100010481060EAE7BB4205DAAC4203DD086016
:101F20000D481060E2E708601060DFE7500D002008
:101F3000000082422C00002030000020000070C110
:101F4000FFFF5FBCFFFF4000000070410000AA439C
:101F500000007A430000E1C30000E1432DE9F047AF
:101F600049480068FEF7F6FE484C00254FF001088E
:101F70002379072B0FD301230022022144A002F072
:101F800058FA012002F098F80028FAD0257184F858
:101F90000580BDE8F0873D4AA0F5000CDFF804910C
:101FA0004148424E424F12784FF40061CC450ED268
:101FB000012AEED101F059F83068E06238682063F8
:101FC00035603D60257008F049FA2081E1E742B1B3
:101FD0003848082BDDD2DFE803F0111D25313942E6
:101FE0004A54E26A3260226B3A6001F03CF884F8AD
:101FF00000802089BDE8F04709F070BF2E490160DC
:102000002E4830603D60C82007F0FCF92079401C64
:102010002071BEE708F022FA0028BAD12079401CCE
:102020002071B6E7264901603560264838603F20B8
:1020300007F0E8F92079401C2071AAE708F00EFAB1
:102040000028A6D12079401C2071A2E735603D60B0
:102050001E2007F0D7F92079401C207199E708F07D
:10206000FDF9002895D12079401C207191E7607915
:10207000082803D2401C607125718AE7072020716F
:1020800087E735603D6084E7500D00203003002075
:10209000706174726F6C20707574206B657931207B
:1020A0002020200000001643000801402C000020E2
:1020B000300000206401002000008C4200007041CC
:1020C00000000C420080A2442DE9F041374881789D
:1020D00001292ED100278770354936A0FEF7C0F8B8
:1020E000364C374D012630B3314936A0FEF7B8F8EB
:1020F00078B32F4935A0FEF7B3F8374C50B32C49CD
:1021000036A0FEF7ADF8A0B3294937A0FEF7A8F82E
:1021100000280ED10024C5F8AC61142007F06AF93C
:10212000C5F8AC71142007F065F9641CE4B2032C07
:10213000F1D3BDE8F081C5F8AC61142007F05AF97D
:10214000C5F8AC712A482060022009F0DDFB276049
:10215000EFE700E00EE0C5F8AC61142007F04AF9A3
:10216000C5F8AC7123482060022009F0CDFB276040
:10217000DFE70DE0C5F8AC61142007F03BF9C5F8C6
:10218000AC711D482060012009F0BEFB2760D0E73C
:10219000C5F8AC61142007F02DF9C5F8AC711748EB
:1021A0002060012009F0B0FB2760C2E70003002097
:1021B000280B0020676F6261636B00002C00002019
:1021C00000002142676F6168656164007475726E1A
:1021D0006C65667400000000300000207475726E3B
:1021E000726967687400000062757A7A657200002F
:1021F000000070C1000070410000C8C30000C84367
:1022000070B522488178012921D1002484702049A9
:1022100020A0FEF725F8D8B11D491FA0FEF720F831
:102220001E4D10B31A491EA0FEF71AF800280ED151
:102230000123002203211BA002F0FBF81C482860A8
:10224000012009F061FB012009F05EFB2C6070BDEC
:1022500001230022032117A002F0EBF8184D012002
:10226000286009F051FB2C6070BD0123002203217E
:1022700014A002F0DEF816482860012009F044FBA3
:10228000012009F041FB2C6070BD0000000300201C
:10229000280B002036000000320000003000002033
:1022A000330000006E756D3A3321202000000000DD
:1022B0000000C8436E756D3A3621202000000000F2
:1022C000AC0121426E756D3A3221202000000000E1
:1022D0000000C8C32DE9F0411D488178012921D1B2
:1022E000002484701B491CA0FDF7BAFFDFF86C8046
:1022F0001B4DC8B117491BA0FDF7B2FF1A4E1B4F6B
:10230000C8B114491AA0FDF7ABFF00280AD1C6F8DE
:102310000080012009F0F8FA34602F60012009F0F4
:10232000F3FA2C60BDE8F081C5F80080022009F0C6
:10233000EBFA2C60F6E70F483060012009F0E4FA70
:1023400034602F60012009F0DFFA2C60EAE700001A
:1023500000030020280B0020310000000000C843CB
:102360002C000020320000003000002000007041EE
:10237000330000000000C8C32DE9F04107460846BD
:102380000B4E0C4C2168FEF7C1FA216BFEF766FA82
:1023900001460948FEF7BAFA054631463846FEF7C7
:1023A000B5FA2946FEF75AFA2063BDE8F08100002D
:1023B0000AD7A33C2C02002048E17A3F2DE9F041E6
:1023C000074608460B4E0C4C2168FEF79FFA216E1B
:1023D000FEF744FA01460948FEF798FA05463146E9
:1023E0003846FEF793FA2946FEF738FA2066BDE82C
:1023F000F08100000AD7A33C2C02002048E17A3F7C
:10240000072181430902054A10684FF6FF0318406F
:10241000034B184308431060704700000CED00E0C8
:102420000000FA0508B5002000906B4601227521D6
:10243000682008F09DF829A005F01EFD9DF8000019
:10244000682809D02E4801682E4A01F4E061114342
:102450000160BFF34F8FFEE708F03CFC00283CD141
:10246000782009F079F910B91CA005F005FD782055
:1024700008F03CFB10B924A005F0FEFCC82009F0D0
:1024800029F910B92AA005F0F7FC07F037F910B9BF
:1024900031A005F0F1FC3D4808F00AF907F03CFBDB
:1024A00010B93BA005F0E8FC40F2731006F0E6FF1F
:1024B00010B941A005F0E0FCC82007F071FA10B98E
:1024C00047A005F0D9FC09F091FC012009F01AF8A9
:1024D000002802D14BA005F0CFFC08BD6D70755FE0
:1024E0007365745F73656E736F7220636F6D706C6C
:1024F000657465202E2E2E2E2E2E0D0A0000000053
:102500000CED00E00400FA056D70755F636F6E6698
:1025100069677572655F6669666F20636F6D706C61
:10252000657465202E2E2E2E2E2E0D0A0000000022
:102530006D70755F7365745F73616D706C655F72EC
:1025400061746520636F6D706C657465202E2E2E2E
:102550002E2E2E0D0A000000646D705F6C6F61649A
:102560005F6D6F74696F6E5F6472697665725F66C6
:1025700069726D7761726520636F6D706C657465EB
:10258000202E2E2E2E2E2E0D0A0000008C00002054
:10259000646D705F7365745F6F7269656E7461748A
:1025A000696F6E20636F6D706C657465202E2E2EC2
:1025B0002E2E2E0D0A000000646D705F656E616244
:1025C0006C655F6665617475726520636F6D706CB4
:1025D000657465202E2E2E2E2E2E0D0A0000000072
:1025E000646D705F7365745F6669666F5F72617456
:1025F0006520636F6D706C657465202E2E2E2E2EF7
:102600002E0D0A006D70755F7365745F646D705F89
:10261000737461746520636F6D706C657465202ED2
:102620002E2E2E2E2E0D0A0070B5174B2428197849
:1026300000D1B1B1012926D10024232819D02428A2
:1026400021D05978114D4A1CD2B25A706854142ABC
:1026500019D95C701C702846BDE870401421FDF744
:10266000CFBD01201870BDE8704014210748FDF768
:10267000C7BD1C705C7000F035FFBDE870401421D0
:102680000248FDF7BDBD70BD040300203C0B0020D7
:1026900030B4164B01222428197800D129B1012920
:1026A00021D10024232806D008E01A7030BC142160
:1026B0000F48FDF7A5BD1C705C709A701978012950
:1026C00011D124280FD05978094D4A1CD2B25A7022
:1026D0006854142A07D95C701C709C70284630BC62
:1026E0001421FDF78DBD30BC7047000000030020B1
:1026F000280B002030B4164B01222428197800D171
:1027000029B1012921D10024232806D008E01A701C
:1027100030BC14210F48FDF773BD1C705C709A70BB
:102720001978012911D124280FD05978094D4A1C54
:10273000D2B25A706854142A07D95C701C709C700D
:10274000284630BC1421FDF75BBD30BC704700004B
:1027500000030020280B002030B4164B012224284F
:10276000197800D129B1012921D10024232806D0CC
:1027700008E01A7030BC14210F48FDF741BD1C70F1
:102780005C709A701978012911D124280FD05978DA
:10279000094D4A1CD2B25A706854142A07D95C7089
:1027A0001C709C70284630BC1421FDF729BD30BC3C
:1027B0007047000000030020280B00202DE9F041A5
:1027C000234CA4F5E953D87800EB40050020197894
:1027D0005A7841EA022121809978A170D978E17074
:1027E00019795A7941EA0221A1809979DA7941EA85
:1027F0000221E180197A5A7A41EA022121810021DD
:1028000010E05A1804EB8007967A7E81D67A127B04
:1028100046EA0226024604EB8202401CC0B29681C0
:10282000C91C89B2A942ECD3204604F026FE30B17F
:102830002046BDE8F04140F2AA51FDF7E1BC054950
:1028400001204870BDE8F04101020348FDF7D8BC03
:102850007029002028030020500C002010B50D49DD
:102860004FF48074224601F58070FDF7B0FC2146DC
:102870000848FDF7C5FCFFF7A1FF0748417801298B
:1028800006D100214170BDE81040044800F0BABEF6
:1028900010BD0000500B00202803002070290020EC
:1028A000704701B508E00020401CC0B20A28FBD3E5
:1028B0009DF80000401E00909DF800000028F2D115
:1028C00008BD000070B5FEF71EF80646094D3046FB
:1028D000A96AFEF715F80849FEF718F804464FF004
:1028E00040413046FEF712F82146FEF709F8AE6285
:1028F00070BD0000300300200000404170B5FEF7BD
:1029000002F80C4C054660632846E16BFDF7F8FFC2
:102910000949FDF7FBFF06464FF040412846FDF709
:10292000F5FF3146FDF7ECFF0146A063E56308467D
:1029300070BD000030030020000040410020401C1A
:102940000A28FCDB704700002DE9F04F87B0824871
:10295000006800287ED181494FF480500860804D86
:10296000688808B1401E6880DFF8F8B14FF00009B0
:102970009BF80000042812D005281BD006281CD084
:1029800012281DD013282CD008282FD0092830D089
:10299000102831D0112832D00E2833D034E0687896
:1029A000401CC0B2687014282ED985F8019001F03F
:1029B000F7FF29E003F0FCFD26E003F0F9FD23E03A
:1029C0002878401CC0B2287004281DD985F80090D2
:1029D00003F0E6FDFFF714F96349086006F0B4FC64
:1029E00012E007F0CBFA03F035FF0DE003F0F0FD45
:1029F0000AE0FEF777FF07E001F088FB04E001F052
:102A0000CDFB01E000F012FD5848007800F064FBB7
:102A1000002002F059FF0690012002F055FF4042CD
:102A20000590DDE9051000F063FE9BF80000142816
:102A300001D102F0F5FF4E48DFF838810168D8F87F
:102A40000000FFF73FF80490DDE9051005F06EF98E
:102A5000824600E07CE09BF80000474905282CD026
:102A600006282AD012282DD0132830D0082833D099
:102A7000086804F035FE04460498404F00EB0A0154
:102A8000081938603E4E091B316002F0FBF93860CE
:102A9000306802F0F7F930603A4A3868514202F083
:102AA000FAF93860374A3068514202F0F4F9306080
:102AB0009BF80010142914D01DE0086804F04EFDA6
:102AC0000446D9E7086804F0F5FC0446D4E7086832
:102AD00004F018FD0446CFE7086804F0A9FD044699
:102AE000CAE739680290CDE90041DDE90421534687
:102AF000069802F0CDFF9BF8000008B1142814D10D
:102B00002148DDE90532D8F80010006802F0CCF960
:102B10001E4C08B101202070DDE90521D8F8000025
:102B200002F0F0FC08B184F800902969D8F80000A0
:102B300004F0A6FD18B93168386803F013FE9BF85D
:102B40000000142804D107B0BDE8F04F02F0E8BF40
:102B500007B0BDE8F08F00003001214214040140AD
:102B60001C010020F10100200800002000000020CE
:102B7000100000200C00002014000020180000208D
:102B80001C000020D8F5FFFF2400002004000020D6
:102B900030B51B4A83790168002B2AD013688B4318
:102BA0001360111D0B680468A3430B600179114485
:102BB0000B68046823430B60114C083421680368D8
:102BC00099432160231D19680568A943196041795B
:102BD000102905D011440A68006802430A6030BD1C
:102BE0002168026811432160196800680143196077
:102BF00030BD0079104402688A43026030BD000095
:102C00000004014010B588B020216846FDF7F8FAAD
:102C1000134C14A168466369226805F03DF901234D
:102C200000221946684601F004FCD4E9012312A1F0
:102C3000684605F031F9012300220221684601F0BF
:102C4000F8FBD4E9032311A1684605F025F9012317
:102C500000220321684601F0ECFB08B010BD000023
:102C6000CC000020736561743A256420204D4944EE
:102C70003A256420202000004C313A256420204C65
:102C8000333A2564202020202000000052313A25CC
:102C900064202052333A25642020202020000000A8
:102CA00010B588B00121022002F070FC012104203F
:102CB00002F088FCC020ADF8040004208DF8070065
:102CC00001A91C4800F046F905A804F0CDFB00203E
:102CD000ADF814004FF6FF71ADF81810ADF81A00FA
:102CE000ADF81600144C05A9204604F06FFB002334
:102CF0001A460321204604F0A3F902A804F00CFAB6
:102D00000A21ADF8101002A9204604F0BFF90121F4
:102D1000204604F06DF801221146204604F004FA22
:102D20000021204604F028FB0121204604F066F82B
:102D300008B010BD000801400004004010B588B084
:102D40000121042002F022FC0121082002F03AFCBB
:102D5000C020ADF8040004208DF8070001A91C482C
:102D600000F0F8F805A804F07FFB0020ADF814008F
:102D70004FF6FF71ADF81810ADF81A00ADF8160057
:102D8000144C05A9204604F021FB00231A46032118
:102D9000204604F055F902A804F0BEF90A21ADF866
:102DA000101002A9204604F071F90121204604F018
:102DB0001FF801221146204604F0B6F900212046F2
:102DC00004F0DAFA0121204604F018F808B010BD2A
:102DD000000C01400008004070B53C4B18880646C6
:102DE0003B4C05256580618833F81120824200D371
:102DF0001046491C89B261807B29F4D3A681658085
:102E00006188A68933F81120B24200D8A281491CFA
:102E100089B261807B29F3D3A1890844C0F34700BC
:102E200060706580618833F8112082421BD94A1C8A
:102E300033F81220824216D98A1C33F812208242BB
:102E400011D9CA1C33F8122082420CD20A1D33F861
:102E50001220824207D24A1D33F81220824202D247
:102E60006188E18004E0491C89B261807629D9D368
:102E70007621A180A18833F8112082421BD24A1CFE
:102E800033F81220824216D28A1C33F81220824272
:102E900011D2CA1C33F8122082420CD90A1D33F811
:102EA0001220824207D94A1D33F81220824202D9E9
:102EB000A088208104E0491E89B2A1800529D9D8C3
:102EC0002089E18808444008207070BDD8050020A2
:102ED000E40000202DE9F041104FB7F90A603E8070
:102EE000B7F90200301AFDF73AFFDFF834800D4BD6
:102EF0004246FDF72EFE04460D463046FDF72FFFF5
:102F00004246094BFDF725FE22462B46FDF77AFD8A
:102F1000FDF7ECFF7E80BDE8F0810000100300208B
:102F2000FCA9F1D24D62403F4D62503F10B58A0777
:102F3000120F0F23934021F00304054921448C68AC
:102F40009C438C608B68904003438B6010BD0000F5
:102F5000000001402DE9F0410022CC7804F00F037D
:102F6000E40601D58C7823430C784FF00F0714F05A
:102F7000FF0F4FF0010C1CD005680CFA02F40E880C
:102F80002640A64211D1960007FA06F825EA080560
:102F900003FA06F848EA0505CE78282E02D0482E16
:102FA00002D002E0446100E00461521C082AE4D32C
:102FB00005600A88FF2A1ED94568002202F108062A
:102FC0000CFA06F40E882640A64210D1960007FAA5
:102FD00006F825EA080503FA06F848EA0505CE785A
:102FE000282E00D14461CE78482E00D10461521CB5
:102FF000082AE3D34560BDE8F0810000F0B5154C28
:10300000002801DAE36900E06368C0F30346420D7B
:10301000120185B2C0F301579540032F07D0C202B9
:103020000CD50322B240934343F0706209E023F0D1
:103030007062636823F07063636002E0AB4343F047
:10304000706201B12A43002801DAE261F0BD6260DA
:10305000F0BD0000000001400246002092680A42D4
:1030600000D0012070474161704701617047000046
:1030700010B50B4C0146072301222046FEF7E2FB68
:1030800001212046FEF71DFC02212046FEF7A8FB89
:103090000028F9D02046BDE81040FEF79EBB000096
:1030A0000028014010B50B4C0146072301222046A1
:1030B000FEF7C8FB01212046FEF703FC0221204653
:1030C000FEF78EFB0028F9D02046BDE81040FEF741
:1030D00084BB0000002801402DE9F04F8DB004466C
:1030E00002F008FCBB490860DFF8ECB2BB4E012CD3
:1030F0007ED04421D02000F068FB04464321D0203C
:1031000000F063FB04EB0020FDF724FE0746462198
:10311000D02000F05AFB04464521D02000F055FB9A
:1031200004EB0020FDF716FE81464821D02000F078
:103130004CFB04464721D02000F047FB04EB002065
:10314000FDF708FE05463C21D02000F03EFB04467A
:103150003B21D02000F039FB04EB0020FDF7FAFD05
:1031600082463E21D02000F030FB04463D21D02095
:1031700000F02BFB04EB0020FDF7ECFD8046402126
:10318000D02000F022FB04463F21D02000F01DFBA0
:1031900004EB0020FDF7DEFD0446B7F18E4F05DDA0
:1031A0004FF08F413846FDF7ABFB0746B9F18E4F24
:1031B00005DD4FF08F414846FDF7A2FB8146B5F192
:1031C0008E4F05DD4FF08F412846FDF799FB0546F0
:1031D000BAF18E4F05DD4FF08F415046FDF790FB61
:1031E0008246B8F18E4F07DD4FF08F41404600E038
:1031F0005FE0FDF785FB8046B4F18E4F05DD4FF0B3
:103200008F412046FDF77CFB044687F00040CBF859
:1032100000005046FDF726FEDFF8C4A1DFF8C4B178
:10322000CDE90B1052465B46FDF705FDFDF75EFE4E
:1032300002904046FDF716FECDE9091052465B4666
:10324000FDF7F9FCFDF752FE01902046FDF70AFE5E
:10325000CDE9071052465B46FDF7EDFCFDF746FE53
:1032600000903846FDF7FEFDDFF87C81CDE90510C2
:103270004FF066373A464346FDF7DDFCFDF736FE74
:1032800082464846FDF7EEFDCDE903103A46434637
:10329000FDF7D1FCFDF72AFE80465448544FDFF875
:1032A00054B10078DFF8509102281ED0032843D093
:1032B00087E002F031FA514831680160504CB4F9AE
:1032C0000000FDF73EFDCBF80000B4F90400FDF767
:1032D00038FD4C4908604C48B0F90400FDF731FD59
:1032E0004A4908600DB0BDE8F08FDDE900108AF0B2
:1032F000004200F069FCFDF7B5FD3A465B46FDF77C
:103300009AFC00224B46FDF724FCFDF7EFFD3060F0
:1033100042460099029800F085FDFDF7A3FD3A466C
:103320005B46FDF788FC00224B46FDF712FCFDF7DB
:10333000DDFD3749086044E0DDE90732DDE90910C9
:1033400005F032FD00224B46FDF703FC3A465B4692
:10335000FDF771FCFDF7CAFD8046DDE90732DDE9C6
:103360000B1005F021FD00224B46FDF7F2FB3A461B
:103370005B46FDF760FCFDF7B9FD0746DFF894A05A
:10338000DDE905104FF066394A465346FDF753FC18
:10339000FDF7ACFD01464046FEF7EEFF80F0004031
:1033A0003060DDE903104A465346FDF744FCFDF763
:1033B0009DFD01463846FFF701F880F000411448B2
:1033C00001600E48316801600E4805600F480460D6
:1033D00088E7000020000020100000207800002076
:1033E0008FC2F5285C1F9A40665E8D400000002069
:1033F000F1D4C853FB210940008066400C00002036
:1034000080000020140000208600002024000020FE
:10341000740000206666304010B500F0B9F8BDE8D1
:1034200010400149FDF772BAC3F5804070B51A4EDD
:103430001848B0610320F061184CD4F83804FDF747
:1034400089FC174D6860D4F8B004FDF783FCA860D0
:103450002068FDF77FFCE860D4F8F000FDF77AFC07
:103460002861D4F86801FDF775FC6861002455F8FF
:10347000241011F0FF4F07D0B069FDF75DFD03D2B6
:1034800055F82400B061F461641CE4B2072CEED35B
:1034900070BD0000003C1C4630030020500D002091
:1034A0001C2F002010B50D4C012020600F2005F0CE
:1034B000B3FF002222600A49088803060CD500F0F9
:1034C0003F0000044B881844AA2358434FF47A73F2
:1034D000B0FBF3F048600A8010BD0000800121427B
:1034E000C400002070B527496FF02F0408788A784F
:1034F000303800EBC00303EB001002EB8002487889
:10350000214B303800EB800004EB40001044188061
:10351000C8784A79303800EBC00505EB001002EBA3
:1035200080020879303800EB800004EB4000104442
:10353000588016480078092823D188790A7A3038CB
:1035400000EBC00505EB001002EB8002C8793038B3
:1035500000EB800004EB400002449A80487ACD7A68
:10356000303800EBC00606EB001005EB8005887ACA
:10357000303800EB800004EB40002844D880424300
:103580001A8170BD3C0B002006030020F1010020D1
:1035900010B50520FEF7D0FAFDF7DCFBBDE81040C2
:1035A0000149FDF7B3B900003333533A2DE9F04731
:1035B0000646DDE908890F4610469A46FDF7E0FB0E
:1035C00004460D465046FDF7DBFB02460B463046EF
:1035D0003946FDF730FB22462B46FDF7BAFA424644
:1035E0004B46FDF70FFABDE8F04707F057BA10B5A4
:1035F0004008FDF7C5FBBDE810406FF00502FDF780
:1036000089BB00002DE9FC4780460022DFF8CC9002
:1036100009E008EB8200808900F064F809EB0211F0
:103620000860521CD2B298F803009042F1D8B8F862
:103630000400FFF7DCFF04460D46B8F80600FFF76C
:10364000D6FF06460F46C9E9024598F80300401E1A
:1036500009EB0010C0E902673B4632462046294686
:10366000FDF72CFC0CD222462B4600201C49FDF70E
:103670006AFA32463B46FDF7C5F906460F4607E0B3
:1036800022462B4630463946FDF75DFA06460F4680
:103690000022134630463946FDF7F8FB17D04FF0AD
:1036A000010A0FE0C3B2524630463946CDE9004523
:1036B000FFF77CFF09EB0A12C2E902010AF1010AD5
:1036C0000AF0FF0A98F80300401E5045EADC98F81B
:1036D0000300BDE8FC4703F0E9B80000F012002049
:1036E00000807640010AC0F3850040EA81107047EF
:1036F0002DE9F35FFDF733FB2B4C00222346FDF74A
:1037000028FA6FF001052A46FDF704FB274E002238
:103710003346FDF790FA0022254BFDF78CFAFDF7B2
:10372000E5FBFDF79FFB234FDFF88C903A464B46B5
:10373000FDF70FFADFF884A000225346FDF709FADF
:10374000DFF87CB000225B46FDF775FAFDF7CEFB93
:10375000DFF87080C8F800000198FDF700FB002238
:103760002346FDF7F6F92A46FDF7D4FA0022334640
:10377000FDF761FA00220E4BFDF75DFAFDF7B6FB8F
:10378000FDF770FB3A464B46FDF7E3F9002253463E
:10379000FDF7DFF900225B46FDF74DFAFDF7A6FBCA
:1037A000C8F80400BDE8FC9F0000694000003E40EE
:1037B00000002640F1D4C853FB21094000C050400E
:1037C0000000244030010020FEE770B504460D469D
:1037D00000F0CEF8204600F09BF800F011F92846E2
:1037E00000F096F800F00CF900F0C2F8641CE0B2AA
:1037F00000F08EF800F004F9002000F053F80446C1
:1038000000F0E2F8204670BD70B50B4C00256560F5
:103810000A48016821F470610160016841F4407157
:1038200001602560012005F0F7FD0120606005F0D2
:10383000F3FD656070BD0000A8812142040C0140C9
:1038400008B50121082001F0BDFE4FF44060ADF83D
:10385000000010208DF8030003208DF80200694657
:103860000148FFF777FB08BD000C014070B50B4C19
:10387000002565600A48016821F4706101600168F3
:1038800041F44071016001262660012005F0C4FD6D
:103890006660012005F0C0FD656070BDA881214211
:1038A000040C01402DE9F0478146002416480168C8
:1038B00021F470610160016841F40061016000253C
:1038C000124E00274FF00108C6F8AC71022005F037
:1038D000A3FDC6F8AC816006040ED6F8280108B135
:1038E000641CE4B2022005F097FD6D1CEDB2082DBA
:1038F000EAD3B9F1000F02D0FFF786FF01E0FFF72E
:10390000B5FF2046BDE8F087040C0140008021424D
:103910002DE9F04105461448016821F47061016009
:10392000016841F440710160104E4FF00008C6F884
:10393000AC8100240127E809C6F8A8016806050E35
:10394000012005F069FDC6F8AC71012005F064FDA9
:10395000C6F8AC81012005F05FFD641CE4B2082CC0
:10396000E9D3BDE8F0810000040C01400080214251
:1039700070B51348016821F470610160016841F479
:10398000407101600F4C0120C4F8A801D4F828113F
:1039900000290BD0C4F8AC0105F03EFD0025C4F8A9
:1039A000A851D4F8280118B1002070BD002070BDC6
:1039B000012005F031FDC4F8AC51012070BD0000BC
:1039C000040C01400080214210B50B48016821F42D
:1039D00070610160016841F440710160074C002092
:1039E00060602060012005F017FD0120606020600C
:1039F000BDE8104005F010BD040C0140A881214233
:103A000070B500241448016821F4706101600168F8
:103A100041F400610160114D0126C5F8A861012043
:103A200005F0FAFCC5F8AC61012005F0F5FC0AE0F0
:103A3000641CE4B2322C03D9FFF7C6FF002070BD2E
:103A4000012005F0E9FCD5F828010028F0D1C5F8DF
:103A5000AC01012070BD0000040C01400080214237
:103A600010B51446FFF7B1FE2070012010BD2DE9FE
:103A7000F84305460E46174698466A46314628469C
:103A8000FFF7EEFF0124BC40B8F1000F04D09DF811
:103A9000000044EA000202E09DF80020A243D2B2F6
:103AA00000923146284600F031F8BDE8F8832DE950
:103AB000F8430646DDF820800F4614461D466A4648
:103AC00039463046FFF7CCFFF0B1611CFF20C4F14E
:103AD000080200FA01F12A44521ED0400143C8B244
:103AE000C5F1080108FA01F808F0FF03C4F1070165
:103AF000CB409DF8002002401A43009239463046E0
:103B000000F004F8BDE8F8830020FBE707B502AB3E
:103B1000012200F001F80EBD2DE9F04180460F466C
:103B200016461D460024FFF723FF4046FFF7F0FE30
:103B3000FFF766FF3846FFF7EBFEFFF761FF06E091
:103B4000285DFFF7E5FEFFF75BFF641CE4B2B442BB
:103B5000F6D3FFF739FF0120BDE8F081094801687D
:103B6000094801600949096841600949096881609B
:103B700008490968C160084909680161074909687D
:103B80004161704744010020A40A00204801002040
:103B90004C01002050010020540100205801002059
:103BA00041060748826942F0010282610548426885
:103BB00022F0E062426042680A43426070470000BF
:103BC00000100240000001402DE9F04FABB0074665
:103BD0009148D0E91056D0E90E43CDE92956CDE9F8
:103BE0002743269200F1480222AE3CCA3CC6D0E9E7
:103BF0000223CDE92023D0E90423CDE91E2300F1DF
:103C000058021AAE3CCA3CC6066800F168023CCABB
:103C1000CDE91623CDE91845C2698069CDE91402C2
:103C2000002012901390109011900C900D900E9017
:103C30000F90089009900A900B90069007900590BD
:103C40000846FDF70FF904460D4687F00040FDF7E2
:103C500009F922462B4605F0A7F8FDF747F904902D
:103C600012AFDFF8B881CDE90187022222AC01232F
:103C700011461046009407F0FFFD26A920AACDE9C1
:103C8000002110A8012302901A461946022007F0CD
:103C9000F3FD10991298FCF7E1FD08F10805286082
:103CA00011991398FCF7DAFD68600DF1300905F100
:103CB0002800CDE9010902231A4619460094184646
:103CC00007F0DAFD16A90223CDE9009108A80290B9
:103CD0001A461946184607F0CFFD1A990898FCF7BE
:103CE000BDFD4F4C20601B990998FCF7B7FD606043
:103CF0001C990A98FCF7B2FDA0601D990B98FCF77F
:103D0000ADFDE0600DF1780B06A80223CDE900B40B
:103D100002901A461946012007F0AEFD0DF1140A73
:103D200014A8CDE9010A06A9012302220091114637
:103D3000184607F0A1FD31460598FCF78FFD0146B6
:103D40004FF07E50FCF714FE059014A8CDE9010752
:103D50000222012311460094104607F08DFD012335
:103D6000CDE9007A05F108061A46194602200296A6
:103D700007F082FDCDE900B5012302221146184665
:103D8000CDF808A007F078FDDDE90401FCF7B8FDE7
:103D90000590CDE901A701231A4619460220009695
:103DA00007F06AFD12992868FCF758FDC8F8000072
:103DB00013996868FCF752FDC8F80400CDE901B911
:103DC0000223012211461846009607F055FD0C9972
:103DD0002798FCF795FD0C900D992898FCF790FD1D
:103DE0000D900E992998FCF78BFD0E900F992A984B
:103DF000FCF786FD0F90022305F12800CDE9009421
:103E000002901A461946184607F036FDD8F8000009
:103E10002BB0BDE8F08F0000B8D60008B00200203B
:103E2000080B00202DE9F04FABB007460B46954933
:103E3000D1E92056D1E91E40CDE92956CDE92740E8
:103E4000269201F1800000F1080274CACDE9222413
:103E5000CDE92456D1E90824CDE92024D1E90A246A
:103E6000CDE91E2400F1180274CACDE91A24CDE967
:103E70001C564E68D0E90B45826A406BCDE9174568
:103E800016921990D1E90C01CDE91401002012908D
:103E90001390109011900C900D900E900F90089030
:103EA00009900A900B900690079005901846FCF731
:103EB000D9FF04460D4687F00040FCF7D3FF2246A9
:103EC0002B4604F071FFFDF711F8049012AFDFF8F4
:103ED000B881CDE90187022222AC012311461046A8
:103EE000009407F0C9FC26A920AACDE9002110A85A
:103EF000012302901A461946022007F0BDFC1099D2
:103F00001298FCF7ABFC08F108052860119913988A
:103F1000FCF7A4FC68600DF1300905F12000CDE943
:103F2000010902231A4619460094184607F0A4FC1A
:103F300016A90223CDE9009108A802901A46194655
:103F4000184607F099FC1A990898FCF787FC4F4C23
:103F500020601B990998FCF781FC60601C990A9805
:103F6000FCF77CFCA0601D990B98FCF777FCE060E7
:103F70000DF1780B06A80223CDE900B402901A4691
:103F80001946012007F078FC0DF1140A14A8CDE9B8
:103F9000010A06A90123022200911146184607F0E2
:103FA0006BFC31460598FCF759FC01464FF07E50FA
:103FB000FCF7DEFC059014A8CDE9010702220123DD
:103FC00011460094104607F057FC0123CDE9007A12
:103FD00005F108061A4619460220029607F04CFC25
:103FE000CDE900B50123022211461846CDF808A0FC
:103FF00007F042FCDDE90401FCF782FC0590CDE905
:1040000001A701231A4619460220009607F034FC46
:1040100012992868FCF722FCC8F800001399686818
:10402000FCF71CFCC8F80400CDE901B90223012209
:1040300011461846009607F01FFC0C992798FCF7CC
:104040005FFC0C900D992898FCF75AFC0D900E9986
:104050002998FCF755FC0E900F992A98FCF750FC14
:104060000F90022305F12000CDE9009402901A463A
:104070001946184607F000FCD8F800002BB0BDE840
:10408000F08F0000B8D60008C8020020180B0020EE
:1040900008B50121042001F095FA4FF48070ADF8C5
:1040A000000048208DF8030069460248FEF752FFE1
:1040B00008BD00000008014010B5044600F018F8E3
:1040C0000A4A012807D0002050801080508802281A
:1040D00009D0002010BD5188641CB1EB440FF5D20B
:1040E000491C5180F2E70120108010BDC000002063
:1040F00010B54FF480710448FEF7AEFF08B1002000
:1041000010BD012010BD00000008014070B51F4B1C
:104110005C8900211E4DD5F82001DA89C82A10D209
:1041200098B1B0F5C87F10D8521C92B2DA8158818C
:1041300000F1C8069E81C72A03D101225A70C82205
:10414000DA819A89904200D284B2491CC9B2052909
:10415000E3D3D889C82809D328680E4D401EB0F58E
:10416000C77F04D80C4900200860286070BD02F0A9
:1041700083FB5889FCF7EEFD06462046FCF7EAFD76
:104180003146FEF79FFB286070BD00003003002021
:10419000500D0020300000202C0000202DE9F047B9
:1041A0002D4C258A00212D4E0123D6F82001A28A0C
:1041B000C82A0FD290B1B0F5C87F0FD8521C92B266
:1041C000A282208200F1C8076782C72A02D1A370A9
:1041D000C822A282628A904200D285B2491CC9B22A
:1041E0000529E4D3A08AC82818D33068DFF8708086
:1041F0001C4FDFF87490002690B1618A88420FD27C
:10420000A07940B9A3711948C8F80000184838606F
:10421000012005F0F7F8C9F80060E663BDE8F08713
:1042200006F01CF90028F9D1A07901280DD002F080
:1042300023FB208AFCF78EFD04462846FCF78AFD06
:104240002146FEF75BFB3860E8E7A671C9F800601D
:104250003E60C8F80060E1E730030020500D002008
:1042600064010020300000202C0000200000F041FC
:10427000000016C41FB50121084601F0A3F9012171
:10428000042001F09FF94FF48054ADF80C40482011
:104290008DF80F0003A91148FEF75CFE0C210020E9
:1042A000FEF744FE019400208DF808000C208DF8E4
:1042B000090001248DF80A4001A8FEF769FC2820B6
:1042C0008DF8000002208DF801008DF802408DF875
:1042D0000340684600F078F81FBD00000008014068
:1042E00010B5022000F011F8032000F020F80020A3
:1042F00000F014F8002000F02FF8002000F026F85D
:10430000BDE81040002000F01BB808B50323009062
:1043100002226B21D020FFF7CAFB08BD08B502239B
:10432000009004221C21D020FFF7C1FB08BD08B576
:104330000223009004221B21D020FFF7B8FB08BD08
:10434000034601223721D020FFF791BB0346052207
:104350006A21D020FFF78BBB034606226B21D020B9
:10436000FFF785BBFEE7000010B5002401231A46C5
:10437000194610A000F05DF80DE0002001F0A4FA4D
:104380000444012001F0A0FA201A04B2204604F0EF
:10439000E9FE07F0A9FD0120FFF78EFE0028ECD012
:1043A00002F01EF902F012FA02F032FABDE81040F3
:1043B00002F03CB9312E5374616E64617264204D19
:1043C0006F6465007047000070B50F23C278012646
:1043D0000178002A1ED0144A126802F4E062C2F585
:1043E000E062120AC2F10404D3404578A540827805
:1043F0001A402A43120101F1E02181F800240078DB
:1044000000F01F018E404009800000F1E020C0F85C
:10441000006170BD01F01F0086404809800000F176
:10442000E020C0F8806170BD0CED00E0002001F0DC
:10443000A7BF38B51446491E022908D801EB8101EF
:1044400049060A0E00932346002100F001F838BD0A
:104450002DE9F0410746069C0D461646002B01D07B
:10446000FFF7E4FF3146284601F096FF0122064996
:10447000384601F0EBFF002C03D0BDE8F04100F01E
:104480007DB9BDE8F0810000A400002010B500F067
:1044900015F800F0D3F80123BDE810401A4619467C
:1044A00001A0FFF7C6BF00006F6C656420696E69EC
:1044B0007420737563636573732100000748816915
:1044C00041F0080181610648016821F0FF010160A7
:1044D000016841F0330101607047000000100240A4
:1044E000040C01402DE9F04105461448016821F013
:1044F000F0010160016841F030010160104E4FF0A1
:104500000008C6F8A08100240127E809C6F8A40124
:104510006806050E0120FEF7C4F9C6F8A071012057
:10452000FEF7BFF9C6F8A0810120FEF7BAF9641CB6
:10453000E4B2082CE9D3BDE8F0810000040C01408E
:104540000080214270B51348016821F0F00101603C
:10455000016841F0300101600F4C0120C4F8A40152
:10456000D4F8241100290BD0C4F8A001FEF799F962
:104570000025C4F8A451D4F8240118B1002070BD5E
:10458000002070BD0220FEF78CF9C4F8A051012074
:1045900070BD0000040C01400080214270B50D4840
:1045A000016821F0F0010160016841F03001016013
:1045B000094C0020206060600220FEF772F901259E
:1045C00025600120FEF76DF96560BDE870400220AE
:1045D000FEF767B9040C0140A081214270B50024A8
:1045E0001448016821F0F0010160016841F0800188
:1045F0000160114D0126C5F8A4610120FEF751F9B3
:10460000C5F8A0610120FEF74CF90AE0641CE4B291
:10461000322C03D9FFF7C2FF002070BD0120FEF746
:1046200040F9D5F824010028F0D1C5F8A0010120F7
:1046300070BD0000040C01400080214210B540F61E
:10464000C410401E0028FCD1AE2200213C2007F0FF
:10465000B5FDA62200213C2007F0B0FDAE220021CE
:104660003C2007F0ABFDD52200213C2007F0A6FD41
:10467000802200213C2007F0A1FDA82200213C203F
:1046800007F09CFD1F2200213C2007F097FDD3225C
:1046900000213C2007F092FD002211463C2007F04B
:1046A0008DFD402200213C2007F088FD8D22002155
:1046B0003C2007F083FD142200213C2007F07EFD02
:1046C000202200213C2007F079FD022200213C201D
:1046D00007F074FDA12200213C2007F06FFDC822E5
:1046E00000213C2007F06AFDDA2200213C2007F07F
:1046F00065FD022200213C2007F060FD812200219F
:104700003C2007F05BFDCF2200213C2007F056FD46
:10471000D92200213C2007F051FDF12200213C204C
:1047200007F04CFDDB2200213C2007F047FD402232
:1047300000213C2007F042FD2E2200213C2007F002
:104740003DFDA42200213C2007F038FDA6220021D7
:104750003C2007F033FDAF2200213C2007F02EFD66
:10476000002001F00DFE01F085FE034800210180CC
:1047700041800121417110BD9C00002001F07ABEF2
:1047800070B50546FFF752FE0024295D202903D2AB
:10479000A0B2012201F0D2FD641C802CF5DBBDE843
:1047A0007040FFF7EBBF2DE9F04104460F46164677
:1047B0001D46FFF7C7FE68B16006000EFFF792FEC8
:1047C000FFF70CFF48B13846FFF78CFEFFF706FFF6
:1047D00000240DE00120BDE8F081FFF7DFFE01209D
:1047E000F9E7285DFFF77EFEFFF7F8FE30B1641CA5
:1047F000B442F6DBFFF7D2FE0020ECE7FFF7CEFE77
:104800000020E8E71FB56B4601AA02A903A807F03C
:10481000E3FC9DF80800394B01280AD19DF80C10E3
:1048200039B99DF80410012903D19DF80010012920
:1048300005D09DF80C1050EA010403D00AE0FF20D7
:1048400018701FBD9DF80420012A03D19DF8002097
:10485000012A01D018B10CE0FE2018701FBD0129FB
:1048600007D19DF80420012A03D19DF80020012AD8
:1048700004D09DF80420144303D006E0FD201870F6
:104880001FBD9DF80040012C02D0012803D009E093
:10489000FC2018701FBD012904D11AB99DF80040F1
:1048A000012C02D0012803D008E0012018701FBDA0
:1048B000012903D112B99DF8004014B1012803D099
:1048C00009E0022018701FBD012904D1012A02D17C
:1048D0009DF8004014B1012803D007E003201870B0
:1048E0001FBD19B912B99DF8000020B11143F7D1CD
:1048F000002018701FBD042018701FBDF801002093
:104900000149085C70470000580900200020044A53
:1049100000211154401CC0B20928FAD3704700008E
:10492000580900202DE9F8438046012500951A4ECC
:10493000002777700095194C24E0BDF8000010EABC
:10494000080F02D0C4F8BC5101E0C4F8BC71C4F82F
:10495000B451052004F060FDC4F8B471052004F0E2
:104960005BFDC4F8B451D4F8380120B17178BDF8BA
:10497000000001437170BDF800004FF6FF7101EABD
:1049800040000090BDF80000FF28D6D9BDE8F843EC
:10499000102004F041BD0000580900200080214291
:1049A0002DE9F05F0720FFF7ABFF7A4CA0600820ED
:1049B000FFF7A6FFE0600520FFF7A2FF20610620B9
:1049C000FFF79EFF606100F0F5F8A061A268724BEE
:1049D0004FF002094FF0030A4FF0040B4FF0010CA7
:1049E0004FF00008FF2A08D1E168FF2905D12169AD
:1049F000FF2902D16169FF2902D0616831B107E066
:104A0000616801295BD1C4F8048058E0C4F804C08F
:104A1000322A02DAE168322905DB2169322905DA16
:104A20006569322D02DA0721197048E0962A02DD05
:104A3000E568322D04DB962905DD6569322D02DA41
:104A4000082119703BE0322A02DAE568962D04DC71
:104A5000322905DA6569962D02DD092119702EE0EB
:104A6000962A02DDE568962D04DC962905DD656948
:104A7000962D02DD0A21197021E0E5685A2D02DB2E
:104A800066695A2E03DA83F800C0BDE8F09F962DC0
:104A900001DC962E02DD83F80090F6E75A2A01DB4E
:104AA0005A2902DA83F800A0EFE7962A01DC96295A
:104AB00002DD83F800B0E8E708B983F80080401F02
:104AC0003649374E374F384D0C284AD2DFE800F0D0
:104AD0003D404346062206223D4043462078401C86
:104AE000C0B22070052801D9052020703068FBF77E
:104AF000B5FE0446306039462868FBF7AFFE014634
:104B000028602A48844200DD306029488142BCDDAB
:104B10002860BAE72078401EC0B2207008B984F837
:104B200000C088463068FBF7EBFE0446306039462B
:104B30002868FBF7E5FE01462860444501DAC6F81F
:104B40000080B942A1DA2F609FE783F800C09CE79C
:104B500083F800B099E783F8009096E783F800A007
:104B600093E76068012802D083F800808DE7E06851
:104B70005B38312889D25B3A312A86D260695B384A
:104B8000312882D220695B38312886D283F80080B0
:104B90007BE70000D40100208601002000002041B6
:104BA0005C010020000040416001002000004842FC
:104BB0000000704270B5FFF7A9FE00F0BDF80D4887
:104BC000C178007941EA00210B48418000200A4B5E
:104BD0001B1D012513F81040641E05FA04F20A4259
:104BE00002D1401CC0B270BD401CC0B21028F1D32D
:104BF000002070BD58090020F600002010B5144CAC
:104C000000202060102004F007FC0120FFF78AFE3E
:104C10004320FFF787FE0020FFF784FE0120FFF707
:104C200081FE0020FFF77EFE0020FFF77BFE0020C4
:104C3000FFF778FE0020FFF775FE0020FFF772FEF9
:104C400001202060BDE81040102004F0E5BB00000A
:104C5000B081214210B5144C00202060102004F0D7
:104C6000DBFB0120FFF75EFE4320FFF75BFE002029
:104C7000FFF758FE0020FFF755FE5A20FFF752FEBF
:104C80005A20FFF74FFE5A20FFF74CFE5A20FFF73D
:104C900049FE5A20FFF746FE01202060BDE8104083
:104CA000102004F0B9BB0000B0812142F8B5012109
:104CB000082000F087FC48208DF803004FF4804066
:104CC000ADF8000003248DF802401A4E69463046C4
:104CD000FEF740F90121082000F074FC10258DF842
:104CE0000350E802ADF800008DF8024069463046F6
:104CF000FEF730F90121082000F064FC8DF8035024
:104D00002802ADF800008DF8024069463046FEF7F3
:104D100021F90121082000F055FC8DF803506802AC
:104D2000ADF800008DF8024069463046FEF712F9F2
:104D3000F8BD0000000C01402DE9FC41002701975F
:104D400001260096204CC4F8B071204D2878FFF75A
:104D5000E9FD6878FFF7E6FD022001902CE000965F
:104D60001B4D4FF6FF781CE0C4F8B461052004F039
:104D700053FBC4F8B471052004F04EFBC4F8B461D1
:104D8000D4F8380140B19DF80400BDF80010285C4B
:104D900008439DF804106854BDF8000008EA40007C
:104DA0000090BDF80000FF28DED9102004F034FB8D
:104DB0009DF80400401C01909DF804000928CED302
:104DC000C4F8B061BDE8FC8100802142F6000020FB
:104DD0005809002010B500F00DF800F00BF800F0B5
:104DE00009F8FFF70BFF00F025F8BDE81040FFF7CA
:104DF00031BF000010B50E4C00202060102004F0E0
:104E00000BFB0120FFF78EFD4220FFF78BFD0020FA
:104E1000FFF788FD0020FFF785FD0020FFF782FDEA
:104E200001202060BDE81040102004F0F5BA000019
:104E3000B081214210B5124C002020600120FFF704
:104E400071FD4420FFF76EFD0020FFF76BFD012090
:104E5000FFF768FDEE20FFF765FD0020FFF762FD1C
:104E60000020FFF75FFD0020FFF75CFD0020FFF74B
:104E700059FD01202060BDE81040102004F0CCBA9C
:104E8000B0812142002802DD00F214507047FDDAA3
:104E9000A0F214507047884200DD0846904200DAC4
:104EA00010467047704700002DE9F047804689465C
:104EB00016461F46294C0025A088002814D13046EC
:104EC00006F02DFD8246384606F029FD5044322872
:104ED00003DAE088401CE08000E0E580E0880A28F2
:104EE00002D90120A080E580A088012820D1208956
:104EF000401C80B22081C82801D92581A58018488E
:104F0000DFF860A0804513DDDAF800001438FBF705
:104F100018FF4946FCF706F80AD2DAF80000143008
:104F2000FBF70FFF4946FCF707F801D20220A080EB
:104F3000A088022810D16089401C80B2608164285A
:104F400001D96581A580F01906F0E9FC322803DD5E
:104F5000A5800120BDE8F0870020FBE71C010020B0
:104F600000E0AB46280000202DE9F04F8BB0DFF8C1
:104F700028830125002798F80100C84C30380528FF
:104F800011D2DFE800F00E0305080B00A5700BE05E
:104F90000220A07008E00320A07005E00420A070AB
:104FA00002E0A77000E0A77098F80300312801D153
:104FB0000521A170322801D10620A070B8480078E0
:104FC000142812D101F0BCF878B198F80500322805
:104FD0001BD098F80900312817D098F80B00312819
:104FE00013D098F80D0031280FD0AB48FBF731F9FA
:104FF000152815D227705021A748FBF701F90BB0EF
:10500000A8A0BDE8F04F02F063BC27705021A24871
:10501000FBF7F6F80BB0A8A0BDE8F04F02F058BCC3
:1050200098F80500312802D0322808D00EE000F0B0
:105030007DF9052004F0CAF900F078F906E000F0E7
:1050400089FC00F073F9A1A002F042FC98F8070077
:10505000312802D0322805D008E065609BA002F01C
:1050600037FC03E0676099A002F032FC98F8090071
:10507000DFF860B2312853D11C2104A8FBF7C0F837
:10508000029703970097019793A1834801F044FC8E
:105090000646701C7ED0E06808EB0609821B494674
:1050A00004A8FBF794F88DA104A801F035FC05468F
:1050B000681C6FD0AA1E0DF1100A0DF1120102A892
:1050C000FBF785F802A803F03DFF00225B46FBF7E3
:1050D00040FDFBF70BFF824908601C2104A8FBF789
:1050E0008FF8E16870190A1A09EB0501491C04A838
:1050F000FBF76DF879A104A801F00EFC411C49D022
:10510000821E0AF102016846FBF761F8684603F067
:1051100019FFFBF7EBFE734908606CA002F0D8FBA7
:1051200098F80B00312855D11C2104A8FBF768F82A
:1051300002970397009701976BA1574801F0ECFB8A
:105140000646701C26D0E06808EB0609821B49461B
:1051500004A8FBF73CF861A104A801F0DDFB0546BB
:10516000681C17D0AA1E0DF1100A0DF1120102A839
:10517000FBF72DF802A803F0E5FE00225B46FBF7E3
:10518000E8FCFBF7B3FE594908601C2104A8FBF7B3
:1051900037F800E07DE0E16870190A1A09EB0501B3
:1051A000491C04A8FBF713F84CA104A801F0B4FBB8
:1051B000411C6ED0821E0AF102016846FBF707F817
:1051C000684603F0BFFEFBF791FE494908603FA027
:1051D00002F07EFB98F80D00312852D11C2104A862
:1051E000FBF70EF8029703970097019741A12A4811
:1051F00001F092FB0646701C4BD0E068B044821B65
:10520000414604A8FAF7E3FF34A104A801F084FBA7
:105210000546681C3DD0AA1E0DF110090DF11201C2
:1052200002A8FAF7D4FF02A803F08CFE00225B4626
:10523000FBF78FFCFBF75AFE2F4908601C2104A8DE
:10524000FAF7DEFFE16870190A1A08EB0501491C3C
:1052500004A8FAF7BCFF29A104A801F05DFB411CDA
:1052600017D0821E09F102016846FAF7B0FF6846BE
:1052700003F068FEFBF73AFE2149086013A002F034
:1052800027FB27700BB05021BDE8F04F0248FAF71A
:10529000B7BF0BB0BDE8F08F540A00208401002096
:1052A000F101002024526563656976655061636B86
:1052B0004572726F7223000024547261696E696EC8
:1052C000674C6F636B65642300000000244F4B2321
:1052D0000000000000005940415000002C00000078
:1052E0004401002048010020565000004C010020DD
:1052F0005001002054500000540100202300000001
:105300005801002010B507480749826801F1500094
:10531000521CFAF75CFFBDE8104050210248FAF732
:105320006FBF000084010020040A002070B5322104
:105330005D48FAF765FF5C485CA11C380968C161EB
:105340005B485C4C0068A0427DD25B4D2946FBF770
:105350000FFBFBF787FD02460B4658A1594802F0A8
:105360009BFD59480068A0426ED2FBF77BFD0246C8
:1053700054480B4651A10A3002F08EFD5348006894
:10538000A0427CD22946FBF7F3FAFBF76BFD0246FD
:105390004C480B4649A1143002F07EFD4C48006891
:1053A000A04271D2FBF75EFD024646480B4643A180
:1053B0001E3002F071FD47480068A04269D22946BC
:1053C000FBF7D6FAFBF74EFD02463E480B463BA1E3
:1053D000283002F061FD40480068A0425ED2FBF731
:1053E00041FD024637480B4634A1323002F054FDED
:1053F00034492D48FAF70FFF38A12B48FAF70BFF75
:10540000304929480A31FAF706FF35A12648FAF74C
:1054100002FF2C4924481431FAF7FDFE31A122483D
:10542000FAF7F9FE274920481E31FAF7F4FE2EA1BB
:105430001D48FAF7F0FE23491B482831FAF7EBFE26
:105440002AA1194801E010E014E0FAF7E4FE1D4932
:1054500015483231FAF7DFFE25A11348FAF7DBFED3
:10546000BDE87040104802F033BABDE8704021A09A
:1054700002F02EBABDE870401EA002F029BABDE8C5
:1054800070401CA002F024BABDE8704019A002F0E0
:105490001FBABDE8704017A002F01ABABDE870400C
:1054A00014A002F015BA0000A00100202441500011
:1054B00044010020000080800000C84225332E32C5
:1054C00066000000BC0A0020480100204C010020BA
:1054D0005001002054010020580100202C414400BC
:1054E0002C5650002C5649002C5450002C5444008B
:1054F00023000000244765745049444572726F725E
:10550000230000002DE9F04180460D46164617485D
:105510000078002804D0164C164FA08918B116E068
:105520000020BDE8F08138680A38FBF70AFC4146E4
:10553000FBF7F8FC0BD238680A30FBF702FC414657
:10554000FBF7FAFC03D215B90EB90120A081A0899E
:10555000012809D12D1F242D02D3361F242E03D25A
:105560000020A0810120DCE70020DAE70400002011
:105570001C01002028000020034A516821F440410A
:10558000014351607047000000100240054A0029A5
:1055900003D0D1690143D1617047D1698143D161A1
:1055A0007047000000100240054A002903D011692D
:1055B0000143116170471169814311617047000017
:1055C00000100240054A002903D09169014391610E
:1055D000704791698143916170470000001002405B
:1055E000054A002903D0D1680143D1607047D168D2
:1055F0008143D160704700000010024010B5264A78
:10560000516801F00C01254B002927D0042927D02F
:10561000082927D00360516801F0F0010909204BE7
:105620005C5C0168E1404160546804F4E064240A71
:105630001C5D21FA04F48460546804F46054E40AA4
:105640001B5DD940C160526802F44042920B144B7A
:105650001B1F9A5CB1FBF2F1016110BD0360DAE738
:105660000360D8E7516801F47011536803F4803384
:10567000022404EB914133B153689B0307D5094BD6
:1056800059430160C7E7074B59430160C3E7034B28
:1056900059430160BFE700000010024000127A0089
:1056A0004C00002000093D002DE9F04700240025B2
:1056B000174E4FF00108C6F8008000277760FDF70D
:1056C0003DF9C6F804803760FDF738F9C6F8008068
:1056D0007760A6F5C876FDF731F9DFF83890C6F89F
:1056E0009071FDF72BF9FDF729F90420FDF7C0FCB7
:1056F000000929F815006D1CEDB2C6F89081FDF780
:105700001DF9641CE4B2802CE9D3BDE8F0870000E9
:1057100090812142D80500202DE9F04F8BB0684ED2
:1057200007A8CDE9006006F1260108AB03AA881F8F
:1057300003F0EEFF3088C0057ED50398FBF701FB30
:105740006FF01D084146FBF751F90446706004985C
:10575000FBF7F7FA4146FBF749F90746B0600598B1
:10576000FBF7EFFA4146FBF741F90546F060069872
:10577000FBF7E7FA4146FBF739F980463061012132
:105780002046FBF733F92946FBF7C0F805464FF0F2
:10579000404421463846FBF7B9F84146FBF7B6F8D6
:1057A0002946FBF75BF8FBF75DFB03F0B5F8DFF884
:1057B00014814FF066373A464346FBF7CAF9FBF7C8
:1057C00095FB7061F06801210546FBF70FF98246F1
:1057D0002946FBF79BF80546B06821468146FBF752
:1057E00095F84946FBF792F82946FBF789F84FF000
:1057F0007E51FBF733F8FBF735FB04460D460121DC
:105800007068FBF7F3F84946FBF780F8814650468D
:105810003169FBF77BF84946FBF720F8FBF722FBE1
:1058200022462B4603F0C0FA3A464346FBF791F96D
:10583000FBF75CFBB06100E03FE031698946484618
:10584000FBF764F8F168044608460A91FBF75EF836
:10585000B16805468A465046FBF758F8716883469A
:1058600008460991FBF752F85946FAF7F7FF29461F
:10587000FBF746F82146FBF743F8FBF7F3FA04463B
:105880000D4649460998FBF741F8814650460A996A
:10589000FBF73CF84946FAF7E1FF0121FBF7A6F8D0
:1058A000FBF7E0FA22462B4603F07EFA3A464346DF
:1058B000FBF74FF9FBF71AFBF0610BB0BDE8F08F77
:1058C0006000002066A64C400021002803D001287B
:1058D00006D000207047054AB2F9000011807047D9
:1058E000034AB2F900001180704700002404004010
:1058F0002408004010B54221D020FDF766FF044681
:105900004121D020FDF761FF04EB0020FBF722FAD4
:10591000B0F18E4F03DD4FF08F41FAF7F1FF0949E7
:10592000FBF726F8FBF79EFA074A084BFBF76AF8E5
:105930000022074BFBF70DF9FBF7D8FABDE8104042
:10594000FBF72BBA0000AA43A4703D0AD74342409C
:10595000000024402DE9F047DFF874A0DFF87490D0
:10596000DFF874801D4F1E4D1E4C1F4EDAF80000EC
:105970002168FBF7D7FA02D02068CAF800006168F6
:10598000D9F80000FBF7CEFA02D06068C9F8000031
:10599000A168D8F80000FBF7C5FA02D0A068C8F8E3
:1059A0000000E1683868FBF7BDFA01D0E0683860B4
:1059B00021692868FBF7B6FA01D02069286061697F
:1059C0003068FBF7AFFA01D060693060BDE8F0875E
:1059D00044010020480100204C010020500100201B
:1059E00054010020A40A00205801002010B5084CE2
:1059F0000020A081E06220630021084600F0B2FE92
:105A000001202072BDE8104002A006F00BB9000092
:105A10007003002050312C52454144592C31000074
:105A200070B5194CE078002500280CD0174806F016
:105A300053F9E57065702570A5622079002801D0C2
:105A4000E571257170BDA07818B1E07908B92078AA
:105A500068B160780028F5D020780128F2D10B4891
:105A6000183006F039F965700220207070BD0748C3
:105A7000183006F031F90549182218310348FAF7B1
:105A8000A6FBA57070BD000070030020382F002019
:105A90002DE9F04106ADE0CD1A4C6063A163E263ED
:105AA00023646564A664E7642078022825D116483B
:105AB000006805F055FF15490025884213DC14489D
:105AC0001449006888420EDB3046FBF73AF905F0CE
:105AD00047FF114EB04206DA3846FBF732F905F0BF
